{
  "abi": [
    {
      "inputs": [
        {
          "internalType": "address",
          "name": "_factory",
          "type": "address"
        },
        {
          "internalType": "address",
          "name": "_WETH",
          "type": "address"
        }
      ],
      "stateMutability": "nonpayable",
      "type": "constructor"
    },
    {
      "stateMutability": "payable",
      "type": "fallback"
    },
    {
      "inputs": [],
      "name": "DELEGATE_TARGET",
      "outputs": [
        {
          "internalType": "address",
          "name": "",
          "type": "address"
        }
      ],
      "stateMutability": "view",
      "type": "function"
    },
    {
      "inputs": [],
      "name": "WETH",
      "outputs": [
        {
          "internalType": "address",
          "name": "",
          "type": "address"
        }
      ],
      "stateMutability": "view",
      "type": "function"
    },
    {
      "inputs": [
        {
          "components": [
            {
              "internalType": "address",
              "name": "tokenA",
              "type": "address"
            },
            {
              "internalType": "address",
              "name": "tokenB",
              "type": "address"
            },
            {
              "internalType": "uint256",
              "name": "amountADesired",
              "type": "uint256"
            },
            {
              "internalType": "uint256",
              "name": "amountBDesired",
              "type": "uint256"
            },
            {
              "internalType": "uint256",
              "name": "amountAMin",
              "type": "uint256"
            },
            {
              "internalType": "uint256",
              "name": "amountBMin",
              "type": "uint256"
            },
            {
              "internalType": "uint256",
              "name": "ratio",
              "type": "uint256"
            }
          ],
          "internalType": "struct IFeSwapRouter.AddLiquidityParams",
          "name": "addParams",
          "type": "tuple"
        },
        {
          "internalType": "address",
          "name": "to",
          "type": "address"
        },
        {
          "internalType": "uint256",
          "name": "deadline",
          "type": "uint256"
        }
      ],
      "name": "addLiquidity",
      "outputs": [
        {
          "internalType": "uint256",
          "name": "amountA",
          "type": "uint256"
        },
        {
          "internalType": "uint256",
          "name": "amountB",
          "type": "uint256"
        },
        {
          "internalType": "uint256",
          "name": "liquidityAAB",
          "type": "uint256"
        },
        {
          "internalType": "uint256",
          "name": "liquidityABB",
          "type": "uint256"
        }
      ],
      "stateMutability": "nonpayable",
      "type": "function"
    },
    {
      "inputs": [
        {
          "components": [
            {
              "internalType": "address",
              "name": "token",
              "type": "address"
            },
            {
              "internalType": "uint256",
              "name": "amountTokenDesired",
              "type": "uint256"
            },
            {
              "internalType": "uint256",
              "name": "amountTokenMin",
              "type": "uint256"
            },
            {
              "internalType": "uint256",
              "name": "amountETHMin",
              "type": "uint256"
            },
            {
              "internalType": "uint256",
              "name": "ratio",
              "type": "uint256"
            }
          ],
          "internalType": "struct IFeSwapRouter.AddLiquidityETHParams",
          "name": "addParams",
          "type": "tuple"
        },
        {
          "internalType": "address",
          "name": "to",
          "type": "address"
        },
        {
          "internalType": "uint256",
          "name": "deadline",
          "type": "uint256"
        }
      ],
      "name": "addLiquidityETH",
      "outputs": [
        {
          "internalType": "uint256",
          "name": "amountToken",
          "type": "uint256"
        },
        {
          "internalType": "uint256",
          "name": "amountETH",
          "type": "uint256"
        },
        {
          "internalType": "uint256",
          "name": "liquidityTTE",
          "type": "uint256"
        },
        {
          "internalType": "uint256",
          "name": "liquidityTEE",
          "type": "uint256"
        }
      ],
      "stateMutability": "payable",
      "type": "function"
    },
    {
      "inputs": [
        {
          "internalType": "uint256",
          "name": "amountOut",
          "type": "uint256"
        },
        {
          "internalType": "address[]",
          "name": "path",
          "type": "address[]"
        }
      ],
      "name": "estimateAmountsIn",
      "outputs": [
        {
          "internalType": "uint256[]",
          "name": "amounts",
          "type": "uint256[]"
        }
      ],
      "stateMutability": "view",
      "type": "function"
    },
    {
      "inputs": [
        {
          "internalType": "uint256",
          "name": "amountIn",
          "type": "uint256"
        },
        {
          "internalType": "address[]",
          "name": "path",
          "type": "address[]"
        }
      ],
      "name": "estimateAmountsOut",
      "outputs": [
        {
          "internalType": "uint256[]",
          "name": "amounts",
          "type": "uint256[]"
        }
      ],
      "stateMutability": "view",
      "type": "function"
    },
    {
      "inputs": [],
      "name": "factory",
      "outputs": [
        {
          "internalType": "address",
          "name": "",
          "type": "address"
        }
      ],
      "stateMutability": "view",
      "type": "function"
    },
    {
      "inputs": [
        {
          "internalType": "uint256",
          "name": "amountOut",
          "type": "uint256"
        },
        {
          "internalType": "uint256",
          "name": "reserveIn",
          "type": "uint256"
        },
        {
          "internalType": "uint256",
          "name": "reserveOut",
          "type": "uint256"
        }
      ],
      "name": "getAmountIn",
      "outputs": [
        {
          "internalType": "uint256",
          "name": "amountIn",
          "type": "uint256"
        }
      ],
      "stateMutability": "pure",
      "type": "function"
    },
    {
      "inputs": [
        {
          "internalType": "uint256",
          "name": "amountIn",
          "type": "uint256"
        },
        {
          "internalType": "uint256",
          "name": "reserveIn",
          "type": "uint256"
        },
        {
          "internalType": "uint256",
          "name": "reserveOut",
          "type": "uint256"
        }
      ],
      "name": "getAmountOut",
      "outputs": [
        {
          "internalType": "uint256",
          "name": "amountOut",
          "type": "uint256"
        }
      ],
      "stateMutability": "pure",
      "type": "function"
    },
    {
      "inputs": [
        {
          "internalType": "uint256",
          "name": "amountA",
          "type": "uint256"
        },
        {
          "internalType": "uint256",
          "name": "reserveA",
          "type": "uint256"
        },
        {
          "internalType": "uint256",
          "name": "reserveB",
          "type": "uint256"
        }
      ],
      "name": "quote",
      "outputs": [
        {
          "internalType": "uint256",
          "name": "amountB",
          "type": "uint256"
        }
      ],
      "stateMutability": "pure",
      "type": "function"
    },
    {
      "inputs": [
        {
          "components": [
            {
              "internalType": "address",
              "name": "tokenA",
              "type": "address"
            },
            {
              "internalType": "address",
              "name": "tokenB",
              "type": "address"
            },
            {
              "internalType": "uint256",
              "name": "liquidityAAB",
              "type": "uint256"
            },
            {
              "internalType": "uint256",
              "name": "liquidityABB",
              "type": "uint256"
            },
            {
              "internalType": "uint256",
              "name": "amountAMin",
              "type": "uint256"
            },
            {
              "internalType": "uint256",
              "name": "amountBMin",
              "type": "uint256"
            }
          ],
          "internalType": "struct IFeSwapRouter.RemoveLiquidityParams",
          "name": "removeParams",
          "type": "tuple"
        },
        {
          "internalType": "address",
          "name": "to",
          "type": "address"
        },
        {
          "internalType": "uint256",
          "name": "deadline",
          "type": "uint256"
        }
      ],
      "name": "removeLiquidity",
      "outputs": [
        {
          "internalType": "uint256",
          "name": "amountA",
          "type": "uint256"
        },
        {
          "internalType": "uint256",
          "name": "amountB",
          "type": "uint256"
        }
      ],
      "stateMutability": "nonpayable",
      "type": "function"
    },
    {
      "inputs": [
        {
          "components": [
            {
              "internalType": "address",
              "name": "tokenA",
              "type": "address"
            },
            {
              "internalType": "address",
              "name": "tokenB",
              "type": "address"
            },
            {
              "internalType": "uint256",
              "name": "liquidityAAB",
              "type": "uint256"
            },
            {
              "internalType": "uint256",
              "name": "liquidityABB",
              "type": "uint256"
            },
            {
              "internalType": "uint256",
              "name": "amountAMin",
              "type": "uint256"
            },
            {
              "internalType": "uint256",
              "name": "amountBMin",
              "type": "uint256"
            }
          ],
          "internalType": "struct IFeSwapRouter.RemoveLiquidityParams",
          "name": "removeParams",
          "type": "tuple"
        },
        {
          "internalType": "address",
          "name": "to",
          "type": "address"
        },
        {
          "internalType": "uint256",
          "name": "deadline",
          "type": "uint256"
        }
      ],
      "name": "removeLiquidityETH",
      "outputs": [
        {
          "internalType": "uint256",
          "name": "amountToken",
          "type": "uint256"
        },
        {
          "internalType": "uint256",
          "name": "amountETH",
          "type": "uint256"
        }
      ],
      "stateMutability": "nonpayable",
      "type": "function"
    },
    {
      "inputs": [
        {
          "components": [
            {
              "internalType": "address",
              "name": "tokenA",
              "type": "address"
            },
            {
              "internalType": "address",
              "name": "tokenB",
              "type": "address"
            },
            {
              "internalType": "uint256",
              "name": "liquidityAAB",
              "type": "uint256"
            },
            {
              "internalType": "uint256",
              "name": "liquidityABB",
              "type": "uint256"
            },
            {
              "internalType": "uint256",
              "name": "amountAMin",
              "type": "uint256"
            },
            {
              "internalType": "uint256",
              "name": "amountBMin",
              "type": "uint256"
            }
          ],
          "internalType": "struct IFeSwapRouter.RemoveLiquidityParams",
          "name": "removeParams",
          "type": "tuple"
        },
        {
          "internalType": "address",
          "name": "to",
          "type": "address"
        },
        {
          "internalType": "uint256",
          "name": "deadline",
          "type": "uint256"
        }
      ],
      "name": "removeLiquidityETHFeeOnTransfer",
      "outputs": [
        {
          "internalType": "uint256",
          "name": "amountETH",
          "type": "uint256"
        }
      ],
      "stateMutability": "nonpayable",
      "type": "function"
    },
    {
      "inputs": [
        {
          "components": [
            {
              "internalType": "address",
              "name": "tokenA",
              "type": "address"
            },
            {
              "internalType": "address",
              "name": "tokenB",
              "type": "address"
            },
            {
              "internalType": "uint256",
              "name": "liquidityAAB",
              "type": "uint256"
            },
            {
              "internalType": "uint256",
              "name": "liquidityABB",
              "type": "uint256"
            },
            {
              "internalType": "uint256",
              "name": "amountAMin",
              "type": "uint256"
            },
            {
              "internalType": "uint256",
              "name": "amountBMin",
              "type": "uint256"
            }
          ],
          "internalType": "struct IFeSwapRouter.RemoveLiquidityParams",
          "name": "removeParams",
          "type": "tuple"
        },
        {
          "internalType": "address",
          "name": "to",
          "type": "address"
        },
        {
          "internalType": "uint256",
          "name": "deadline",
          "type": "uint256"
        },
        {
          "internalType": "bool",
          "name": "approveMax",
          "type": "bool"
        },
        {
          "components": [
            {
              "internalType": "uint8",
              "name": "v",
              "type": "uint8"
            },
            {
              "internalType": "bytes32",
              "name": "r",
              "type": "bytes32"
            },
            {
              "internalType": "bytes32",
              "name": "s",
              "type": "bytes32"
            }
          ],
          "internalType": "struct IFeSwapRouter.Signature",
          "name": "sigTTE",
          "type": "tuple"
        },
        {
          "components": [
            {
              "internalType": "uint8",
              "name": "v",
              "type": "uint8"
            },
            {
              "internalType": "bytes32",
              "name": "r",
              "type": "bytes32"
            },
            {
              "internalType": "bytes32",
              "name": "s",
              "type": "bytes32"
            }
          ],
          "internalType": "struct IFeSwapRouter.Signature",
          "name": "sigTEE",
          "type": "tuple"
        }
      ],
      "name": "removeLiquidityETHWithPermit",
      "outputs": [
        {
          "internalType": "uint256",
          "name": "amountToken",
          "type": "uint256"
        },
        {
          "internalType": "uint256",
          "name": "amountETH",
          "type": "uint256"
        }
      ],
      "stateMutability": "nonpayable",
      "type": "function"
    },
    {
      "inputs": [
        {
          "components": [
            {
              "internalType": "address",
              "name": "tokenA",
              "type": "address"
            },
            {
              "internalType": "address",
              "name": "tokenB",
              "type": "address"
            },
            {
              "internalType": "uint256",
              "name": "liquidityAAB",
              "type": "uint256"
            },
            {
              "internalType": "uint256",
              "name": "liquidityABB",
              "type": "uint256"
            },
            {
              "internalType": "uint256",
              "name": "amountAMin",
              "type": "uint256"
            },
            {
              "internalType": "uint256",
              "name": "amountBMin",
              "type": "uint256"
            }
          ],
          "internalType": "struct IFeSwapRouter.RemoveLiquidityParams",
          "name": "removeParams",
          "type": "tuple"
        },
        {
          "internalType": "address",
          "name": "to",
          "type": "address"
        },
        {
          "internalType": "uint256",
          "name": "deadline",
          "type": "uint256"
        },
        {
          "internalType": "bool",
          "name": "approveMax",
          "type": "bool"
        },
        {
          "components": [
            {
              "internalType": "uint8",
              "name": "v",
              "type": "uint8"
            },
            {
              "internalType": "bytes32",
              "name": "r",
              "type": "bytes32"
            },
            {
              "internalType": "bytes32",
              "name": "s",
              "type": "bytes32"
            }
          ],
          "internalType": "struct IFeSwapRouter.Signature",
          "name": "sigTTE",
          "type": "tuple"
        },
        {
          "components": [
            {
              "internalType": "uint8",
              "name": "v",
              "type": "uint8"
            },
            {
              "internalType": "bytes32",
              "name": "r",
              "type": "bytes32"
            },
            {
              "internalType": "bytes32",
              "name": "s",
              "type": "bytes32"
            }
          ],
          "internalType": "struct IFeSwapRouter.Signature",
          "name": "sigTEE",
          "type": "tuple"
        }
      ],
      "name": "removeLiquidityETHWithPermitFeeOnTransfer",
      "outputs": [
        {
          "internalType": "uint256",
          "name": "amountETH",
          "type": "uint256"
        }
      ],
      "stateMutability": "nonpayable",
      "type": "function"
    },
    {
      "inputs": [
        {
          "components": [
            {
              "internalType": "address",
              "name": "tokenA",
              "type": "address"
            },
            {
              "internalType": "address",
              "name": "tokenB",
              "type": "address"
            },
            {
              "internalType": "uint256",
              "name": "liquidityAAB",
              "type": "uint256"
            },
            {
              "internalType": "uint256",
              "name": "liquidityABB",
              "type": "uint256"
            },
            {
              "internalType": "uint256",
              "name": "amountAMin",
              "type": "uint256"
            },
            {
              "internalType": "uint256",
              "name": "amountBMin",
              "type": "uint256"
            }
          ],
          "internalType": "struct IFeSwapRouter.RemoveLiquidityParams",
          "name": "removeParams",
          "type": "tuple"
        },
        {
          "internalType": "address",
          "name": "to",
          "type": "address"
        },
        {
          "internalType": "uint256",
          "name": "deadline",
          "type": "uint256"
        },
        {
          "internalType": "bool",
          "name": "approveMax",
          "type": "bool"
        },
        {
          "components": [
            {
              "internalType": "uint8",
              "name": "v",
              "type": "uint8"
            },
            {
              "internalType": "bytes32",
              "name": "r",
              "type": "bytes32"
            },
            {
              "internalType": "bytes32",
              "name": "s",
              "type": "bytes32"
            }
          ],
          "internalType": "struct IFeSwapRouter.Signature",
          "name": "sigAAB",
          "type": "tuple"
        },
        {
          "components": [
            {
              "internalType": "uint8",
              "name": "v",
              "type": "uint8"
            },
            {
              "internalType": "bytes32",
              "name": "r",
              "type": "bytes32"
            },
            {
              "internalType": "bytes32",
              "name": "s",
              "type": "bytes32"
            }
          ],
          "internalType": "struct IFeSwapRouter.Signature",
          "name": "sigABB",
          "type": "tuple"
        }
      ],
      "name": "removeLiquidityWithPermit",
      "outputs": [
        {
          "internalType": "uint256",
          "name": "amountA",
          "type": "uint256"
        },
        {
          "internalType": "uint256",
          "name": "amountB",
          "type": "uint256"
        }
      ],
      "stateMutability": "nonpayable",
      "type": "function"
    },
    {
      "inputs": [
        {
          "internalType": "uint256",
          "name": "amountOut",
          "type": "uint256"
        },
        {
          "internalType": "address[]",
          "name": "path",
          "type": "address[]"
        },
        {
          "internalType": "address",
          "name": "to",
          "type": "address"
        },
        {
          "internalType": "uint256",
          "name": "deadline",
          "type": "uint256"
        }
      ],
      "name": "swapETHForExactTokens",
      "outputs": [
        {
          "internalType": "uint256[]",
          "name": "amounts",
          "type": "uint256[]"
        }
      ],
      "stateMutability": "payable",
      "type": "function"
    },
    {
      "inputs": [
        {
          "internalType": "uint256",
          "name": "amountOutMin",
          "type": "uint256"
        },
        {
          "internalType": "address[]",
          "name": "path",
          "type": "address[]"
        },
        {
          "internalType": "address",
          "name": "to",
          "type": "address"
        },
        {
          "internalType": "uint256",
          "name": "deadline",
          "type": "uint256"
        }
      ],
      "name": "swapExactETHForTokens",
      "outputs": [
        {
          "internalType": "uint256[]",
          "name": "amounts",
          "type": "uint256[]"
        }
      ],
      "stateMutability": "payable",
      "type": "function"
    },
    {
      "inputs": [
        {
          "internalType": "uint256",
          "name": "amountOutMin",
          "type": "uint256"
        },
        {
          "internalType": "address[]",
          "name": "path",
          "type": "address[]"
        },
        {
          "internalType": "address",
          "name": "to",
          "type": "address"
        },
        {
          "internalType": "uint256",
          "name": "deadline",
          "type": "uint256"
        }
      ],
      "name": "swapExactETHForTokensFeeOnTransfer",
      "outputs": [],
      "stateMutability": "payable",
      "type": "function"
    },
    {
      "inputs": [
        {
          "internalType": "uint256",
          "name": "amountIn",
          "type": "uint256"
        },
        {
          "internalType": "uint256",
          "name": "amountOutMin",
          "type": "uint256"
        },
        {
          "internalType": "address[]",
          "name": "path",
          "type": "address[]"
        },
        {
          "internalType": "address",
          "name": "to",
          "type": "address"
        },
        {
          "internalType": "uint256",
          "name": "deadline",
          "type": "uint256"
        }
      ],
      "name": "swapExactTokensForETH",
      "outputs": [
        {
          "internalType": "uint256[]",
          "name": "amounts",
          "type": "uint256[]"
        }
      ],
      "stateMutability": "nonpayable",
      "type": "function"
    },
    {
      "inputs": [
        {
          "internalType": "uint256",
          "name": "amountIn",
          "type": "uint256"
        },
        {
          "internalType": "uint256",
          "name": "amountOutMin",
          "type": "uint256"
        },
        {
          "internalType": "address[]",
          "name": "path",
          "type": "address[]"
        },
        {
          "internalType": "address",
          "name": "to",
          "type": "address"
        },
        {
          "internalType": "uint256",
          "name": "deadline",
          "type": "uint256"
        }
      ],
      "name": "swapExactTokensForETHFeeOnTransfer",
      "outputs": [],
      "stateMutability": "nonpayable",
      "type": "function"
    },
    {
      "inputs": [
        {
          "internalType": "uint256",
          "name": "amountIn",
          "type": "uint256"
        },
        {
          "internalType": "uint256",
          "name": "amountOutMin",
          "type": "uint256"
        },
        {
          "internalType": "address[]",
          "name": "path",
          "type": "address[]"
        },
        {
          "internalType": "address",
          "name": "to",
          "type": "address"
        },
        {
          "internalType": "uint256",
          "name": "deadline",
          "type": "uint256"
        }
      ],
      "name": "swapExactTokensForTokens",
      "outputs": [
        {
          "internalType": "uint256[]",
          "name": "amounts",
          "type": "uint256[]"
        }
      ],
      "stateMutability": "nonpayable",
      "type": "function"
    },
    {
      "inputs": [
        {
          "internalType": "uint256",
          "name": "amountIn",
          "type": "uint256"
        },
        {
          "internalType": "uint256",
          "name": "amountOutMin",
          "type": "uint256"
        },
        {
          "internalType": "address[]",
          "name": "path",
          "type": "address[]"
        },
        {
          "internalType": "address",
          "name": "to",
          "type": "address"
        },
        {
          "internalType": "uint256",
          "name": "deadline",
          "type": "uint256"
        }
      ],
      "name": "swapExactTokensForTokensFeeOnTransfer",
      "outputs": [],
      "stateMutability": "nonpayable",
      "type": "function"
    },
    {
      "inputs": [
        {
          "internalType": "uint256",
          "name": "amountOut",
          "type": "uint256"
        },
        {
          "internalType": "uint256",
          "name": "amountInMax",
          "type": "uint256"
        },
        {
          "internalType": "address[]",
          "name": "path",
          "type": "address[]"
        },
        {
          "internalType": "address",
          "name": "to",
          "type": "address"
        },
        {
          "internalType": "uint256",
          "name": "deadline",
          "type": "uint256"
        }
      ],
      "name": "swapTokensForExactETH",
      "outputs": [
        {
          "internalType": "uint256[]",
          "name": "amounts",
          "type": "uint256[]"
        }
      ],
      "stateMutability": "nonpayable",
      "type": "function"
    },
    {
      "inputs": [
        {
          "internalType": "uint256",
          "name": "amountOut",
          "type": "uint256"
        },
        {
          "internalType": "uint256",
          "name": "amountInMax",
          "type": "uint256"
        },
        {
          "internalType": "address[]",
          "name": "path",
          "type": "address[]"
        },
        {
          "internalType": "address",
          "name": "to",
          "type": "address"
        },
        {
          "internalType": "uint256",
          "name": "deadline",
          "type": "uint256"
        }
      ],
      "name": "swapTokensForExactTokens",
      "outputs": [
        {
          "internalType": "uint256[]",
          "name": "amounts",
          "type": "uint256[]"
        }
      ],
      "stateMutability": "nonpayable",
      "type": "function"
    },
    {
      "stateMutability": "payable",
      "type": "receive"
    }
  ],
  "evm": {
    "bytecode": {
      "linkReferences": {},
      "object": "60c06040523480156200001157600080fd5b506040516200584738038062005847833981016040819052620000349162000053565b6001600160601b0319606092831b8116608052911b1660a052620000aa565b6000806040838503121562000066578182fd5b8251620000738162000091565b6020840151909250620000868162000091565b809150509250929050565b6001600160a01b0381168114620000a757600080fd5b50565b60805160601c60a05160601c61567e620001c9600039806101b752806105a352806107a55280610d055280610ef65280611760528061188d52806119465280611c825280611cc35280611d7c5280611f145280611f5e528061201752806121c2528061232b528061242952806124ef52806125d05280612643528061271552806127e652806128675280612b3f5280612cc55280612dc85280612ef65280612faf52508061065b528061082a528061089552806109cd5280610a1e5280610dbc52806113885280611515528061180b5280611a74528061227752806126b652806127be52806128a65280612d625280612e74528061346b52806134ae528061392e52806139c25280613cb15280613ebf5280613fd1525061567e6000f3fe60806040526004361061019a5760003560e01c80639b9f35f0116100e1578063b9e3bb251161008a578063df4bf7e811610064578063df4bf7e8146104be578063e78aaf63146104de578063eef40f31146104fe578063fb3bdb411461051e576101e0565b8063b9e3bb2514610476578063c45a015514610496578063d57b57a5146104ab576101e0565b8063ad5c4648116100bb578063ad5c46481461041f578063ad615dec14610441578063b17f856614610461576101e0565b80639b9f35f0146103cc578063a59600db146103df578063a601e41b146103ff576101e0565b806356ed15ba116101435780637ff36ab51161011d5780637ff36ab51461037957806385f8c2591461038c5780638803dbee146103ac576101e0565b806356ed15ba146102fb5780635f361e951461032b57806378d9a04f1461034b576101e0565b806338ed17391161017457806338ed17391461029b5780633d221b20146102bb5780634a25d94a146102db576101e0565b8063054d50d41461021857806318cbafe51461024e5780632e1db1431461027b576101e0565b366101e0573373ffffffffffffffffffffffffffffffffffffffff7f000000000000000000000000000000000000000000000000000000000000000016146101de57fe5b005b3660008037600080366000731127dfbba70b8fbf4352a749a79a5090091ce6155af43d6000803e808015610213573d6000f35b3d6000fd5b34801561022457600080fd5b50610238610233366004614cc3565b610531565b6040516102459190615526565b60405180910390f35b34801561025a57600080fd5b5061026e610269366004614c52565b610546565b6040516102459190614eac565b34801561028757600080fd5b5061026e610296366004614b80565b610823565b3480156102a757600080fd5b5061026e6102b6366004614c52565b610851565b3480156102c757600080fd5b506101de6102d6366004614c52565b61098d565b3480156102e757600080fd5b5061026e6102f6366004614c52565b610cb1565b34801561030757600080fd5b5061031b610316366004614a1a565b610f67565b60405161024594939291906155b2565b34801561033757600080fd5b50610238610346366004614a9d565b611314565b34801561035757600080fd5b5061036b610366366004614a5f565b611339565b6040516102459291906155a4565b61026e610387366004614bca565b611721565b34801561039857600080fd5b506102386103a7366004614cc3565b611a22565b3480156103b857600080fd5b5061026e6103c7366004614c52565b611a2f565b61031b6103da3660046149d5565b611b60565b3480156103eb57600080fd5b506101de6103fa366004614c52565b612170565b34801561040b57600080fd5b5061036b61041a366004614a5f565b61249a565b34801561042b57600080fd5b50610434612641565b6040516102459190614de6565b34801561044d57600080fd5b5061023861045c366004614cc3565b612665565b34801561046d57600080fd5b50610434612672565b34801561048257600080fd5b5061036b610491366004614a9d565b61268a565b3480156104a257600080fd5b506104346126b4565b6101de6104b9366004614bca565b6126d8565b3480156104ca57600080fd5b506102386104d9366004614a5f565b612aeb565b3480156104ea57600080fd5b5061036b6104f9366004614a9d565b612d40565b34801561050a57600080fd5b5061026e610519366004614b80565b612d5b565b61026e61052c366004614bca565b612d89565b600061053e8484846130a0565b949350505050565b6060814281101561058c576040517f08c379a000000000000000000000000000000000000000000000000000000000815260040161058390614f95565b60405180910390fd5b73ffffffffffffffffffffffffffffffffffffffff7f00000000000000000000000000000000000000000000000000000000000000001686867fffffffffffffffffffffffffffffffffffffffffffffffffffffffffffffffff81018181106105f157fe5b90506020020160208101906106069190614997565b73ffffffffffffffffffffffffffffffffffffffff1614610653576040517f08c379a000000000000000000000000000000000000000000000000000000000815260040161058390614f5e565b6000806106827f00000000000000000000000000000000000000000000000000000000000000008b8a8a613151565b805190955090925084907fffffffffffffffffffffffffffffffffffffffffffffffffffffffffffffffff81019081106106b857fe5b60200260200101519050888110156106fc576040517f08c379a00000000000000000000000000000000000000000000000000000000081526004016105839061512b565b6107298888600081811061070c57fe5b90506020020160208101906107219190614997565b33848d6132ca565b610768848989808060200260200160405190810160405280939291908181526020018383602002808284376000920191909152503092506133f7915050565b6040517f2e1a7d4d00000000000000000000000000000000000000000000000000000000815273ffffffffffffffffffffffffffffffffffffffff7f00000000000000000000000000000000000000000000000000000000000000001690632e1a7d4d906107da908490600401615526565b600060405180830381600087803b1580156107f457600080fd5b505af1158015610808573d6000803e3d6000fd5b505050506108168682613581565b5050509695505050505050565b606061053e7f000000000000000000000000000000000000000000000000000000000000000085858561363a565b6060814281101561088e576040517f08c379a000000000000000000000000000000000000000000000000000000000815260040161058390614f95565b60006108bc7f00000000000000000000000000000000000000000000000000000000000000008a8989613151565b809450819250505087836001855103815181106108d557fe5b60200260200101511015610915576040517f08c379a00000000000000000000000000000000000000000000000000000000081526004016105839061512b565b6109428787600081811061092557fe5b905060200201602081019061093a9190614997565b33838c6132ca565b610981838888808060200260200160405190810160405280939291908181526020018383602002808284376000920191909152508a92506133f7915050565b50509695505050505050565b80428110156109c8576040517f08c379a000000000000000000000000000000000000000000000000000000000815260040161058390614f95565b6109f37f000000000000000000000000000000000000000000000000000000000000000086866137c1565b610a8c85856000818110610a0357fe5b9050602002016020810190610a189190614997565b33610a867f000000000000000000000000000000000000000000000000000000000000000089896000818110610a4a57fe5b9050602002016020810190610a5f9190614997565b8a8a6001818110610a6c57fe5b9050602002016020810190610a819190614997565b613868565b8a6132ca565b600085857fffffffffffffffffffffffffffffffffffffffffffffffffffffffffffffffff8101818110610abc57fe5b9050602002016020810190610ad19190614997565b73ffffffffffffffffffffffffffffffffffffffff166370a08231856040518263ffffffff1660e01b8152600401610b099190614de6565b60206040518083038186803b158015610b2157600080fd5b505afa158015610b35573d6000803e3d6000fd5b505050506040513d601f19601f82011682018060405250810190610b599190614b68565b9050610b998686808060200260200160405190810160405280939291908181526020018383602002808284376000920191909152508892506138e3915050565b86610c6f8288887fffffffffffffffffffffffffffffffffffffffffffffffffffffffffffffffff8101818110610bcc57fe5b9050602002016020810190610be19190614997565b73ffffffffffffffffffffffffffffffffffffffff166370a08231886040518263ffffffff1660e01b8152600401610c199190614de6565b60206040518083038186803b158015610c3157600080fd5b505afa158015610c45573d6000803e3d6000fd5b505050506040513d601f19601f82011682018060405250810190610c699190614b68565b90613a9d565b1015610ca7576040517f08c379a00000000000000000000000000000000000000000000000000000000081526004016105839061512b565b5050505050505050565b60608142811015610cee576040517f08c379a000000000000000000000000000000000000000000000000000000000815260040161058390614f95565b73ffffffffffffffffffffffffffffffffffffffff7f00000000000000000000000000000000000000000000000000000000000000001686867fffffffffffffffffffffffffffffffffffffffffffffffffffffffffffffffff8101818110610d5357fe5b9050602002016020810190610d689190614997565b73ffffffffffffffffffffffffffffffffffffffff1614610db5576040517f08c379a000000000000000000000000000000000000000000000000000000000815260040161058390614f5e565b6000610de37f00000000000000000000000000000000000000000000000000000000000000008a8989613ae0565b80945081925050508783600081518110610df957fe5b60200260200101511115610e39576040517f08c379a00000000000000000000000000000000000000000000000000000000081526004016105839061521c565b610e7a87876000818110610e4957fe5b9050602002016020810190610e5e9190614997565b338386600081518110610e6d57fe5b60200260200101516132ca565b610eb9838888808060200260200160405190810160405280939291908181526020018383602002808284376000920191909152503092506133f7915050565b6040517f2e1a7d4d00000000000000000000000000000000000000000000000000000000815273ffffffffffffffffffffffffffffffffffffffff7f00000000000000000000000000000000000000000000000000000000000000001690632e1a7d4d90610f2b908c90600401615526565b600060405180830381600087803b158015610f4557600080fd5b505af1158015610f59573d6000803e3d6000fd5b50505050610981858a613581565b6000806000808442811015610fa8576040517f08c379a000000000000000000000000000000000000000000000000000000000815260040161058390614f95565b60648860c001351115610fe7576040517f08c379a0000000000000000000000000000000000000000000000000000000008152600401610583906152d6565b60c08801351561119057600080606461100860408c013560c08d0135613c56565b8161100f57fe5b0490506000606461102860608d013560c08e0135613c56565b8161102f57fe5b0490506000606461104860808e013560c08f0135613c56565b8161104f57fe5b049050600060646110718e60c001358f60a00135613c5690919063ffffffff16565b8161107857fe5b0490506110a761108b60208f018f614997565b8e602001602081019061109e9190614997565b86868686613ca7565b919b50995094506110c66110be60208f018f614997565b33878d6132ca565b6110e48d60200160208101906110dc9190614997565b33878c6132ca565b6040517f6a62784200000000000000000000000000000000000000000000000000000000815273ffffffffffffffffffffffffffffffffffffffff861690636a62784290611136908f90600401614de6565b602060405180830381600087803b15801561115057600080fd5b505af1158015611164573d6000803e3d6000fd5b505050506040513d601f19601f820116820180604052508101906111889190614b68565b975050505050505b60648860c001351461130a576000604089013586900360608a01358690038260808c013589106111c15760006111c9565b888c60800135035b90506000888d60a00135116111df5760006111e7565b888d60a00135035b905061121b8d60200160208101906111ff9190614997565b8e60000160208101906112129190614997565b85878587613ca7565b96509450925061123961123160208f018f614997565b3387876132ca565b6112578d602001602081019061124f9190614997565b3387866132ca565b6040517f6a62784200000000000000000000000000000000000000000000000000000000815273ffffffffffffffffffffffffffffffffffffffff861690636a627842906112a9908f90600401614de6565b602060405180830381600087803b1580156112c357600080fd5b505af11580156112d7573d6000803e3d6000fd5b505050506040513d601f19601f820116820180604052508101906112fb9190614b68565b93909901985050909501949250505b5093509350935093565b60006113238786868686613eae565b61132e878787612aeb565b979650505050505050565b6000808242811015611377576040517f08c379a000000000000000000000000000000000000000000000000000000000815260040161058390614f95565b6040860135156115045760006113c47f00000000000000000000000000000000000000000000000000000000000000006113b460208a018a614997565b610a8160408b0160208c01614997565b90508073ffffffffffffffffffffffffffffffffffffffff166323b872dd33838a604001356040518463ffffffff1660e01b815260040161140793929190614e55565b602060405180830381600087803b15801561142157600080fd5b505af1158015611435573d6000803e3d6000fd5b505050506040513d601f19601f8201168201806040525081019061145991906149b9565b506040517f89afcb4400000000000000000000000000000000000000000000000000000000815273ffffffffffffffffffffffffffffffffffffffff8216906389afcb44906114ac908990600401614de6565b6040805180830381600087803b1580156114c557600080fd5b505af11580156114d9573d6000803e3d6000fd5b505050506040513d601f19601f820116820180604052508101906114fd9190614c2f565b9094509250505b60608601351561169c5760006115517f000000000000000000000000000000000000000000000000000000000000000061154460408a0160208b01614997565b610a8160208b018b614997565b6040517f23b872dd00000000000000000000000000000000000000000000000000000000815290915073ffffffffffffffffffffffffffffffffffffffff8216906323b872dd906115ae903390859060608d013590600401614e55565b602060405180830381600087803b1580156115c857600080fd5b505af11580156115dc573d6000803e3d6000fd5b505050506040513d601f19601f8201168201806040525081019061160091906149b9565b506000808273ffffffffffffffffffffffffffffffffffffffff166389afcb44896040518263ffffffff1660e01b815260040161163d9190614de6565b6040805180830381600087803b15801561165657600080fd5b505af115801561166a573d6000803e3d6000fd5b505050506040513d601f19601f8201168201806040525081019061168e9190614c2f565b969096019594909401935050505b85608001358310156116da576040517f08c379a0000000000000000000000000000000000000000000000000000000008152600401610583906153c7565b8560a00135821015611718576040517f08c379a000000000000000000000000000000000000000000000000000000000815260040161058390615279565b50935093915050565b6060814281101561175e576040517f08c379a000000000000000000000000000000000000000000000000000000000815260040161058390614f95565b7f000000000000000000000000000000000000000000000000000000000000000073ffffffffffffffffffffffffffffffffffffffff16868660008181106117a257fe5b90506020020160208101906117b79190614997565b73ffffffffffffffffffffffffffffffffffffffff1614611804576040517f08c379a000000000000000000000000000000000000000000000000000000000815260040161058390614f5e565b60006118327f0000000000000000000000000000000000000000000000000000000000000000348989613151565b8094508192505050878360018551038151811061184b57fe5b6020026020010151101561188b576040517f08c379a00000000000000000000000000000000000000000000000000000000081526004016105839061512b565b7f000000000000000000000000000000000000000000000000000000000000000073ffffffffffffffffffffffffffffffffffffffff1663d0e30db0346040518263ffffffff1660e01b81526004016000604051808303818588803b1580156118f357600080fd5b505af1158015611907573d6000803e3d6000fd5b50506040517fa9059cbb00000000000000000000000000000000000000000000000000000000815273ffffffffffffffffffffffffffffffffffffffff7f000000000000000000000000000000000000000000000000000000000000000016935063a9059cbb9250611980915084903490600401614e86565b602060405180830381600087803b15801561199a57600080fd5b505af11580156119ae573d6000803e3d6000fd5b505050506040513d601f19601f820116820180604052508101906119d291906149b9565b6119d857fe5b611a17838888808060200260200160405190810160405280939291908181526020018383602002808284376000920191909152508a92506133f7915050565b505095945050505050565b600061053e8484846140d9565b60608142811015611a6c576040517f08c379a000000000000000000000000000000000000000000000000000000000815260040161058390614f95565b600080611a9b7f00000000000000000000000000000000000000000000000000000000000000008b8a8a613ae0565b809550819350505083600081518110611ab057fe5b6020026020010151905088811115611af4576040517f08c379a00000000000000000000000000000000000000000000000000000000081526004016105839061521c565b611b2188886000818110611b0457fe5b9050602002016020810190611b199190614997565b3384846132ca565b610816848989808060200260200160405190810160405280939291908181526020018383602002808284376000920191909152508b92506133f7915050565b6000806000808442811015611ba1576040517f08c379a000000000000000000000000000000000000000000000000000000000815260040161058390614f95565b606488608001351115611be0576040517f08c379a0000000000000000000000000000000000000000000000000000000008152600401610583906152d6565b608088013515611eba576000806064611c0160208c013560808d0135613c56565b81611c0857fe5b04905060006064611c1d3460808e0135613c56565b81611c2457fe5b04905060006064611c3d60408e013560808f0135613c56565b81611c4457fe5b04905060006064611c668e608001358f60600135613c5690919063ffffffff16565b81611c6d57fe5b049050611caa611c8060208f018f614997565b7f000000000000000000000000000000000000000000000000000000000000000086868686613ca7565b919b5099509450611cc16110be60208f018f614997565b7f000000000000000000000000000000000000000000000000000000000000000073ffffffffffffffffffffffffffffffffffffffff1663d0e30db08a6040518263ffffffff1660e01b81526004016000604051808303818588803b158015611d2957600080fd5b505af1158015611d3d573d6000803e3d6000fd5b50506040517fa9059cbb00000000000000000000000000000000000000000000000000000000815273ffffffffffffffffffffffffffffffffffffffff7f000000000000000000000000000000000000000000000000000000000000000016935063a9059cbb9250611db6915088908d90600401614e86565b602060405180830381600087803b158015611dd057600080fd5b505af1158015611de4573d6000803e3d6000fd5b505050506040513d601f19601f82011682018060405250810190611e0891906149b9565b611e0e57fe5b6040517f6a62784200000000000000000000000000000000000000000000000000000000815273ffffffffffffffffffffffffffffffffffffffff861690636a62784290611e60908f90600401614de6565b602060405180830381600087803b158015611e7a57600080fd5b505af1158015611e8e573d6000803e3d6000fd5b505050506040513d601f19601f82011682018060405250810190611eb29190614b68565b975050505050505b606488608001351461215c5760006020890135869003348690038260408c01358910611ee7576000611eef565b888c60400135035b90506000888d6060013511611f05576000611f0d565b888d60600135035b9050611f467f00000000000000000000000000000000000000000000000000000000000000008e60000160208101906112129190614997565b965094509250611f5c61123160208f018f614997565b7f000000000000000000000000000000000000000000000000000000000000000073ffffffffffffffffffffffffffffffffffffffff1663d0e30db0846040518263ffffffff1660e01b81526004016000604051808303818588803b158015611fc457600080fd5b505af1158015611fd8573d6000803e3d6000fd5b50506040517fa9059cbb00000000000000000000000000000000000000000000000000000000815273ffffffffffffffffffffffffffffffffffffffff7f000000000000000000000000000000000000000000000000000000000000000016935063a9059cbb9250612051915088908790600401614e86565b602060405180830381600087803b15801561206b57600080fd5b505af115801561207f573d6000803e3d6000fd5b505050506040513d601f19601f820116820180604052508101906120a391906149b9565b6120a957fe5b6040517f6a62784200000000000000000000000000000000000000000000000000000000815273ffffffffffffffffffffffffffffffffffffffff861690636a627842906120fb908f90600401614de6565b602060405180830381600087803b15801561211557600080fd5b505af1158015612129573d6000803e3d6000fd5b505050506040513d601f19601f8201168201806040525081019061214d9190614b68565b93909901985050909501949250505b8334111561130a5761130a33853403613581565b80428110156121ab576040517f08c379a000000000000000000000000000000000000000000000000000000000815260040161058390614f95565b73ffffffffffffffffffffffffffffffffffffffff7f00000000000000000000000000000000000000000000000000000000000000001685857fffffffffffffffffffffffffffffffffffffffffffffffffffffffffffffffff810181811061221057fe5b90506020020160208101906122259190614997565b73ffffffffffffffffffffffffffffffffffffffff1614612272576040517f08c379a000000000000000000000000000000000000000000000000000000000815260040161058390614f5e565b61229d7f000000000000000000000000000000000000000000000000000000000000000086866137c1565b6122ad85856000818110610a0357fe5b6122eb8585808060200260200160405190810160405280939291908181526020018383602002808284376000920191909152503092506138e3915050565b6040517f70a0823100000000000000000000000000000000000000000000000000000000815260009073ffffffffffffffffffffffffffffffffffffffff7f000000000000000000000000000000000000000000000000000000000000000016906370a0823190612360903090600401614de6565b60206040518083038186803b15801561237857600080fd5b505afa15801561238c573d6000803e3d6000fd5b505050506040513d601f19601f820116820180604052508101906123b09190614b68565b9050868110156123ec576040517f08c379a00000000000000000000000000000000000000000000000000000000081526004016105839061512b565b6040517f2e1a7d4d00000000000000000000000000000000000000000000000000000000815273ffffffffffffffffffffffffffffffffffffffff7f00000000000000000000000000000000000000000000000000000000000000001690632e1a7d4d9061245e908490600401615526565b600060405180830381600087803b15801561247857600080fd5b505af115801561248c573d6000803e3d6000fd5b50505050610ca78482613581565b60008082428110156124d8576040517f08c379a000000000000000000000000000000000000000000000000000000000815260040161058390614f95565b73ffffffffffffffffffffffffffffffffffffffff7f00000000000000000000000000000000000000000000000000000000000000001661251f6040880160208901614997565b73ffffffffffffffffffffffffffffffffffffffff161461256c576040517f08c379a000000000000000000000000000000000000000000000000000000000815260040161058390615060565b612577863086611339565b909350915061259361258c6020880188614997565b8685614188565b6040517f2e1a7d4d00000000000000000000000000000000000000000000000000000000815273ffffffffffffffffffffffffffffffffffffffff7f00000000000000000000000000000000000000000000000000000000000000001690632e1a7d4d90612605908590600401615526565b600060405180830381600087803b15801561261f57600080fd5b505af1158015612633573d6000803e3d6000fd5b505050506117188583613581565b7f000000000000000000000000000000000000000000000000000000000000000081565b600061053e8484846142ab565b731127dfbba70b8fbf4352a749a79a5090091ce61581565b60008061269a8887878787613eae565b6126a5888888611339565b90999098509650505050505050565b7f000000000000000000000000000000000000000000000000000000000000000081565b8042811015612713576040517f08c379a000000000000000000000000000000000000000000000000000000000815260040161058390614f95565b7f000000000000000000000000000000000000000000000000000000000000000073ffffffffffffffffffffffffffffffffffffffff168585600081811061275757fe5b905060200201602081019061276c9190614997565b73ffffffffffffffffffffffffffffffffffffffff16146127b9576040517f08c379a000000000000000000000000000000000000000000000000000000000815260040161058390614f5e565b6127e47f000000000000000000000000000000000000000000000000000000000000000086866137c1565b7f000000000000000000000000000000000000000000000000000000000000000073ffffffffffffffffffffffffffffffffffffffff1663d0e30db0346040518263ffffffff1660e01b81526004016000604051808303818588803b15801561284c57600080fd5b505af1158015612860573d6000803e3d6000fd5b50505050507f000000000000000000000000000000000000000000000000000000000000000073ffffffffffffffffffffffffffffffffffffffff1663a9059cbb6128f47f0000000000000000000000000000000000000000000000000000000000000000888860008181106128d257fe5b90506020020160208101906128e79190614997565b89896001818110610a6c57fe5b346040518363ffffffff1660e01b8152600401612912929190614e86565b602060405180830381600087803b15801561292c57600080fd5b505af1158015612940573d6000803e3d6000fd5b505050506040513d601f19601f8201168201806040525081019061296491906149b9565b61296a57fe5b600085857fffffffffffffffffffffffffffffffffffffffffffffffffffffffffffffffff810181811061299a57fe5b90506020020160208101906129af9190614997565b73ffffffffffffffffffffffffffffffffffffffff166370a08231856040518263ffffffff1660e01b81526004016129e79190614de6565b60206040518083038186803b1580156129ff57600080fd5b505afa158015612a13573d6000803e3d6000fd5b505050506040513d601f19601f82011682018060405250810190612a379190614b68565b9050612a778686808060200260200160405190810160405280939291908181526020018383602002808284376000920191909152508892506138e3915050565b86612aaa8288887fffffffffffffffffffffffffffffffffffffffffffffffffffffffffffffffff8101818110610bcc57fe5b1015612ae2576040517f08c379a00000000000000000000000000000000000000000000000000000000081526004016105839061512b565b50505050505050565b60008142811015612b28576040517f08c379a000000000000000000000000000000000000000000000000000000000815260040161058390614f95565b73ffffffffffffffffffffffffffffffffffffffff7f000000000000000000000000000000000000000000000000000000000000000016612b6f6040870160208801614997565b73ffffffffffffffffffffffffffffffffffffffff1614612bbc576040517f08c379a000000000000000000000000000000000000000000000000000000000815260040161058390615060565b600080612bca873087611339565b94509150612bdb6020880188614997565b73ffffffffffffffffffffffffffffffffffffffff166370a08231306040518263ffffffff1660e01b8152600401612c139190614de6565b60206040518083038186803b158015612c2b57600080fd5b505afa158015612c3f573d6000803e3d6000fd5b505050506040513d601f19601f82011682018060405250810190612c639190614b68565b905081811015612c71578091505b612c88612c816020890189614997565b8784614188565b6040517f2e1a7d4d00000000000000000000000000000000000000000000000000000000815273ffffffffffffffffffffffffffffffffffffffff7f00000000000000000000000000000000000000000000000000000000000000001690632e1a7d4d90612cfa908790600401615526565b600060405180830381600087803b158015612d1457600080fd5b505af1158015612d28573d6000803e3d6000fd5b50505050612d368685613581565b5050509392505050565b600080612d508887878787613eae565b6126a588888861249a565b606061053e7f0000000000000000000000000000000000000000000000000000000000000000858585614347565b60608142811015612dc6576040517f08c379a000000000000000000000000000000000000000000000000000000000815260040161058390614f95565b7f000000000000000000000000000000000000000000000000000000000000000073ffffffffffffffffffffffffffffffffffffffff1686866000818110612e0a57fe5b9050602002016020810190612e1f9190614997565b73ffffffffffffffffffffffffffffffffffffffff1614612e6c576040517f08c379a000000000000000000000000000000000000000000000000000000000815260040161058390614f5e565b600080612e9b7f00000000000000000000000000000000000000000000000000000000000000008a8a8a613ae0565b809550819350505083600081518110612eb057fe5b6020026020010151905034811115612ef4576040517f08c379a00000000000000000000000000000000000000000000000000000000081526004016105839061521c565b7f000000000000000000000000000000000000000000000000000000000000000073ffffffffffffffffffffffffffffffffffffffff1663d0e30db0826040518263ffffffff1660e01b81526004016000604051808303818588803b158015612f5c57600080fd5b505af1158015612f70573d6000803e3d6000fd5b50506040517fa9059cbb00000000000000000000000000000000000000000000000000000000815273ffffffffffffffffffffffffffffffffffffffff7f000000000000000000000000000000000000000000000000000000000000000016935063a9059cbb9250612fe9915085908590600401614e86565b602060405180830381600087803b15801561300357600080fd5b505af1158015613017573d6000803e3d6000fd5b505050506040513d601f19601f8201168201806040525081019061303b91906149b9565b61304157fe5b613080848989808060200260200160405190810160405280939291908181526020018383602002808284376000920191909152508b92506133f7915050565b803411156130945761309433823403613581565b50505095945050505050565b60008084116130db576040517f08c379a0000000000000000000000000000000000000000000000000000000008152600401610583906150ce565b6000831180156130eb5750600082115b613121576040517f08c379a000000000000000000000000000000000000000000000000000000000815260040161058390615003565b600061312d8584613c56565b9050600061313b858761448d565b905080828161314657fe5b049695505050505050565b600060606002831015613190576040517f08c379a0000000000000000000000000000000000000000000000000000000008152600401610583906151e5565b8267ffffffffffffffff811180156131a757600080fd5b506040519080825280602002602001820160405280156131d1578160200160208202803683370190505b50905084816000815181106131e257fe5b60200260200101818152505060005b7fffffffffffffffffffffffffffffffffffffffffffffffffffffffffffffffff84018110156132c057600080600061326e8a89898781811061323057fe5b90506020020160208101906132459190614997565b8a8a8860010181811061325457fe5b90506020020160208101906132699190614997565b6144ca565b92509250925061329285858151811061328357fe5b602002602001015184846130a0565b8585600101815181106132a157fe5b6020908102919091010152836132b5578095505b5050506001016131f1565b5094509492505050565b600060608573ffffffffffffffffffffffffffffffffffffffff166323b872dd8686866040516024016132ff93929190614e55565b6040516020818303038152906040529060e01b6020820180517bffffffffffffffffffffffffffffffffffffffffffffffffffffffff838183161783525050505060405161334d9190614d49565b6000604051808303816000865af19150503d806000811461338a576040519150601f19603f3d011682016040523d82523d6000602084013e61338f565b606091505b50915091508180156133b95750805115806133b95750808060200190518101906133b991906149b9565b6133ef576040517f08c379a00000000000000000000000000000000000000000000000000000000081526004016105839061545b565b505050505050565b60005b600183510381101561357b5760008084838151811061341557fe5b602002602001015185846001018151811061342c57fe5b602002602001015191509150600086846001018151811061344957fe5b6020026020010151905060006002875103851061346657856134a7565b6134a77f00000000000000000000000000000000000000000000000000000000000000008489886002018151811061349a57fe5b6020026020010151613868565b90506134d47f00000000000000000000000000000000000000000000000000000000000000008585613868565b604080516000815260208101918290527f1c6da7240000000000000000000000000000000000000000000000000000000090915273ffffffffffffffffffffffffffffffffffffffff9190911690631c6da7249061353990859085906024810161552f565b600060405180830381600087803b15801561355357600080fd5b505af1158015613567573d6000803e3d6000fd5b5050600190960195506133fa945050505050565b50505050565b6040805160008082526020820190925273ffffffffffffffffffffffffffffffffffffffff84169083906040516135b89190614d49565b60006040518083038185875af1925050503d80600081146135f5576040519150601f19603f3d011682016040523d82523d6000602084013e6135fa565b606091505b5050905080613635576040517f08c379a00000000000000000000000000000000000000000000000000000000081526004016105839061530d565b505050565b60606002821015613677576040517f08c379a0000000000000000000000000000000000000000000000000000000008152600401610583906151e5565b8167ffffffffffffffff8111801561368e57600080fd5b506040519080825280602002602001820160405280156136b8578160200160208202803683370190505b50905083816001835103815181106136cc57fe5b60209081029190910101527fffffffffffffffffffffffffffffffffffffffffffffffffffffffffffffffff82015b80156137b8576000806137528887876001870381811061371757fe5b905060200201602081019061372c9190614997565b88888781811061373857fe5b905060200201602081019061374d9190614997565b6146f6565b509150915061377584848151811061376657fe5b602002602001015183836140d9565b84600185038151811061378457fe5b602090810291909101015250507fffffffffffffffffffffffffffffffffffffffffffffffffffffffffffffffff016136fb565b50949350505050565b60028110156137fc576040517f08c379a0000000000000000000000000000000000000000000000000000000008152600401610583906151e5565b60005b7fffffffffffffffffffffffffffffffffffffffffffffffffffffffffffffffff820181101561357b5761385d8484848481811061383957fe5b905060200201602081019061384e9190614997565b85858560010181811061325457fe5b5050506001016137ff565b600083838360405160200161387e929190614d0f565b604051602081830303815290604052805190602001206040516020016138a5929190614d65565b604080517fffffffffffffffffffffffffffffffffffffffffffffffffffffffffffffffe08184030181529190528051602090910120949350505050565b60005b60018351038110156136355760008084838151811061390157fe5b602002602001015185846001018151811061391857fe5b60200260200101519150915060008060006139547f00000000000000000000000000000000000000000000000000000000000000008686614851565b9250925092506000613999848773ffffffffffffffffffffffffffffffffffffffff166370a08231856040518263ffffffff1660e01b8152600401610c199190614de6565b905060006139a88286866130a0565b9050600060028b510389106139bd57896139f1565b6139f17f0000000000000000000000000000000000000000000000000000000000000000888d8c6002018151811061349a57fe5b604080516000815260208101918290527f1c6da7240000000000000000000000000000000000000000000000000000000090915290915073ffffffffffffffffffffffffffffffffffffffff851690631c6da72490613a5790859085906024810161552f565b600060405180830381600087803b158015613a7157600080fd5b505af1158015613a85573d6000803e3d6000fd5b50506001909a0199506138e698505050505050505050565b80820382811115613ada576040517f08c379a000000000000000000000000000000000000000000000000000000000815260040161058390614ef0565b92915050565b600060606002831015613b1f576040517f08c379a0000000000000000000000000000000000000000000000000000000008152600401610583906151e5565b8267ffffffffffffffff81118015613b3657600080fd5b50604051908082528060200260200182016040528015613b60578160200160208202803683370190505b5090508481600183510381518110613b7457fe5b60209081029190910101526000807fffffffffffffffffffffffffffffffffffffffffffffffffffffffffffffffff85015b8015613c4a57613be089888860018503818110613bbf57fe5b9050602002016020810190613bd49190614997565b89898581811061325457fe5b86519097509194509250613c0990859083908110613bfa57fe5b602002602001015184846140d9565b846001830381518110613c1857fe5b60209081029190910101527fffffffffffffffffffffffffffffffffffffffffffffffffffffffffffffffff01613ba6565b50505094509492505050565b6000811580613c7157505080820282828281613c6e57fe5b04145b613ada576040517f08c379a000000000000000000000000000000000000000000000000000000000815260040161058390614fcc565b6000806000613cd77f00000000000000000000000000000000000000000000000000000000000000008a8a613868565b905073ffffffffffffffffffffffffffffffffffffffff8116613d26576040517f08c379a0000000000000000000000000000000000000000000000000000000008152600401610583906154b8565b6000808273ffffffffffffffffffffffffffffffffffffffff16630902f1ac6040518163ffffffff1660e01b815260040160606040518083038186803b158015613d6f57600080fd5b505afa158015613d83573d6000803e3d6000fd5b505050506040513d601f19601f82011682018060405250810190613da79190614b14565b506dffffffffffffffffffffffffffff1691506dffffffffffffffffffffffffffff169150816000148015613dda575080155b15613dea57889450879350613ea0565b6000613df78a84846142ab565b9050888111613e455786811015613e3a576040517f08c379a0000000000000000000000000000000000000000000000000000000008152600401610583906154ef565b899550935083613e9e565b6000613e528a84866142ab565b90508a811115613e5e57fe5b88811015613e98576040517f08c379a000000000000000000000000000000000000000000000000000000000815260040161058390615424565b95508894505b505b505096509650969350505050565b604082013515613fc0576000613efb7f0000000000000000000000000000000000000000000000000000000000000000613eeb6020890189614997565b610a8160408a0160208b01614997565b9050600084613f0e578660400135613f30565b7fffffffffffffffffffffffffffffffffffffffffffffffffffffffffffffffff5b905073ffffffffffffffffffffffffffffffffffffffff821663d505accf3330848a613f5f60208b018b614cee565b8a602001358b604001356040518863ffffffff1660e01b8152600401613f8b9796959493929190614e07565b600060405180830381600087803b158015613fa557600080fd5b505af1158015613fb9573d6000803e3d6000fd5b5050505050505b6040810135156140d257600061400d7f00000000000000000000000000000000000000000000000000000000000000006140006040890160208a01614997565b610a8160208a018a614997565b9050600084614020578660600135614042565b7fffffffffffffffffffffffffffffffffffffffffffffffffffffffffffffffff5b905073ffffffffffffffffffffffffffffffffffffffff821663d505accf3330848a61407160208a018a614cee565b89602001358a604001356040518863ffffffff1660e01b815260040161409d9796959493929190614e07565b600060405180830381600087803b1580156140b757600080fd5b505af11580156140cb573d6000803e3d6000fd5b5050505050505b5050505050565b6000808411614114576040517f08c379a00000000000000000000000000000000000000000000000000000000081526004016105839061536a565b6000831180156141245750600082115b61415a576040517f08c379a000000000000000000000000000000000000000000000000000000000815260040161058390615003565b60006141668486613c56565b905060006141748487613a9d565b905080614181838261448d565b8161314657fe5b600060608473ffffffffffffffffffffffffffffffffffffffff1663a9059cbb85856040516024016141bb929190614e86565b6040516020818303038152906040529060e01b6020820180517bffffffffffffffffffffffffffffffffffffffffffffffffffffffff83818316178352505050506040516142099190614d49565b6000604051808303816000865af19150503d8060008114614246576040519150601f19603f3d011682016040523d82523d6000602084013e61424b565b606091505b509150915081801561427557508051158061427557508080602001905181019061427591906149b9565b6140d2576040517f08c379a000000000000000000000000000000000000000000000000000000000815260040161058390614f27565b60008084116142e6576040517f08c379a000000000000000000000000000000000000000000000000000000000815260040161058390615188565b6000831180156142f65750600082115b61432c576040517f08c379a000000000000000000000000000000000000000000000000000000000815260040161058390615003565b826143378584613c56565b8161433e57fe5b04949350505050565b60606002821015614384576040517f08c379a0000000000000000000000000000000000000000000000000000000008152600401610583906151e5565b8167ffffffffffffffff8111801561439b57600080fd5b506040519080825280602002602001820160405280156143c5578160200160208202803683370190505b50905083816000815181106143d657fe5b60200260200101818152505060005b7fffffffffffffffffffffffffffffffffffffffffffffffffffffffffffffffff83018110156137b8576000806144468887878681811061442257fe5b90506020020160208101906144379190614997565b88888760010181811061373857fe5b509150915061446984848151811061445a57fe5b602002602001015183836130a0565b84846001018151811061447857fe5b602090810291909101015250506001016143e5565b80820182811015613ada576040517f08c379a000000000000000000000000000000000000000000000000000000000815260040161058390615097565b60008060006144da868686614851565b80935081945082955050505060008173ffffffffffffffffffffffffffffffffffffffff166339730cfc6040518163ffffffff1660e01b815260040160206040518083038186803b15801561452e57600080fd5b505afa158015614542573d6000803e3d6000fd5b505050506040513d601f19601f820116820180604052508101906145669190614b68565b905060008060006145788a898b614851565b91945092509050600061458b8885613c56565b905060006145998885613c56565b90506145a58187613c56565b6145b183612710613c56565b11156146e7576145c18282613a9d565b915060006145da60026145d48c8861448d565b90613c56565b905060006145ed60026145d48c8a61448d565b90506146048d8a878488816145fe57fe5b046132ca565b6146138c868b8588816145fe57fe5b8873ffffffffffffffffffffffffffffffffffffffff1663fff6cae96040518163ffffffff1660e01b8152600401600060405180830381600087803b15801561465b57600080fd5b505af115801561466f573d6000803e3d6000fd5b505050508473ffffffffffffffffffffffffffffffffffffffff1663fff6cae96040518163ffffffff1660e01b8152600401600060405180830381600087803b1580156146bb57600080fd5b505af11580156146cf573d6000803e3d6000fd5b505050506146de8e8e8e614851565b50909b50995050505b50505050505093509350939050565b6000806000614706868686614851565b80935081945082955050505060008173ffffffffffffffffffffffffffffffffffffffff166339730cfc6040518163ffffffff1660e01b815260040160206040518083038186803b15801561475a57600080fd5b505afa15801561476e573d6000803e3d6000fd5b505050506040513d601f19601f820116820180604052508101906147929190614b68565b90506000806147a289888a614851565b50909250905060006147b48784613c56565b905060006147c28784613c56565b90506147ce8186613c56565b6147da83612710613c56565b1115614843576147ea8282613a9d565b915060006147fd60026145d48b8761448d565b9050600061481060026145d48b8961448d565b905061482781858161481e57fe5b8c919004613a9d565b995061483e82858161483557fe5b8b91900461448d565b985050505b505050505093509350939050565b6000806000614861868686613868565b90508073ffffffffffffffffffffffffffffffffffffffff16630902f1ac6040518163ffffffff1660e01b815260040160606040518083038186803b1580156148a957600080fd5b505afa1580156148bd573d6000803e3d6000fd5b505050506040513d601f19601f820116820180604052508101906148e19190614b14565b506dffffffffffffffffffffffffffff918216989116965090945092505050565b803573ffffffffffffffffffffffffffffffffffffffff81168114613ada57600080fd5b60008083601f840112614937578182fd5b50813567ffffffffffffffff81111561494e578182fd5b602083019150836020808302850101111561496857600080fd5b9250929050565b600060c08284031215614980578081fd5b50919050565b600060608284031215614980578081fd5b6000602082840312156149a8578081fd5b6149b28383614902565b9392505050565b6000602082840312156149ca578081fd5b81516149b28161561e565b600080600083850360e08112156149ea578283fd5b60a08112156149f7578283fd5b5083925060a0840135614a09816155f9565b9295929450505060c0919091013590565b6000806000838503610120811215614a30578384fd5b60e0811215614a3d578384fd5b50839250614a4e8560e08601614902565b915061010084013590509250925092565b60008060006101008486031215614a74578283fd5b614a7e858561496f565b9250614a8d8560c08601614902565b915060e084013590509250925092565b6000806000806000806101e08789031215614ab6578182fd5b614ac0888861496f565b955060c0870135614ad0816155f9565b945060e08701359350610100870135614ae88161561e565b9250614af8886101208901614986565b9150614b08886101808901614986565b90509295509295509295565b600080600060608486031215614b28578283fd5b8351614b338161562c565b6020850151909350614b448161562c565b604085015190925063ffffffff81168114614b5d578182fd5b809150509250925092565b600060208284031215614b79578081fd5b5051919050565b600080600060408486031215614b94578283fd5b83359250602084013567ffffffffffffffff811115614bb1578283fd5b614bbd86828701614926565b9497909650939450505050565b600080600080600060808688031215614be1578081fd5b85359450602086013567ffffffffffffffff811115614bfe578182fd5b614c0a88828901614926565b9095509350506040860135614c1e816155f9565b949793965091946060013592915050565b60008060408385031215614c41578182fd5b505080516020909101519092909150565b60008060008060008060a08789031215614c6a578384fd5b8635955060208701359450604087013567ffffffffffffffff811115614c8e578485fd5b614c9a89828a01614926565b9095509350506060870135614cae816155f9565b80925050608087013590509295509295509295565b600080600060608486031215614cd7578081fd5b505081359360208301359350604090920135919050565b600060208284031215614cff578081fd5b813560ff811681146149b2578182fd5b7fffffffffffffffffffffffffffffffffffffffff000000000000000000000000606093841b811682529190921b16601482015260280190565b60008251614d5b8184602087016155cd565b9190910192915050565b7fff00000000000000000000000000000000000000000000000000000000000000815260609290921b7fffffffffffffffffffffffffffffffffffffffff00000000000000000000000016600183015260158201527f02a87956ec2f5e710fa13bbfe751d68112c843cdd501d3fcc9e744ade9c32428603582015260550190565b73ffffffffffffffffffffffffffffffffffffffff91909116815260200190565b73ffffffffffffffffffffffffffffffffffffffff97881681529590961660208601526040850193909352606084019190915260ff16608083015260a082015260c081019190915260e00190565b73ffffffffffffffffffffffffffffffffffffffff9384168152919092166020820152604081019190915260600190565b73ffffffffffffffffffffffffffffffffffffffff929092168252602082015260400190565b6020808252825182820181905260009190848201906040850190845b81811015614ee457835183529284019291840191600101614ec8565b50909695505050505050565b60208082526015908201527f64732d6d6174682d7375622d756e646572666c6f770000000000000000000000604082015260600190565b6020808252601f908201527f5472616e7366657248656c7065723a205452414e534645525f4641494c454400604082015260600190565b6020808252601a908201527f466553776170526f757465723a20494e56414c49445f50415448000000000000604082015260600190565b60208082526015908201527f466553776170526f757465723a20455850495245440000000000000000000000604082015260600190565b60208082526014908201527f64732d6d6174682d6d756c2d6f766572666c6f77000000000000000000000000604082015260600190565b60208082526025908201527f4665537761704c6962726172793a20494e53554646494349454e545f4c49515560408201527f4944495459000000000000000000000000000000000000000000000000000000606082015260800190565b60208082526012908201527f4665537761703a2057524f4e4720574554480000000000000000000000000000604082015260600190565b60208082526014908201527f64732d6d6174682d6164642d6f766572666c6f77000000000000000000000000604082015260600190565b60208082526028908201527f4665537761704c6962726172793a20494e53554646494349454e545f494e505560408201527f545f414d4f554e54000000000000000000000000000000000000000000000000606082015260800190565b60208082526028908201527f466553776170526f757465723a20494e53554646494349454e545f4f5554505560408201527f545f414d4f554e54000000000000000000000000000000000000000000000000606082015260800190565b60208082526022908201527f4665537761704c6962726172793a20494e53554646494349454e545f414d4f5560408201527f4e54000000000000000000000000000000000000000000000000000000000000606082015260800190565b6020808252601b908201527f4665537761704c6962726172793a20494e56414c49445f504154480000000000604082015260600190565b60208082526024908201527f466553776170526f757465723a204558434553534956455f494e5055545f414d60408201527f4f554e5400000000000000000000000000000000000000000000000000000000606082015260800190565b60208082526023908201527f466553776170526f757465723a20494e53554646494349454e545f425f414d4f60408201527f554e540000000000000000000000000000000000000000000000000000000000606082015260800190565b60208082526011908201527f4665537761703a20524154494f20454552000000000000000000000000000000604082015260600190565b60208082526023908201527f5472616e7366657248656c7065723a204554485f5452414e534645525f46414960408201527f4c45440000000000000000000000000000000000000000000000000000000000606082015260800190565b60208082526029908201527f4665537761704c6962726172793a20494e53554646494349454e545f4f55545060408201527f55545f414d4f554e540000000000000000000000000000000000000000000000606082015260800190565b60208082526023908201527f466553776170526f757465723a20494e53554646494349454e545f415f414d4f60408201527f554e540000000000000000000000000000000000000000000000000000000000606082015260800190565b60208082526016908201527f4665537761703a204c4553535f494e5f414d4f554e5400000000000000000000604082015260600190565b60208082526024908201527f5472616e7366657248656c7065723a205452414e534645525f46524f4d5f464160408201527f494c454400000000000000000000000000000000000000000000000000000000606082015260800190565b60208082526013908201527f4665537761703a204e4f54204352454154454400000000000000000000000000604082015260600190565b60208082526017908201527f4665537761703a204c4553535f4f55545f414d4f554e54000000000000000000604082015260600190565b90815260200190565b600084825273ffffffffffffffffffffffffffffffffffffffff841660208301526060604083015282518060608401526155708160808501602087016155cd565b601f017fffffffffffffffffffffffffffffffffffffffffffffffffffffffffffffffe01691909101608001949350505050565b918252602082015260400190565b93845260208401929092526040830152606082015260800190565b60005b838110156155e85781810151838201526020016155d0565b8381111561357b5750506000910152565b73ffffffffffffffffffffffffffffffffffffffff8116811461561b57600080fd5b50565b801515811461561b57600080fd5b6dffffffffffffffffffffffffffff8116811461561b57600080fdfea26469706673582212209bad14d2b5f8add2f88f3fd5f3d951f84e877d72c6ca9d0884a060e4598114cb64736f6c634300060c0033",
      "opcodes": "PUSH1 0xC0 PUSH1 0x40 MSTORE CALLVALUE DUP1 ISZERO PUSH3 0x11 JUMPI PUSH1 0x0 DUP1 REVERT JUMPDEST POP PUSH1 0x40 MLOAD PUSH3 0x5847 CODESIZE SUB DUP1 PUSH3 0x5847 DUP4 CODECOPY DUP2 ADD PUSH1 0x40 DUP2 SWAP1 MSTORE PUSH3 0x34 SWAP2 PUSH3 0x53 JUMP JUMPDEST PUSH1 0x1 PUSH1 0x1 PUSH1 0x60 SHL SUB NOT PUSH1 0x60 SWAP3 DUP4 SHL DUP2 AND PUSH1 0x80 MSTORE SWAP2 SHL AND PUSH1 0xA0 MSTORE PUSH3 0xAA JUMP JUMPDEST PUSH1 0x0 DUP1 PUSH1 0x40 DUP4 DUP6 SUB SLT ISZERO PUSH3 0x66 JUMPI DUP2 DUP3 REVERT JUMPDEST DUP3 MLOAD PUSH3 0x73 DUP2 PUSH3 0x91 JUMP JUMPDEST PUSH1 0x20 DUP5 ADD MLOAD SWAP1 SWAP3 POP PUSH3 0x86 DUP2 PUSH3 0x91 JUMP JUMPDEST DUP1 SWAP2 POP POP SWAP3 POP SWAP3 SWAP1 POP JUMP JUMPDEST PUSH1 0x1 PUSH1 0x1 PUSH1 0xA0 SHL SUB DUP2 AND DUP2 EQ PUSH3 0xA7 JUMPI PUSH1 0x0 DUP1 REVERT JUMPDEST POP JUMP JUMPDEST PUSH1 0x80 MLOAD PUSH1 0x60 SHR PUSH1 0xA0 MLOAD PUSH1 0x60 SHR PUSH2 0x567E PUSH3 0x1C9 PUSH1 0x0 CODECOPY DUP1 PUSH2 0x1B7 MSTORE DUP1 PUSH2 0x5A3 MSTORE DUP1 PUSH2 0x7A5 MSTORE DUP1 PUSH2 0xD05 MSTORE DUP1 PUSH2 0xEF6 MSTORE DUP1 PUSH2 0x1760 MSTORE DUP1 PUSH2 0x188D MSTORE DUP1 PUSH2 0x1946 MSTORE DUP1 PUSH2 0x1C82 MSTORE DUP1 PUSH2 0x1CC3 MSTORE DUP1 PUSH2 0x1D7C MSTORE DUP1 PUSH2 0x1F14 MSTORE DUP1 PUSH2 0x1F5E MSTORE DUP1 PUSH2 0x2017 MSTORE DUP1 PUSH2 0x21C2 MSTORE DUP1 PUSH2 0x232B MSTORE DUP1 PUSH2 0x2429 MSTORE DUP1 PUSH2 0x24EF MSTORE DUP1 PUSH2 0x25D0 MSTORE DUP1 PUSH2 0x2643 MSTORE DUP1 PUSH2 0x2715 MSTORE DUP1 PUSH2 0x27E6 MSTORE DUP1 PUSH2 0x2867 MSTORE DUP1 PUSH2 0x2B3F MSTORE DUP1 PUSH2 0x2CC5 MSTORE DUP1 PUSH2 0x2DC8 MSTORE DUP1 PUSH2 0x2EF6 MSTORE DUP1 PUSH2 0x2FAF MSTORE POP DUP1 PUSH2 0x65B MSTORE DUP1 PUSH2 0x82A MSTORE DUP1 PUSH2 0x895 MSTORE DUP1 PUSH2 0x9CD MSTORE DUP1 PUSH2 0xA1E MSTORE DUP1 PUSH2 0xDBC MSTORE DUP1 PUSH2 0x1388 MSTORE DUP1 PUSH2 0x1515 MSTORE DUP1 PUSH2 0x180B MSTORE DUP1 PUSH2 0x1A74 MSTORE DUP1 PUSH2 0x2277 MSTORE DUP1 PUSH2 0x26B6 MSTORE DUP1 PUSH2 0x27BE MSTORE DUP1 PUSH2 0x28A6 MSTORE DUP1 PUSH2 0x2D62 MSTORE DUP1 PUSH2 0x2E74 MSTORE DUP1 PUSH2 0x346B MSTORE DUP1 PUSH2 0x34AE MSTORE DUP1 PUSH2 0x392E MSTORE DUP1 PUSH2 0x39C2 MSTORE DUP1 PUSH2 0x3CB1 MSTORE DUP1 PUSH2 0x3EBF MSTORE DUP1 PUSH2 0x3FD1 MSTORE POP PUSH2 0x567E PUSH1 0x0 RETURN INVALID PUSH1 0x80 PUSH1 0x40 MSTORE PUSH1 0x4 CALLDATASIZE LT PUSH2 0x19A JUMPI PUSH1 0x0 CALLDATALOAD PUSH1 0xE0 SHR DUP1 PUSH4 0x9B9F35F0 GT PUSH2 0xE1 JUMPI DUP1 PUSH4 0xB9E3BB25 GT PUSH2 0x8A JUMPI DUP1 PUSH4 0xDF4BF7E8 GT PUSH2 0x64 JUMPI DUP1 PUSH4 0xDF4BF7E8 EQ PUSH2 0x4BE JUMPI DUP1 PUSH4 0xE78AAF63 EQ PUSH2 0x4DE JUMPI DUP1 PUSH4 0xEEF40F31 EQ PUSH2 0x4FE JUMPI DUP1 PUSH4 0xFB3BDB41 EQ PUSH2 0x51E JUMPI PUSH2 0x1E0 JUMP JUMPDEST DUP1 PUSH4 0xB9E3BB25 EQ PUSH2 0x476 JUMPI DUP1 PUSH4 0xC45A0155 EQ PUSH2 0x496 JUMPI DUP1 PUSH4 0xD57B57A5 EQ PUSH2 0x4AB JUMPI PUSH2 0x1E0 JUMP JUMPDEST DUP1 PUSH4 0xAD5C4648 GT PUSH2 0xBB JUMPI DUP1 PUSH4 0xAD5C4648 EQ PUSH2 0x41F JUMPI DUP1 PUSH4 0xAD615DEC EQ PUSH2 0x441 JUMPI DUP1 PUSH4 0xB17F8566 EQ PUSH2 0x461 JUMPI PUSH2 0x1E0 JUMP JUMPDEST DUP1 PUSH4 0x9B9F35F0 EQ PUSH2 0x3CC JUMPI DUP1 PUSH4 0xA59600DB EQ PUSH2 0x3DF JUMPI DUP1 PUSH4 0xA601E41B EQ PUSH2 0x3FF JUMPI PUSH2 0x1E0 JUMP JUMPDEST DUP1 PUSH4 0x56ED15BA GT PUSH2 0x143 JUMPI DUP1 PUSH4 0x7FF36AB5 GT PUSH2 0x11D JUMPI DUP1 PUSH4 0x7FF36AB5 EQ PUSH2 0x379 JUMPI DUP1 PUSH4 0x85F8C259 EQ PUSH2 0x38C JUMPI DUP1 PUSH4 0x8803DBEE EQ PUSH2 0x3AC JUMPI PUSH2 0x1E0 JUMP JUMPDEST DUP1 PUSH4 0x56ED15BA EQ PUSH2 0x2FB JUMPI DUP1 PUSH4 0x5F361E95 EQ PUSH2 0x32B JUMPI DUP1 PUSH4 0x78D9A04F EQ PUSH2 0x34B JUMPI PUSH2 0x1E0 JUMP JUMPDEST DUP1 PUSH4 0x38ED1739 GT PUSH2 0x174 JUMPI DUP1 PUSH4 0x38ED1739 EQ PUSH2 0x29B JUMPI DUP1 PUSH4 0x3D221B20 EQ PUSH2 0x2BB JUMPI DUP1 PUSH4 0x4A25D94A EQ PUSH2 0x2DB JUMPI PUSH2 0x1E0 JUMP JUMPDEST DUP1 PUSH4 0x54D50D4 EQ PUSH2 0x218 JUMPI DUP1 PUSH4 0x18CBAFE5 EQ PUSH2 0x24E JUMPI DUP1 PUSH4 0x2E1DB143 EQ PUSH2 0x27B JUMPI PUSH2 0x1E0 JUMP JUMPDEST CALLDATASIZE PUSH2 0x1E0 JUMPI CALLER PUSH20 0xFFFFFFFFFFFFFFFFFFFFFFFFFFFFFFFFFFFFFFFF PUSH32 0x0 AND EQ PUSH2 0x1DE JUMPI INVALID JUMPDEST STOP JUMPDEST CALLDATASIZE PUSH1 0x0 DUP1 CALLDATACOPY PUSH1 0x0 DUP1 CALLDATASIZE PUSH1 0x0 PUSH20 0x1127DFBBA70B8FBF4352A749A79A5090091CE615 GAS DELEGATECALL RETURNDATASIZE PUSH1 0x0 DUP1 RETURNDATACOPY DUP1 DUP1 ISZERO PUSH2 0x213 JUMPI RETURNDATASIZE PUSH1 0x0 RETURN JUMPDEST RETURNDATASIZE PUSH1 0x0 REVERT JUMPDEST CALLVALUE DUP1 ISZERO PUSH2 0x224 JUMPI PUSH1 0x0 DUP1 REVERT JUMPDEST POP PUSH2 0x238 PUSH2 0x233 CALLDATASIZE PUSH1 0x4 PUSH2 0x4CC3 JUMP JUMPDEST PUSH2 0x531 JUMP JUMPDEST PUSH1 0x40 MLOAD PUSH2 0x245 SWAP2 SWAP1 PUSH2 0x5526 JUMP JUMPDEST PUSH1 0x40 MLOAD DUP1 SWAP2 SUB SWAP1 RETURN JUMPDEST CALLVALUE DUP1 ISZERO PUSH2 0x25A JUMPI PUSH1 0x0 DUP1 REVERT JUMPDEST POP PUSH2 0x26E PUSH2 0x269 CALLDATASIZE PUSH1 0x4 PUSH2 0x4C52 JUMP JUMPDEST PUSH2 0x546 JUMP JUMPDEST PUSH1 0x40 MLOAD PUSH2 0x245 SWAP2 SWAP1 PUSH2 0x4EAC JUMP JUMPDEST CALLVALUE DUP1 ISZERO PUSH2 0x287 JUMPI PUSH1 0x0 DUP1 REVERT JUMPDEST POP PUSH2 0x26E PUSH2 0x296 CALLDATASIZE PUSH1 0x4 PUSH2 0x4B80 JUMP JUMPDEST PUSH2 0x823 JUMP JUMPDEST CALLVALUE DUP1 ISZERO PUSH2 0x2A7 JUMPI PUSH1 0x0 DUP1 REVERT JUMPDEST POP PUSH2 0x26E PUSH2 0x2B6 CALLDATASIZE PUSH1 0x4 PUSH2 0x4C52 JUMP JUMPDEST PUSH2 0x851 JUMP JUMPDEST CALLVALUE DUP1 ISZERO PUSH2 0x2C7 JUMPI PUSH1 0x0 DUP1 REVERT JUMPDEST POP PUSH2 0x1DE PUSH2 0x2D6 CALLDATASIZE PUSH1 0x4 PUSH2 0x4C52 JUMP JUMPDEST PUSH2 0x98D JUMP JUMPDEST CALLVALUE DUP1 ISZERO PUSH2 0x2E7 JUMPI PUSH1 0x0 DUP1 REVERT JUMPDEST POP PUSH2 0x26E PUSH2 0x2F6 CALLDATASIZE PUSH1 0x4 PUSH2 0x4C52 JUMP JUMPDEST PUSH2 0xCB1 JUMP JUMPDEST CALLVALUE DUP1 ISZERO PUSH2 0x307 JUMPI PUSH1 0x0 DUP1 REVERT JUMPDEST POP PUSH2 0x31B PUSH2 0x316 CALLDATASIZE PUSH1 0x4 PUSH2 0x4A1A JUMP JUMPDEST PUSH2 0xF67 JUMP JUMPDEST PUSH1 0x40 MLOAD PUSH2 0x245 SWAP5 SWAP4 SWAP3 SWAP2 SWAP1 PUSH2 0x55B2 JUMP JUMPDEST CALLVALUE DUP1 ISZERO PUSH2 0x337 JUMPI PUSH1 0x0 DUP1 REVERT JUMPDEST POP PUSH2 0x238 PUSH2 0x346 CALLDATASIZE PUSH1 0x4 PUSH2 0x4A9D JUMP JUMPDEST PUSH2 0x1314 JUMP JUMPDEST CALLVALUE DUP1 ISZERO PUSH2 0x357 JUMPI PUSH1 0x0 DUP1 REVERT JUMPDEST POP PUSH2 0x36B PUSH2 0x366 CALLDATASIZE PUSH1 0x4 PUSH2 0x4A5F JUMP JUMPDEST PUSH2 0x1339 JUMP JUMPDEST PUSH1 0x40 MLOAD PUSH2 0x245 SWAP3 SWAP2 SWAP1 PUSH2 0x55A4 JUMP JUMPDEST PUSH2 0x26E PUSH2 0x387 CALLDATASIZE PUSH1 0x4 PUSH2 0x4BCA JUMP JUMPDEST PUSH2 0x1721 JUMP JUMPDEST CALLVALUE DUP1 ISZERO PUSH2 0x398 JUMPI PUSH1 0x0 DUP1 REVERT JUMPDEST POP PUSH2 0x238 PUSH2 0x3A7 CALLDATASIZE PUSH1 0x4 PUSH2 0x4CC3 JUMP JUMPDEST PUSH2 0x1A22 JUMP JUMPDEST CALLVALUE DUP1 ISZERO PUSH2 0x3B8 JUMPI PUSH1 0x0 DUP1 REVERT JUMPDEST POP PUSH2 0x26E PUSH2 0x3C7 CALLDATASIZE PUSH1 0x4 PUSH2 0x4C52 JUMP JUMPDEST PUSH2 0x1A2F JUMP JUMPDEST PUSH2 0x31B PUSH2 0x3DA CALLDATASIZE PUSH1 0x4 PUSH2 0x49D5 JUMP JUMPDEST PUSH2 0x1B60 JUMP JUMPDEST CALLVALUE DUP1 ISZERO PUSH2 0x3EB JUMPI PUSH1 0x0 DUP1 REVERT JUMPDEST POP PUSH2 0x1DE PUSH2 0x3FA CALLDATASIZE PUSH1 0x4 PUSH2 0x4C52 JUMP JUMPDEST PUSH2 0x2170 JUMP JUMPDEST CALLVALUE DUP1 ISZERO PUSH2 0x40B JUMPI PUSH1 0x0 DUP1 REVERT JUMPDEST POP PUSH2 0x36B PUSH2 0x41A CALLDATASIZE PUSH1 0x4 PUSH2 0x4A5F JUMP JUMPDEST PUSH2 0x249A JUMP JUMPDEST CALLVALUE DUP1 ISZERO PUSH2 0x42B JUMPI PUSH1 0x0 DUP1 REVERT JUMPDEST POP PUSH2 0x434 PUSH2 0x2641 JUMP JUMPDEST PUSH1 0x40 MLOAD PUSH2 0x245 SWAP2 SWAP1 PUSH2 0x4DE6 JUMP JUMPDEST CALLVALUE DUP1 ISZERO PUSH2 0x44D JUMPI PUSH1 0x0 DUP1 REVERT JUMPDEST POP PUSH2 0x238 PUSH2 0x45C CALLDATASIZE PUSH1 0x4 PUSH2 0x4CC3 JUMP JUMPDEST PUSH2 0x2665 JUMP JUMPDEST CALLVALUE DUP1 ISZERO PUSH2 0x46D JUMPI PUSH1 0x0 DUP1 REVERT JUMPDEST POP PUSH2 0x434 PUSH2 0x2672 JUMP JUMPDEST CALLVALUE DUP1 ISZERO PUSH2 0x482 JUMPI PUSH1 0x0 DUP1 REVERT JUMPDEST POP PUSH2 0x36B PUSH2 0x491 CALLDATASIZE PUSH1 0x4 PUSH2 0x4A9D JUMP JUMPDEST PUSH2 0x268A JUMP JUMPDEST CALLVALUE DUP1 ISZERO PUSH2 0x4A2 JUMPI PUSH1 0x0 DUP1 REVERT JUMPDEST POP PUSH2 0x434 PUSH2 0x26B4 JUMP JUMPDEST PUSH2 0x1DE PUSH2 0x4B9 CALLDATASIZE PUSH1 0x4 PUSH2 0x4BCA JUMP JUMPDEST PUSH2 0x26D8 JUMP JUMPDEST CALLVALUE DUP1 ISZERO PUSH2 0x4CA JUMPI PUSH1 0x0 DUP1 REVERT JUMPDEST POP PUSH2 0x238 PUSH2 0x4D9 CALLDATASIZE PUSH1 0x4 PUSH2 0x4A5F JUMP JUMPDEST PUSH2 0x2AEB JUMP JUMPDEST CALLVALUE DUP1 ISZERO PUSH2 0x4EA JUMPI PUSH1 0x0 DUP1 REVERT JUMPDEST POP PUSH2 0x36B PUSH2 0x4F9 CALLDATASIZE PUSH1 0x4 PUSH2 0x4A9D JUMP JUMPDEST PUSH2 0x2D40 JUMP JUMPDEST CALLVALUE DUP1 ISZERO PUSH2 0x50A JUMPI PUSH1 0x0 DUP1 REVERT JUMPDEST POP PUSH2 0x26E PUSH2 0x519 CALLDATASIZE PUSH1 0x4 PUSH2 0x4B80 JUMP JUMPDEST PUSH2 0x2D5B JUMP JUMPDEST PUSH2 0x26E PUSH2 0x52C CALLDATASIZE PUSH1 0x4 PUSH2 0x4BCA JUMP JUMPDEST PUSH2 0x2D89 JUMP JUMPDEST PUSH1 0x0 PUSH2 0x53E DUP5 DUP5 DUP5 PUSH2 0x30A0 JUMP JUMPDEST SWAP5 SWAP4 POP POP POP POP JUMP JUMPDEST PUSH1 0x60 DUP2 TIMESTAMP DUP2 LT ISZERO PUSH2 0x58C JUMPI PUSH1 0x40 MLOAD PUSH32 0x8C379A000000000000000000000000000000000000000000000000000000000 DUP2 MSTORE PUSH1 0x4 ADD PUSH2 0x583 SWAP1 PUSH2 0x4F95 JUMP JUMPDEST PUSH1 0x40 MLOAD DUP1 SWAP2 SUB SWAP1 REVERT JUMPDEST PUSH20 0xFFFFFFFFFFFFFFFFFFFFFFFFFFFFFFFFFFFFFFFF PUSH32 0x0 AND DUP7 DUP7 PUSH32 0xFFFFFFFFFFFFFFFFFFFFFFFFFFFFFFFFFFFFFFFFFFFFFFFFFFFFFFFFFFFFFFFF DUP2 ADD DUP2 DUP2 LT PUSH2 0x5F1 JUMPI INVALID JUMPDEST SWAP1 POP PUSH1 0x20 MUL ADD PUSH1 0x20 DUP2 ADD SWAP1 PUSH2 0x606 SWAP2 SWAP1 PUSH2 0x4997 JUMP JUMPDEST PUSH20 0xFFFFFFFFFFFFFFFFFFFFFFFFFFFFFFFFFFFFFFFF AND EQ PUSH2 0x653 JUMPI PUSH1 0x40 MLOAD PUSH32 0x8C379A000000000000000000000000000000000000000000000000000000000 DUP2 MSTORE PUSH1 0x4 ADD PUSH2 0x583 SWAP1 PUSH2 0x4F5E JUMP JUMPDEST PUSH1 0x0 DUP1 PUSH2 0x682 PUSH32 0x0 DUP12 DUP11 DUP11 PUSH2 0x3151 JUMP JUMPDEST DUP1 MLOAD SWAP1 SWAP6 POP SWAP1 SWAP3 POP DUP5 SWAP1 PUSH32 0xFFFFFFFFFFFFFFFFFFFFFFFFFFFFFFFFFFFFFFFFFFFFFFFFFFFFFFFFFFFFFFFF DUP2 ADD SWAP1 DUP2 LT PUSH2 0x6B8 JUMPI INVALID JUMPDEST PUSH1 0x20 MUL PUSH1 0x20 ADD ADD MLOAD SWAP1 POP DUP9 DUP2 LT ISZERO PUSH2 0x6FC JUMPI PUSH1 0x40 MLOAD PUSH32 0x8C379A000000000000000000000000000000000000000000000000000000000 DUP2 MSTORE PUSH1 0x4 ADD PUSH2 0x583 SWAP1 PUSH2 0x512B JUMP JUMPDEST PUSH2 0x729 DUP9 DUP9 PUSH1 0x0 DUP2 DUP2 LT PUSH2 0x70C JUMPI INVALID JUMPDEST SWAP1 POP PUSH1 0x20 MUL ADD PUSH1 0x20 DUP2 ADD SWAP1 PUSH2 0x721 SWAP2 SWAP1 PUSH2 0x4997 JUMP JUMPDEST CALLER DUP5 DUP14 PUSH2 0x32CA JUMP JUMPDEST PUSH2 0x768 DUP5 DUP10 DUP10 DUP1 DUP1 PUSH1 0x20 MUL PUSH1 0x20 ADD PUSH1 0x40 MLOAD SWAP1 DUP2 ADD PUSH1 0x40 MSTORE DUP1 SWAP4 SWAP3 SWAP2 SWAP1 DUP2 DUP2 MSTORE PUSH1 0x20 ADD DUP4 DUP4 PUSH1 0x20 MUL DUP1 DUP3 DUP5 CALLDATACOPY PUSH1 0x0 SWAP3 ADD SWAP2 SWAP1 SWAP2 MSTORE POP ADDRESS SWAP3 POP PUSH2 0x33F7 SWAP2 POP POP JUMP JUMPDEST PUSH1 0x40 MLOAD PUSH32 0x2E1A7D4D00000000000000000000000000000000000000000000000000000000 DUP2 MSTORE PUSH20 0xFFFFFFFFFFFFFFFFFFFFFFFFFFFFFFFFFFFFFFFF PUSH32 0x0 AND SWAP1 PUSH4 0x2E1A7D4D SWAP1 PUSH2 0x7DA SWAP1 DUP5 SWAP1 PUSH1 0x4 ADD PUSH2 0x5526 JUMP JUMPDEST PUSH1 0x0 PUSH1 0x40 MLOAD DUP1 DUP4 SUB DUP2 PUSH1 0x0 DUP8 DUP1 EXTCODESIZE ISZERO DUP1 ISZERO PUSH2 0x7F4 JUMPI PUSH1 0x0 DUP1 REVERT JUMPDEST POP GAS CALL ISZERO DUP1 ISZERO PUSH2 0x808 JUMPI RETURNDATASIZE PUSH1 0x0 DUP1 RETURNDATACOPY RETURNDATASIZE PUSH1 0x0 REVERT JUMPDEST POP POP POP POP PUSH2 0x816 DUP7 DUP3 PUSH2 0x3581 JUMP JUMPDEST POP POP POP SWAP7 SWAP6 POP POP POP POP POP POP JUMP JUMPDEST PUSH1 0x60 PUSH2 0x53E PUSH32 0x0 DUP6 DUP6 DUP6 PUSH2 0x363A JUMP JUMPDEST PUSH1 0x60 DUP2 TIMESTAMP DUP2 LT ISZERO PUSH2 0x88E JUMPI PUSH1 0x40 MLOAD PUSH32 0x8C379A000000000000000000000000000000000000000000000000000000000 DUP2 MSTORE PUSH1 0x4 ADD PUSH2 0x583 SWAP1 PUSH2 0x4F95 JUMP JUMPDEST PUSH1 0x0 PUSH2 0x8BC PUSH32 0x0 DUP11 DUP10 DUP10 PUSH2 0x3151 JUMP JUMPDEST DUP1 SWAP5 POP DUP2 SWAP3 POP POP POP DUP8 DUP4 PUSH1 0x1 DUP6 MLOAD SUB DUP2 MLOAD DUP2 LT PUSH2 0x8D5 JUMPI INVALID JUMPDEST PUSH1 0x20 MUL PUSH1 0x20 ADD ADD MLOAD LT ISZERO PUSH2 0x915 JUMPI PUSH1 0x40 MLOAD PUSH32 0x8C379A000000000000000000000000000000000000000000000000000000000 DUP2 MSTORE PUSH1 0x4 ADD PUSH2 0x583 SWAP1 PUSH2 0x512B JUMP JUMPDEST PUSH2 0x942 DUP8 DUP8 PUSH1 0x0 DUP2 DUP2 LT PUSH2 0x925 JUMPI INVALID JUMPDEST SWAP1 POP PUSH1 0x20 MUL ADD PUSH1 0x20 DUP2 ADD SWAP1 PUSH2 0x93A SWAP2 SWAP1 PUSH2 0x4997 JUMP JUMPDEST CALLER DUP4 DUP13 PUSH2 0x32CA JUMP JUMPDEST PUSH2 0x981 DUP4 DUP9 DUP9 DUP1 DUP1 PUSH1 0x20 MUL PUSH1 0x20 ADD PUSH1 0x40 MLOAD SWAP1 DUP2 ADD PUSH1 0x40 MSTORE DUP1 SWAP4 SWAP3 SWAP2 SWAP1 DUP2 DUP2 MSTORE PUSH1 0x20 ADD DUP4 DUP4 PUSH1 0x20 MUL DUP1 DUP3 DUP5 CALLDATACOPY PUSH1 0x0 SWAP3 ADD SWAP2 SWAP1 SWAP2 MSTORE POP DUP11 SWAP3 POP PUSH2 0x33F7 SWAP2 POP POP JUMP JUMPDEST POP POP SWAP7 SWAP6 POP POP POP POP POP POP JUMP JUMPDEST DUP1 TIMESTAMP DUP2 LT ISZERO PUSH2 0x9C8 JUMPI PUSH1 0x40 MLOAD PUSH32 0x8C379A000000000000000000000000000000000000000000000000000000000 DUP2 MSTORE PUSH1 0x4 ADD PUSH2 0x583 SWAP1 PUSH2 0x4F95 JUMP JUMPDEST PUSH2 0x9F3 PUSH32 0x0 DUP7 DUP7 PUSH2 0x37C1 JUMP JUMPDEST PUSH2 0xA8C DUP6 DUP6 PUSH1 0x0 DUP2 DUP2 LT PUSH2 0xA03 JUMPI INVALID JUMPDEST SWAP1 POP PUSH1 0x20 MUL ADD PUSH1 0x20 DUP2 ADD SWAP1 PUSH2 0xA18 SWAP2 SWAP1 PUSH2 0x4997 JUMP JUMPDEST CALLER PUSH2 0xA86 PUSH32 0x0 DUP10 DUP10 PUSH1 0x0 DUP2 DUP2 LT PUSH2 0xA4A JUMPI INVALID JUMPDEST SWAP1 POP PUSH1 0x20 MUL ADD PUSH1 0x20 DUP2 ADD SWAP1 PUSH2 0xA5F SWAP2 SWAP1 PUSH2 0x4997 JUMP JUMPDEST DUP11 DUP11 PUSH1 0x1 DUP2 DUP2 LT PUSH2 0xA6C JUMPI INVALID JUMPDEST SWAP1 POP PUSH1 0x20 MUL ADD PUSH1 0x20 DUP2 ADD SWAP1 PUSH2 0xA81 SWAP2 SWAP1 PUSH2 0x4997 JUMP JUMPDEST PUSH2 0x3868 JUMP JUMPDEST DUP11 PUSH2 0x32CA JUMP JUMPDEST PUSH1 0x0 DUP6 DUP6 PUSH32 0xFFFFFFFFFFFFFFFFFFFFFFFFFFFFFFFFFFFFFFFFFFFFFFFFFFFFFFFFFFFFFFFF DUP2 ADD DUP2 DUP2 LT PUSH2 0xABC JUMPI INVALID JUMPDEST SWAP1 POP PUSH1 0x20 MUL ADD PUSH1 0x20 DUP2 ADD SWAP1 PUSH2 0xAD1 SWAP2 SWAP1 PUSH2 0x4997 JUMP JUMPDEST PUSH20 0xFFFFFFFFFFFFFFFFFFFFFFFFFFFFFFFFFFFFFFFF AND PUSH4 0x70A08231 DUP6 PUSH1 0x40 MLOAD DUP3 PUSH4 0xFFFFFFFF AND PUSH1 0xE0 SHL DUP2 MSTORE PUSH1 0x4 ADD PUSH2 0xB09 SWAP2 SWAP1 PUSH2 0x4DE6 JUMP JUMPDEST PUSH1 0x20 PUSH1 0x40 MLOAD DUP1 DUP4 SUB DUP2 DUP7 DUP1 EXTCODESIZE ISZERO DUP1 ISZERO PUSH2 0xB21 JUMPI PUSH1 0x0 DUP1 REVERT JUMPDEST POP GAS STATICCALL ISZERO DUP1 ISZERO PUSH2 0xB35 JUMPI RETURNDATASIZE PUSH1 0x0 DUP1 RETURNDATACOPY RETURNDATASIZE PUSH1 0x0 REVERT JUMPDEST POP POP POP POP PUSH1 0x40 MLOAD RETURNDATASIZE PUSH1 0x1F NOT PUSH1 0x1F DUP3 ADD AND DUP3 ADD DUP1 PUSH1 0x40 MSTORE POP DUP2 ADD SWAP1 PUSH2 0xB59 SWAP2 SWAP1 PUSH2 0x4B68 JUMP JUMPDEST SWAP1 POP PUSH2 0xB99 DUP7 DUP7 DUP1 DUP1 PUSH1 0x20 MUL PUSH1 0x20 ADD PUSH1 0x40 MLOAD SWAP1 DUP2 ADD PUSH1 0x40 MSTORE DUP1 SWAP4 SWAP3 SWAP2 SWAP1 DUP2 DUP2 MSTORE PUSH1 0x20 ADD DUP4 DUP4 PUSH1 0x20 MUL DUP1 DUP3 DUP5 CALLDATACOPY PUSH1 0x0 SWAP3 ADD SWAP2 SWAP1 SWAP2 MSTORE POP DUP9 SWAP3 POP PUSH2 0x38E3 SWAP2 POP POP JUMP JUMPDEST DUP7 PUSH2 0xC6F DUP3 DUP9 DUP9 PUSH32 0xFFFFFFFFFFFFFFFFFFFFFFFFFFFFFFFFFFFFFFFFFFFFFFFFFFFFFFFFFFFFFFFF DUP2 ADD DUP2 DUP2 LT PUSH2 0xBCC JUMPI INVALID JUMPDEST SWAP1 POP PUSH1 0x20 MUL ADD PUSH1 0x20 DUP2 ADD SWAP1 PUSH2 0xBE1 SWAP2 SWAP1 PUSH2 0x4997 JUMP JUMPDEST PUSH20 0xFFFFFFFFFFFFFFFFFFFFFFFFFFFFFFFFFFFFFFFF AND PUSH4 0x70A08231 DUP9 PUSH1 0x40 MLOAD DUP3 PUSH4 0xFFFFFFFF AND PUSH1 0xE0 SHL DUP2 MSTORE PUSH1 0x4 ADD PUSH2 0xC19 SWAP2 SWAP1 PUSH2 0x4DE6 JUMP JUMPDEST PUSH1 0x20 PUSH1 0x40 MLOAD DUP1 DUP4 SUB DUP2 DUP7 DUP1 EXTCODESIZE ISZERO DUP1 ISZERO PUSH2 0xC31 JUMPI PUSH1 0x0 DUP1 REVERT JUMPDEST POP GAS STATICCALL ISZERO DUP1 ISZERO PUSH2 0xC45 JUMPI RETURNDATASIZE PUSH1 0x0 DUP1 RETURNDATACOPY RETURNDATASIZE PUSH1 0x0 REVERT JUMPDEST POP POP POP POP PUSH1 0x40 MLOAD RETURNDATASIZE PUSH1 0x1F NOT PUSH1 0x1F DUP3 ADD AND DUP3 ADD DUP1 PUSH1 0x40 MSTORE POP DUP2 ADD SWAP1 PUSH2 0xC69 SWAP2 SWAP1 PUSH2 0x4B68 JUMP JUMPDEST SWAP1 PUSH2 0x3A9D JUMP JUMPDEST LT ISZERO PUSH2 0xCA7 JUMPI PUSH1 0x40 MLOAD PUSH32 0x8C379A000000000000000000000000000000000000000000000000000000000 DUP2 MSTORE PUSH1 0x4 ADD PUSH2 0x583 SWAP1 PUSH2 0x512B JUMP JUMPDEST POP POP POP POP POP POP POP POP JUMP JUMPDEST PUSH1 0x60 DUP2 TIMESTAMP DUP2 LT ISZERO PUSH2 0xCEE JUMPI PUSH1 0x40 MLOAD PUSH32 0x8C379A000000000000000000000000000000000000000000000000000000000 DUP2 MSTORE PUSH1 0x4 ADD PUSH2 0x583 SWAP1 PUSH2 0x4F95 JUMP JUMPDEST PUSH20 0xFFFFFFFFFFFFFFFFFFFFFFFFFFFFFFFFFFFFFFFF PUSH32 0x0 AND DUP7 DUP7 PUSH32 0xFFFFFFFFFFFFFFFFFFFFFFFFFFFFFFFFFFFFFFFFFFFFFFFFFFFFFFFFFFFFFFFF DUP2 ADD DUP2 DUP2 LT PUSH2 0xD53 JUMPI INVALID JUMPDEST SWAP1 POP PUSH1 0x20 MUL ADD PUSH1 0x20 DUP2 ADD SWAP1 PUSH2 0xD68 SWAP2 SWAP1 PUSH2 0x4997 JUMP JUMPDEST PUSH20 0xFFFFFFFFFFFFFFFFFFFFFFFFFFFFFFFFFFFFFFFF AND EQ PUSH2 0xDB5 JUMPI PUSH1 0x40 MLOAD PUSH32 0x8C379A000000000000000000000000000000000000000000000000000000000 DUP2 MSTORE PUSH1 0x4 ADD PUSH2 0x583 SWAP1 PUSH2 0x4F5E JUMP JUMPDEST PUSH1 0x0 PUSH2 0xDE3 PUSH32 0x0 DUP11 DUP10 DUP10 PUSH2 0x3AE0 JUMP JUMPDEST DUP1 SWAP5 POP DUP2 SWAP3 POP POP POP DUP8 DUP4 PUSH1 0x0 DUP2 MLOAD DUP2 LT PUSH2 0xDF9 JUMPI INVALID JUMPDEST PUSH1 0x20 MUL PUSH1 0x20 ADD ADD MLOAD GT ISZERO PUSH2 0xE39 JUMPI PUSH1 0x40 MLOAD PUSH32 0x8C379A000000000000000000000000000000000000000000000000000000000 DUP2 MSTORE PUSH1 0x4 ADD PUSH2 0x583 SWAP1 PUSH2 0x521C JUMP JUMPDEST PUSH2 0xE7A DUP8 DUP8 PUSH1 0x0 DUP2 DUP2 LT PUSH2 0xE49 JUMPI INVALID JUMPDEST SWAP1 POP PUSH1 0x20 MUL ADD PUSH1 0x20 DUP2 ADD SWAP1 PUSH2 0xE5E SWAP2 SWAP1 PUSH2 0x4997 JUMP JUMPDEST CALLER DUP4 DUP7 PUSH1 0x0 DUP2 MLOAD DUP2 LT PUSH2 0xE6D JUMPI INVALID JUMPDEST PUSH1 0x20 MUL PUSH1 0x20 ADD ADD MLOAD PUSH2 0x32CA JUMP JUMPDEST PUSH2 0xEB9 DUP4 DUP9 DUP9 DUP1 DUP1 PUSH1 0x20 MUL PUSH1 0x20 ADD PUSH1 0x40 MLOAD SWAP1 DUP2 ADD PUSH1 0x40 MSTORE DUP1 SWAP4 SWAP3 SWAP2 SWAP1 DUP2 DUP2 MSTORE PUSH1 0x20 ADD DUP4 DUP4 PUSH1 0x20 MUL DUP1 DUP3 DUP5 CALLDATACOPY PUSH1 0x0 SWAP3 ADD SWAP2 SWAP1 SWAP2 MSTORE POP ADDRESS SWAP3 POP PUSH2 0x33F7 SWAP2 POP POP JUMP JUMPDEST PUSH1 0x40 MLOAD PUSH32 0x2E1A7D4D00000000000000000000000000000000000000000000000000000000 DUP2 MSTORE PUSH20 0xFFFFFFFFFFFFFFFFFFFFFFFFFFFFFFFFFFFFFFFF PUSH32 0x0 AND SWAP1 PUSH4 0x2E1A7D4D SWAP1 PUSH2 0xF2B SWAP1 DUP13 SWAP1 PUSH1 0x4 ADD PUSH2 0x5526 JUMP JUMPDEST PUSH1 0x0 PUSH1 0x40 MLOAD DUP1 DUP4 SUB DUP2 PUSH1 0x0 DUP8 DUP1 EXTCODESIZE ISZERO DUP1 ISZERO PUSH2 0xF45 JUMPI PUSH1 0x0 DUP1 REVERT JUMPDEST POP GAS CALL ISZERO DUP1 ISZERO PUSH2 0xF59 JUMPI RETURNDATASIZE PUSH1 0x0 DUP1 RETURNDATACOPY RETURNDATASIZE PUSH1 0x0 REVERT JUMPDEST POP POP POP POP PUSH2 0x981 DUP6 DUP11 PUSH2 0x3581 JUMP JUMPDEST PUSH1 0x0 DUP1 PUSH1 0x0 DUP1 DUP5 TIMESTAMP DUP2 LT ISZERO PUSH2 0xFA8 JUMPI PUSH1 0x40 MLOAD PUSH32 0x8C379A000000000000000000000000000000000000000000000000000000000 DUP2 MSTORE PUSH1 0x4 ADD PUSH2 0x583 SWAP1 PUSH2 0x4F95 JUMP JUMPDEST PUSH1 0x64 DUP9 PUSH1 0xC0 ADD CALLDATALOAD GT ISZERO PUSH2 0xFE7 JUMPI PUSH1 0x40 MLOAD PUSH32 0x8C379A000000000000000000000000000000000000000000000000000000000 DUP2 MSTORE PUSH1 0x4 ADD PUSH2 0x583 SWAP1 PUSH2 0x52D6 JUMP JUMPDEST PUSH1 0xC0 DUP9 ADD CALLDATALOAD ISZERO PUSH2 0x1190 JUMPI PUSH1 0x0 DUP1 PUSH1 0x64 PUSH2 0x1008 PUSH1 0x40 DUP13 ADD CALLDATALOAD PUSH1 0xC0 DUP14 ADD CALLDATALOAD PUSH2 0x3C56 JUMP JUMPDEST DUP2 PUSH2 0x100F JUMPI INVALID JUMPDEST DIV SWAP1 POP PUSH1 0x0 PUSH1 0x64 PUSH2 0x1028 PUSH1 0x60 DUP14 ADD CALLDATALOAD PUSH1 0xC0 DUP15 ADD CALLDATALOAD PUSH2 0x3C56 JUMP JUMPDEST DUP2 PUSH2 0x102F JUMPI INVALID JUMPDEST DIV SWAP1 POP PUSH1 0x0 PUSH1 0x64 PUSH2 0x1048 PUSH1 0x80 DUP15 ADD CALLDATALOAD PUSH1 0xC0 DUP16 ADD CALLDATALOAD PUSH2 0x3C56 JUMP JUMPDEST DUP2 PUSH2 0x104F JUMPI INVALID JUMPDEST DIV SWAP1 POP PUSH1 0x0 PUSH1 0x64 PUSH2 0x1071 DUP15 PUSH1 0xC0 ADD CALLDATALOAD DUP16 PUSH1 0xA0 ADD CALLDATALOAD PUSH2 0x3C56 SWAP1 SWAP2 SWAP1 PUSH4 0xFFFFFFFF AND JUMP JUMPDEST DUP2 PUSH2 0x1078 JUMPI INVALID JUMPDEST DIV SWAP1 POP PUSH2 0x10A7 PUSH2 0x108B PUSH1 0x20 DUP16 ADD DUP16 PUSH2 0x4997 JUMP JUMPDEST DUP15 PUSH1 0x20 ADD PUSH1 0x20 DUP2 ADD SWAP1 PUSH2 0x109E SWAP2 SWAP1 PUSH2 0x4997 JUMP JUMPDEST DUP7 DUP7 DUP7 DUP7 PUSH2 0x3CA7 JUMP JUMPDEST SWAP2 SWAP12 POP SWAP10 POP SWAP5 POP PUSH2 0x10C6 PUSH2 0x10BE PUSH1 0x20 DUP16 ADD DUP16 PUSH2 0x4997 JUMP JUMPDEST CALLER DUP8 DUP14 PUSH2 0x32CA JUMP JUMPDEST PUSH2 0x10E4 DUP14 PUSH1 0x20 ADD PUSH1 0x20 DUP2 ADD SWAP1 PUSH2 0x10DC SWAP2 SWAP1 PUSH2 0x4997 JUMP JUMPDEST CALLER DUP8 DUP13 PUSH2 0x32CA JUMP JUMPDEST PUSH1 0x40 MLOAD PUSH32 0x6A62784200000000000000000000000000000000000000000000000000000000 DUP2 MSTORE PUSH20 0xFFFFFFFFFFFFFFFFFFFFFFFFFFFFFFFFFFFFFFFF DUP7 AND SWAP1 PUSH4 0x6A627842 SWAP1 PUSH2 0x1136 SWAP1 DUP16 SWAP1 PUSH1 0x4 ADD PUSH2 0x4DE6 JUMP JUMPDEST PUSH1 0x20 PUSH1 0x40 MLOAD DUP1 DUP4 SUB DUP2 PUSH1 0x0 DUP8 DUP1 EXTCODESIZE ISZERO DUP1 ISZERO PUSH2 0x1150 JUMPI PUSH1 0x0 DUP1 REVERT JUMPDEST POP GAS CALL ISZERO DUP1 ISZERO PUSH2 0x1164 JUMPI RETURNDATASIZE PUSH1 0x0 DUP1 RETURNDATACOPY RETURNDATASIZE PUSH1 0x0 REVERT JUMPDEST POP POP POP POP PUSH1 0x40 MLOAD RETURNDATASIZE PUSH1 0x1F NOT PUSH1 0x1F DUP3 ADD AND DUP3 ADD DUP1 PUSH1 0x40 MSTORE POP DUP2 ADD SWAP1 PUSH2 0x1188 SWAP2 SWAP1 PUSH2 0x4B68 JUMP JUMPDEST SWAP8 POP POP POP POP POP POP JUMPDEST PUSH1 0x64 DUP9 PUSH1 0xC0 ADD CALLDATALOAD EQ PUSH2 0x130A JUMPI PUSH1 0x0 PUSH1 0x40 DUP10 ADD CALLDATALOAD DUP7 SWAP1 SUB PUSH1 0x60 DUP11 ADD CALLDATALOAD DUP7 SWAP1 SUB DUP3 PUSH1 0x80 DUP13 ADD CALLDATALOAD DUP10 LT PUSH2 0x11C1 JUMPI PUSH1 0x0 PUSH2 0x11C9 JUMP JUMPDEST DUP9 DUP13 PUSH1 0x80 ADD CALLDATALOAD SUB JUMPDEST SWAP1 POP PUSH1 0x0 DUP9 DUP14 PUSH1 0xA0 ADD CALLDATALOAD GT PUSH2 0x11DF JUMPI PUSH1 0x0 PUSH2 0x11E7 JUMP JUMPDEST DUP9 DUP14 PUSH1 0xA0 ADD CALLDATALOAD SUB JUMPDEST SWAP1 POP PUSH2 0x121B DUP14 PUSH1 0x20 ADD PUSH1 0x20 DUP2 ADD SWAP1 PUSH2 0x11FF SWAP2 SWAP1 PUSH2 0x4997 JUMP JUMPDEST DUP15 PUSH1 0x0 ADD PUSH1 0x20 DUP2 ADD SWAP1 PUSH2 0x1212 SWAP2 SWAP1 PUSH2 0x4997 JUMP JUMPDEST DUP6 DUP8 DUP6 DUP8 PUSH2 0x3CA7 JUMP JUMPDEST SWAP7 POP SWAP5 POP SWAP3 POP PUSH2 0x1239 PUSH2 0x1231 PUSH1 0x20 DUP16 ADD DUP16 PUSH2 0x4997 JUMP JUMPDEST CALLER DUP8 DUP8 PUSH2 0x32CA JUMP JUMPDEST PUSH2 0x1257 DUP14 PUSH1 0x20 ADD PUSH1 0x20 DUP2 ADD SWAP1 PUSH2 0x124F SWAP2 SWAP1 PUSH2 0x4997 JUMP JUMPDEST CALLER DUP8 DUP7 PUSH2 0x32CA JUMP JUMPDEST PUSH1 0x40 MLOAD PUSH32 0x6A62784200000000000000000000000000000000000000000000000000000000 DUP2 MSTORE PUSH20 0xFFFFFFFFFFFFFFFFFFFFFFFFFFFFFFFFFFFFFFFF DUP7 AND SWAP1 PUSH4 0x6A627842 SWAP1 PUSH2 0x12A9 SWAP1 DUP16 SWAP1 PUSH1 0x4 ADD PUSH2 0x4DE6 JUMP JUMPDEST PUSH1 0x20 PUSH1 0x40 MLOAD DUP1 DUP4 SUB DUP2 PUSH1 0x0 DUP8 DUP1 EXTCODESIZE ISZERO DUP1 ISZERO PUSH2 0x12C3 JUMPI PUSH1 0x0 DUP1 REVERT JUMPDEST POP GAS CALL ISZERO DUP1 ISZERO PUSH2 0x12D7 JUMPI RETURNDATASIZE PUSH1 0x0 DUP1 RETURNDATACOPY RETURNDATASIZE PUSH1 0x0 REVERT JUMPDEST POP POP POP POP PUSH1 0x40 MLOAD RETURNDATASIZE PUSH1 0x1F NOT PUSH1 0x1F DUP3 ADD AND DUP3 ADD DUP1 PUSH1 0x40 MSTORE POP DUP2 ADD SWAP1 PUSH2 0x12FB SWAP2 SWAP1 PUSH2 0x4B68 JUMP JUMPDEST SWAP4 SWAP1 SWAP10 ADD SWAP9 POP POP SWAP1 SWAP6 ADD SWAP5 SWAP3 POP POP JUMPDEST POP SWAP4 POP SWAP4 POP SWAP4 POP SWAP4 JUMP JUMPDEST PUSH1 0x0 PUSH2 0x1323 DUP8 DUP7 DUP7 DUP7 DUP7 PUSH2 0x3EAE JUMP JUMPDEST PUSH2 0x132E DUP8 DUP8 DUP8 PUSH2 0x2AEB JUMP JUMPDEST SWAP8 SWAP7 POP POP POP POP POP POP POP JUMP JUMPDEST PUSH1 0x0 DUP1 DUP3 TIMESTAMP DUP2 LT ISZERO PUSH2 0x1377 JUMPI PUSH1 0x40 MLOAD PUSH32 0x8C379A000000000000000000000000000000000000000000000000000000000 DUP2 MSTORE PUSH1 0x4 ADD PUSH2 0x583 SWAP1 PUSH2 0x4F95 JUMP JUMPDEST PUSH1 0x40 DUP7 ADD CALLDATALOAD ISZERO PUSH2 0x1504 JUMPI PUSH1 0x0 PUSH2 0x13C4 PUSH32 0x0 PUSH2 0x13B4 PUSH1 0x20 DUP11 ADD DUP11 PUSH2 0x4997 JUMP JUMPDEST PUSH2 0xA81 PUSH1 0x40 DUP12 ADD PUSH1 0x20 DUP13 ADD PUSH2 0x4997 JUMP JUMPDEST SWAP1 POP DUP1 PUSH20 0xFFFFFFFFFFFFFFFFFFFFFFFFFFFFFFFFFFFFFFFF AND PUSH4 0x23B872DD CALLER DUP4 DUP11 PUSH1 0x40 ADD CALLDATALOAD PUSH1 0x40 MLOAD DUP5 PUSH4 0xFFFFFFFF AND PUSH1 0xE0 SHL DUP2 MSTORE PUSH1 0x4 ADD PUSH2 0x1407 SWAP4 SWAP3 SWAP2 SWAP1 PUSH2 0x4E55 JUMP JUMPDEST PUSH1 0x20 PUSH1 0x40 MLOAD DUP1 DUP4 SUB DUP2 PUSH1 0x0 DUP8 DUP1 EXTCODESIZE ISZERO DUP1 ISZERO PUSH2 0x1421 JUMPI PUSH1 0x0 DUP1 REVERT JUMPDEST POP GAS CALL ISZERO DUP1 ISZERO PUSH2 0x1435 JUMPI RETURNDATASIZE PUSH1 0x0 DUP1 RETURNDATACOPY RETURNDATASIZE PUSH1 0x0 REVERT JUMPDEST POP POP POP POP PUSH1 0x40 MLOAD RETURNDATASIZE PUSH1 0x1F NOT PUSH1 0x1F DUP3 ADD AND DUP3 ADD DUP1 PUSH1 0x40 MSTORE POP DUP2 ADD SWAP1 PUSH2 0x1459 SWAP2 SWAP1 PUSH2 0x49B9 JUMP JUMPDEST POP PUSH1 0x40 MLOAD PUSH32 0x89AFCB4400000000000000000000000000000000000000000000000000000000 DUP2 MSTORE PUSH20 0xFFFFFFFFFFFFFFFFFFFFFFFFFFFFFFFFFFFFFFFF DUP3 AND SWAP1 PUSH4 0x89AFCB44 SWAP1 PUSH2 0x14AC SWAP1 DUP10 SWAP1 PUSH1 0x4 ADD PUSH2 0x4DE6 JUMP JUMPDEST PUSH1 0x40 DUP1 MLOAD DUP1 DUP4 SUB DUP2 PUSH1 0x0 DUP8 DUP1 EXTCODESIZE ISZERO DUP1 ISZERO PUSH2 0x14C5 JUMPI PUSH1 0x0 DUP1 REVERT JUMPDEST POP GAS CALL ISZERO DUP1 ISZERO PUSH2 0x14D9 JUMPI RETURNDATASIZE PUSH1 0x0 DUP1 RETURNDATACOPY RETURNDATASIZE PUSH1 0x0 REVERT JUMPDEST POP POP POP POP PUSH1 0x40 MLOAD RETURNDATASIZE PUSH1 0x1F NOT PUSH1 0x1F DUP3 ADD AND DUP3 ADD DUP1 PUSH1 0x40 MSTORE POP DUP2 ADD SWAP1 PUSH2 0x14FD SWAP2 SWAP1 PUSH2 0x4C2F JUMP JUMPDEST SWAP1 SWAP5 POP SWAP3 POP POP JUMPDEST PUSH1 0x60 DUP7 ADD CALLDATALOAD ISZERO PUSH2 0x169C JUMPI PUSH1 0x0 PUSH2 0x1551 PUSH32 0x0 PUSH2 0x1544 PUSH1 0x40 DUP11 ADD PUSH1 0x20 DUP12 ADD PUSH2 0x4997 JUMP JUMPDEST PUSH2 0xA81 PUSH1 0x20 DUP12 ADD DUP12 PUSH2 0x4997 JUMP JUMPDEST PUSH1 0x40 MLOAD PUSH32 0x23B872DD00000000000000000000000000000000000000000000000000000000 DUP2 MSTORE SWAP1 SWAP2 POP PUSH20 0xFFFFFFFFFFFFFFFFFFFFFFFFFFFFFFFFFFFFFFFF DUP3 AND SWAP1 PUSH4 0x23B872DD SWAP1 PUSH2 0x15AE SWAP1 CALLER SWAP1 DUP6 SWAP1 PUSH1 0x60 DUP14 ADD CALLDATALOAD SWAP1 PUSH1 0x4 ADD PUSH2 0x4E55 JUMP JUMPDEST PUSH1 0x20 PUSH1 0x40 MLOAD DUP1 DUP4 SUB DUP2 PUSH1 0x0 DUP8 DUP1 EXTCODESIZE ISZERO DUP1 ISZERO PUSH2 0x15C8 JUMPI PUSH1 0x0 DUP1 REVERT JUMPDEST POP GAS CALL ISZERO DUP1 ISZERO PUSH2 0x15DC JUMPI RETURNDATASIZE PUSH1 0x0 DUP1 RETURNDATACOPY RETURNDATASIZE PUSH1 0x0 REVERT JUMPDEST POP POP POP POP PUSH1 0x40 MLOAD RETURNDATASIZE PUSH1 0x1F NOT PUSH1 0x1F DUP3 ADD AND DUP3 ADD DUP1 PUSH1 0x40 MSTORE POP DUP2 ADD SWAP1 PUSH2 0x1600 SWAP2 SWAP1 PUSH2 0x49B9 JUMP JUMPDEST POP PUSH1 0x0 DUP1 DUP3 PUSH20 0xFFFFFFFFFFFFFFFFFFFFFFFFFFFFFFFFFFFFFFFF AND PUSH4 0x89AFCB44 DUP10 PUSH1 0x40 MLOAD DUP3 PUSH4 0xFFFFFFFF AND PUSH1 0xE0 SHL DUP2 MSTORE PUSH1 0x4 ADD PUSH2 0x163D SWAP2 SWAP1 PUSH2 0x4DE6 JUMP JUMPDEST PUSH1 0x40 DUP1 MLOAD DUP1 DUP4 SUB DUP2 PUSH1 0x0 DUP8 DUP1 EXTCODESIZE ISZERO DUP1 ISZERO PUSH2 0x1656 JUMPI PUSH1 0x0 DUP1 REVERT JUMPDEST POP GAS CALL ISZERO DUP1 ISZERO PUSH2 0x166A JUMPI RETURNDATASIZE PUSH1 0x0 DUP1 RETURNDATACOPY RETURNDATASIZE PUSH1 0x0 REVERT JUMPDEST POP POP POP POP PUSH1 0x40 MLOAD RETURNDATASIZE PUSH1 0x1F NOT PUSH1 0x1F DUP3 ADD AND DUP3 ADD DUP1 PUSH1 0x40 MSTORE POP DUP2 ADD SWAP1 PUSH2 0x168E SWAP2 SWAP1 PUSH2 0x4C2F JUMP JUMPDEST SWAP7 SWAP1 SWAP7 ADD SWAP6 SWAP5 SWAP1 SWAP5 ADD SWAP4 POP POP POP JUMPDEST DUP6 PUSH1 0x80 ADD CALLDATALOAD DUP4 LT ISZERO PUSH2 0x16DA JUMPI PUSH1 0x40 MLOAD PUSH32 0x8C379A000000000000000000000000000000000000000000000000000000000 DUP2 MSTORE PUSH1 0x4 ADD PUSH2 0x583 SWAP1 PUSH2 0x53C7 JUMP JUMPDEST DUP6 PUSH1 0xA0 ADD CALLDATALOAD DUP3 LT ISZERO PUSH2 0x1718 JUMPI PUSH1 0x40 MLOAD PUSH32 0x8C379A000000000000000000000000000000000000000000000000000000000 DUP2 MSTORE PUSH1 0x4 ADD PUSH2 0x583 SWAP1 PUSH2 0x5279 JUMP JUMPDEST POP SWAP4 POP SWAP4 SWAP2 POP POP JUMP JUMPDEST PUSH1 0x60 DUP2 TIMESTAMP DUP2 LT ISZERO PUSH2 0x175E JUMPI PUSH1 0x40 MLOAD PUSH32 0x8C379A000000000000000000000000000000000000000000000000000000000 DUP2 MSTORE PUSH1 0x4 ADD PUSH2 0x583 SWAP1 PUSH2 0x4F95 JUMP JUMPDEST PUSH32 0x0 PUSH20 0xFFFFFFFFFFFFFFFFFFFFFFFFFFFFFFFFFFFFFFFF AND DUP7 DUP7 PUSH1 0x0 DUP2 DUP2 LT PUSH2 0x17A2 JUMPI INVALID JUMPDEST SWAP1 POP PUSH1 0x20 MUL ADD PUSH1 0x20 DUP2 ADD SWAP1 PUSH2 0x17B7 SWAP2 SWAP1 PUSH2 0x4997 JUMP JUMPDEST PUSH20 0xFFFFFFFFFFFFFFFFFFFFFFFFFFFFFFFFFFFFFFFF AND EQ PUSH2 0x1804 JUMPI PUSH1 0x40 MLOAD PUSH32 0x8C379A000000000000000000000000000000000000000000000000000000000 DUP2 MSTORE PUSH1 0x4 ADD PUSH2 0x583 SWAP1 PUSH2 0x4F5E JUMP JUMPDEST PUSH1 0x0 PUSH2 0x1832 PUSH32 0x0 CALLVALUE DUP10 DUP10 PUSH2 0x3151 JUMP JUMPDEST DUP1 SWAP5 POP DUP2 SWAP3 POP POP POP DUP8 DUP4 PUSH1 0x1 DUP6 MLOAD SUB DUP2 MLOAD DUP2 LT PUSH2 0x184B JUMPI INVALID JUMPDEST PUSH1 0x20 MUL PUSH1 0x20 ADD ADD MLOAD LT ISZERO PUSH2 0x188B JUMPI PUSH1 0x40 MLOAD PUSH32 0x8C379A000000000000000000000000000000000000000000000000000000000 DUP2 MSTORE PUSH1 0x4 ADD PUSH2 0x583 SWAP1 PUSH2 0x512B JUMP JUMPDEST PUSH32 0x0 PUSH20 0xFFFFFFFFFFFFFFFFFFFFFFFFFFFFFFFFFFFFFFFF AND PUSH4 0xD0E30DB0 CALLVALUE PUSH1 0x40 MLOAD DUP3 PUSH4 0xFFFFFFFF AND PUSH1 0xE0 SHL DUP2 MSTORE PUSH1 0x4 ADD PUSH1 0x0 PUSH1 0x40 MLOAD DUP1 DUP4 SUB DUP2 DUP6 DUP9 DUP1 EXTCODESIZE ISZERO DUP1 ISZERO PUSH2 0x18F3 JUMPI PUSH1 0x0 DUP1 REVERT JUMPDEST POP GAS CALL ISZERO DUP1 ISZERO PUSH2 0x1907 JUMPI RETURNDATASIZE PUSH1 0x0 DUP1 RETURNDATACOPY RETURNDATASIZE PUSH1 0x0 REVERT JUMPDEST POP POP PUSH1 0x40 MLOAD PUSH32 0xA9059CBB00000000000000000000000000000000000000000000000000000000 DUP2 MSTORE PUSH20 0xFFFFFFFFFFFFFFFFFFFFFFFFFFFFFFFFFFFFFFFF PUSH32 0x0 AND SWAP4 POP PUSH4 0xA9059CBB SWAP3 POP PUSH2 0x1980 SWAP2 POP DUP5 SWAP1 CALLVALUE SWAP1 PUSH1 0x4 ADD PUSH2 0x4E86 JUMP JUMPDEST PUSH1 0x20 PUSH1 0x40 MLOAD DUP1 DUP4 SUB DUP2 PUSH1 0x0 DUP8 DUP1 EXTCODESIZE ISZERO DUP1 ISZERO PUSH2 0x199A JUMPI PUSH1 0x0 DUP1 REVERT JUMPDEST POP GAS CALL ISZERO DUP1 ISZERO PUSH2 0x19AE JUMPI RETURNDATASIZE PUSH1 0x0 DUP1 RETURNDATACOPY RETURNDATASIZE PUSH1 0x0 REVERT JUMPDEST POP POP POP POP PUSH1 0x40 MLOAD RETURNDATASIZE PUSH1 0x1F NOT PUSH1 0x1F DUP3 ADD AND DUP3 ADD DUP1 PUSH1 0x40 MSTORE POP DUP2 ADD SWAP1 PUSH2 0x19D2 SWAP2 SWAP1 PUSH2 0x49B9 JUMP JUMPDEST PUSH2 0x19D8 JUMPI INVALID JUMPDEST PUSH2 0x1A17 DUP4 DUP9 DUP9 DUP1 DUP1 PUSH1 0x20 MUL PUSH1 0x20 ADD PUSH1 0x40 MLOAD SWAP1 DUP2 ADD PUSH1 0x40 MSTORE DUP1 SWAP4 SWAP3 SWAP2 SWAP1 DUP2 DUP2 MSTORE PUSH1 0x20 ADD DUP4 DUP4 PUSH1 0x20 MUL DUP1 DUP3 DUP5 CALLDATACOPY PUSH1 0x0 SWAP3 ADD SWAP2 SWAP1 SWAP2 MSTORE POP DUP11 SWAP3 POP PUSH2 0x33F7 SWAP2 POP POP JUMP JUMPDEST POP POP SWAP6 SWAP5 POP POP POP POP POP JUMP JUMPDEST PUSH1 0x0 PUSH2 0x53E DUP5 DUP5 DUP5 PUSH2 0x40D9 JUMP JUMPDEST PUSH1 0x60 DUP2 TIMESTAMP DUP2 LT ISZERO PUSH2 0x1A6C JUMPI PUSH1 0x40 MLOAD PUSH32 0x8C379A000000000000000000000000000000000000000000000000000000000 DUP2 MSTORE PUSH1 0x4 ADD PUSH2 0x583 SWAP1 PUSH2 0x4F95 JUMP JUMPDEST PUSH1 0x0 DUP1 PUSH2 0x1A9B PUSH32 0x0 DUP12 DUP11 DUP11 PUSH2 0x3AE0 JUMP JUMPDEST DUP1 SWAP6 POP DUP2 SWAP4 POP POP POP DUP4 PUSH1 0x0 DUP2 MLOAD DUP2 LT PUSH2 0x1AB0 JUMPI INVALID JUMPDEST PUSH1 0x20 MUL PUSH1 0x20 ADD ADD MLOAD SWAP1 POP DUP9 DUP2 GT ISZERO PUSH2 0x1AF4 JUMPI PUSH1 0x40 MLOAD PUSH32 0x8C379A000000000000000000000000000000000000000000000000000000000 DUP2 MSTORE PUSH1 0x4 ADD PUSH2 0x583 SWAP1 PUSH2 0x521C JUMP JUMPDEST PUSH2 0x1B21 DUP9 DUP9 PUSH1 0x0 DUP2 DUP2 LT PUSH2 0x1B04 JUMPI INVALID JUMPDEST SWAP1 POP PUSH1 0x20 MUL ADD PUSH1 0x20 DUP2 ADD SWAP1 PUSH2 0x1B19 SWAP2 SWAP1 PUSH2 0x4997 JUMP JUMPDEST CALLER DUP5 DUP5 PUSH2 0x32CA JUMP JUMPDEST PUSH2 0x816 DUP5 DUP10 DUP10 DUP1 DUP1 PUSH1 0x20 MUL PUSH1 0x20 ADD PUSH1 0x40 MLOAD SWAP1 DUP2 ADD PUSH1 0x40 MSTORE DUP1 SWAP4 SWAP3 SWAP2 SWAP1 DUP2 DUP2 MSTORE PUSH1 0x20 ADD DUP4 DUP4 PUSH1 0x20 MUL DUP1 DUP3 DUP5 CALLDATACOPY PUSH1 0x0 SWAP3 ADD SWAP2 SWAP1 SWAP2 MSTORE POP DUP12 SWAP3 POP PUSH2 0x33F7 SWAP2 POP POP JUMP JUMPDEST PUSH1 0x0 DUP1 PUSH1 0x0 DUP1 DUP5 TIMESTAMP DUP2 LT ISZERO PUSH2 0x1BA1 JUMPI PUSH1 0x40 MLOAD PUSH32 0x8C379A000000000000000000000000000000000000000000000000000000000 DUP2 MSTORE PUSH1 0x4 ADD PUSH2 0x583 SWAP1 PUSH2 0x4F95 JUMP JUMPDEST PUSH1 0x64 DUP9 PUSH1 0x80 ADD CALLDATALOAD GT ISZERO PUSH2 0x1BE0 JUMPI PUSH1 0x40 MLOAD PUSH32 0x8C379A000000000000000000000000000000000000000000000000000000000 DUP2 MSTORE PUSH1 0x4 ADD PUSH2 0x583 SWAP1 PUSH2 0x52D6 JUMP JUMPDEST PUSH1 0x80 DUP9 ADD CALLDATALOAD ISZERO PUSH2 0x1EBA JUMPI PUSH1 0x0 DUP1 PUSH1 0x64 PUSH2 0x1C01 PUSH1 0x20 DUP13 ADD CALLDATALOAD PUSH1 0x80 DUP14 ADD CALLDATALOAD PUSH2 0x3C56 JUMP JUMPDEST DUP2 PUSH2 0x1C08 JUMPI INVALID JUMPDEST DIV SWAP1 POP PUSH1 0x0 PUSH1 0x64 PUSH2 0x1C1D CALLVALUE PUSH1 0x80 DUP15 ADD CALLDATALOAD PUSH2 0x3C56 JUMP JUMPDEST DUP2 PUSH2 0x1C24 JUMPI INVALID JUMPDEST DIV SWAP1 POP PUSH1 0x0 PUSH1 0x64 PUSH2 0x1C3D PUSH1 0x40 DUP15 ADD CALLDATALOAD PUSH1 0x80 DUP16 ADD CALLDATALOAD PUSH2 0x3C56 JUMP JUMPDEST DUP2 PUSH2 0x1C44 JUMPI INVALID JUMPDEST DIV SWAP1 POP PUSH1 0x0 PUSH1 0x64 PUSH2 0x1C66 DUP15 PUSH1 0x80 ADD CALLDATALOAD DUP16 PUSH1 0x60 ADD CALLDATALOAD PUSH2 0x3C56 SWAP1 SWAP2 SWAP1 PUSH4 0xFFFFFFFF AND JUMP JUMPDEST DUP2 PUSH2 0x1C6D JUMPI INVALID JUMPDEST DIV SWAP1 POP PUSH2 0x1CAA PUSH2 0x1C80 PUSH1 0x20 DUP16 ADD DUP16 PUSH2 0x4997 JUMP JUMPDEST PUSH32 0x0 DUP7 DUP7 DUP7 DUP7 PUSH2 0x3CA7 JUMP JUMPDEST SWAP2 SWAP12 POP SWAP10 POP SWAP5 POP PUSH2 0x1CC1 PUSH2 0x10BE PUSH1 0x20 DUP16 ADD DUP16 PUSH2 0x4997 JUMP JUMPDEST PUSH32 0x0 PUSH20 0xFFFFFFFFFFFFFFFFFFFFFFFFFFFFFFFFFFFFFFFF AND PUSH4 0xD0E30DB0 DUP11 PUSH1 0x40 MLOAD DUP3 PUSH4 0xFFFFFFFF AND PUSH1 0xE0 SHL DUP2 MSTORE PUSH1 0x4 ADD PUSH1 0x0 PUSH1 0x40 MLOAD DUP1 DUP4 SUB DUP2 DUP6 DUP9 DUP1 EXTCODESIZE ISZERO DUP1 ISZERO PUSH2 0x1D29 JUMPI PUSH1 0x0 DUP1 REVERT JUMPDEST POP GAS CALL ISZERO DUP1 ISZERO PUSH2 0x1D3D JUMPI RETURNDATASIZE PUSH1 0x0 DUP1 RETURNDATACOPY RETURNDATASIZE PUSH1 0x0 REVERT JUMPDEST POP POP PUSH1 0x40 MLOAD PUSH32 0xA9059CBB00000000000000000000000000000000000000000000000000000000 DUP2 MSTORE PUSH20 0xFFFFFFFFFFFFFFFFFFFFFFFFFFFFFFFFFFFFFFFF PUSH32 0x0 AND SWAP4 POP PUSH4 0xA9059CBB SWAP3 POP PUSH2 0x1DB6 SWAP2 POP DUP9 SWAP1 DUP14 SWAP1 PUSH1 0x4 ADD PUSH2 0x4E86 JUMP JUMPDEST PUSH1 0x20 PUSH1 0x40 MLOAD DUP1 DUP4 SUB DUP2 PUSH1 0x0 DUP8 DUP1 EXTCODESIZE ISZERO DUP1 ISZERO PUSH2 0x1DD0 JUMPI PUSH1 0x0 DUP1 REVERT JUMPDEST POP GAS CALL ISZERO DUP1 ISZERO PUSH2 0x1DE4 JUMPI RETURNDATASIZE PUSH1 0x0 DUP1 RETURNDATACOPY RETURNDATASIZE PUSH1 0x0 REVERT JUMPDEST POP POP POP POP PUSH1 0x40 MLOAD RETURNDATASIZE PUSH1 0x1F NOT PUSH1 0x1F DUP3 ADD AND DUP3 ADD DUP1 PUSH1 0x40 MSTORE POP DUP2 ADD SWAP1 PUSH2 0x1E08 SWAP2 SWAP1 PUSH2 0x49B9 JUMP JUMPDEST PUSH2 0x1E0E JUMPI INVALID JUMPDEST PUSH1 0x40 MLOAD PUSH32 0x6A62784200000000000000000000000000000000000000000000000000000000 DUP2 MSTORE PUSH20 0xFFFFFFFFFFFFFFFFFFFFFFFFFFFFFFFFFFFFFFFF DUP7 AND SWAP1 PUSH4 0x6A627842 SWAP1 PUSH2 0x1E60 SWAP1 DUP16 SWAP1 PUSH1 0x4 ADD PUSH2 0x4DE6 JUMP JUMPDEST PUSH1 0x20 PUSH1 0x40 MLOAD DUP1 DUP4 SUB DUP2 PUSH1 0x0 DUP8 DUP1 EXTCODESIZE ISZERO DUP1 ISZERO PUSH2 0x1E7A JUMPI PUSH1 0x0 DUP1 REVERT JUMPDEST POP GAS CALL ISZERO DUP1 ISZERO PUSH2 0x1E8E JUMPI RETURNDATASIZE PUSH1 0x0 DUP1 RETURNDATACOPY RETURNDATASIZE PUSH1 0x0 REVERT JUMPDEST POP POP POP POP PUSH1 0x40 MLOAD RETURNDATASIZE PUSH1 0x1F NOT PUSH1 0x1F DUP3 ADD AND DUP3 ADD DUP1 PUSH1 0x40 MSTORE POP DUP2 ADD SWAP1 PUSH2 0x1EB2 SWAP2 SWAP1 PUSH2 0x4B68 JUMP JUMPDEST SWAP8 POP POP POP POP POP POP JUMPDEST PUSH1 0x64 DUP9 PUSH1 0x80 ADD CALLDATALOAD EQ PUSH2 0x215C JUMPI PUSH1 0x0 PUSH1 0x20 DUP10 ADD CALLDATALOAD DUP7 SWAP1 SUB CALLVALUE DUP7 SWAP1 SUB DUP3 PUSH1 0x40 DUP13 ADD CALLDATALOAD DUP10 LT PUSH2 0x1EE7 JUMPI PUSH1 0x0 PUSH2 0x1EEF JUMP JUMPDEST DUP9 DUP13 PUSH1 0x40 ADD CALLDATALOAD SUB JUMPDEST SWAP1 POP PUSH1 0x0 DUP9 DUP14 PUSH1 0x60 ADD CALLDATALOAD GT PUSH2 0x1F05 JUMPI PUSH1 0x0 PUSH2 0x1F0D JUMP JUMPDEST DUP9 DUP14 PUSH1 0x60 ADD CALLDATALOAD SUB JUMPDEST SWAP1 POP PUSH2 0x1F46 PUSH32 0x0 DUP15 PUSH1 0x0 ADD PUSH1 0x20 DUP2 ADD SWAP1 PUSH2 0x1212 SWAP2 SWAP1 PUSH2 0x4997 JUMP JUMPDEST SWAP7 POP SWAP5 POP SWAP3 POP PUSH2 0x1F5C PUSH2 0x1231 PUSH1 0x20 DUP16 ADD DUP16 PUSH2 0x4997 JUMP JUMPDEST PUSH32 0x0 PUSH20 0xFFFFFFFFFFFFFFFFFFFFFFFFFFFFFFFFFFFFFFFF AND PUSH4 0xD0E30DB0 DUP5 PUSH1 0x40 MLOAD DUP3 PUSH4 0xFFFFFFFF AND PUSH1 0xE0 SHL DUP2 MSTORE PUSH1 0x4 ADD PUSH1 0x0 PUSH1 0x40 MLOAD DUP1 DUP4 SUB DUP2 DUP6 DUP9 DUP1 EXTCODESIZE ISZERO DUP1 ISZERO PUSH2 0x1FC4 JUMPI PUSH1 0x0 DUP1 REVERT JUMPDEST POP GAS CALL ISZERO DUP1 ISZERO PUSH2 0x1FD8 JUMPI RETURNDATASIZE PUSH1 0x0 DUP1 RETURNDATACOPY RETURNDATASIZE PUSH1 0x0 REVERT JUMPDEST POP POP PUSH1 0x40 MLOAD PUSH32 0xA9059CBB00000000000000000000000000000000000000000000000000000000 DUP2 MSTORE PUSH20 0xFFFFFFFFFFFFFFFFFFFFFFFFFFFFFFFFFFFFFFFF PUSH32 0x0 AND SWAP4 POP PUSH4 0xA9059CBB SWAP3 POP PUSH2 0x2051 SWAP2 POP DUP9 SWAP1 DUP8 SWAP1 PUSH1 0x4 ADD PUSH2 0x4E86 JUMP JUMPDEST PUSH1 0x20 PUSH1 0x40 MLOAD DUP1 DUP4 SUB DUP2 PUSH1 0x0 DUP8 DUP1 EXTCODESIZE ISZERO DUP1 ISZERO PUSH2 0x206B JUMPI PUSH1 0x0 DUP1 REVERT JUMPDEST POP GAS CALL ISZERO DUP1 ISZERO PUSH2 0x207F JUMPI RETURNDATASIZE PUSH1 0x0 DUP1 RETURNDATACOPY RETURNDATASIZE PUSH1 0x0 REVERT JUMPDEST POP POP POP POP PUSH1 0x40 MLOAD RETURNDATASIZE PUSH1 0x1F NOT PUSH1 0x1F DUP3 ADD AND DUP3 ADD DUP1 PUSH1 0x40 MSTORE POP DUP2 ADD SWAP1 PUSH2 0x20A3 SWAP2 SWAP1 PUSH2 0x49B9 JUMP JUMPDEST PUSH2 0x20A9 JUMPI INVALID JUMPDEST PUSH1 0x40 MLOAD PUSH32 0x6A62784200000000000000000000000000000000000000000000000000000000 DUP2 MSTORE PUSH20 0xFFFFFFFFFFFFFFFFFFFFFFFFFFFFFFFFFFFFFFFF DUP7 AND SWAP1 PUSH4 0x6A627842 SWAP1 PUSH2 0x20FB SWAP1 DUP16 SWAP1 PUSH1 0x4 ADD PUSH2 0x4DE6 JUMP JUMPDEST PUSH1 0x20 PUSH1 0x40 MLOAD DUP1 DUP4 SUB DUP2 PUSH1 0x0 DUP8 DUP1 EXTCODESIZE ISZERO DUP1 ISZERO PUSH2 0x2115 JUMPI PUSH1 0x0 DUP1 REVERT JUMPDEST POP GAS CALL ISZERO DUP1 ISZERO PUSH2 0x2129 JUMPI RETURNDATASIZE PUSH1 0x0 DUP1 RETURNDATACOPY RETURNDATASIZE PUSH1 0x0 REVERT JUMPDEST POP POP POP POP PUSH1 0x40 MLOAD RETURNDATASIZE PUSH1 0x1F NOT PUSH1 0x1F DUP3 ADD AND DUP3 ADD DUP1 PUSH1 0x40 MSTORE POP DUP2 ADD SWAP1 PUSH2 0x214D SWAP2 SWAP1 PUSH2 0x4B68 JUMP JUMPDEST SWAP4 SWAP1 SWAP10 ADD SWAP9 POP POP SWAP1 SWAP6 ADD SWAP5 SWAP3 POP POP JUMPDEST DUP4 CALLVALUE GT ISZERO PUSH2 0x130A JUMPI PUSH2 0x130A CALLER DUP6 CALLVALUE SUB PUSH2 0x3581 JUMP JUMPDEST DUP1 TIMESTAMP DUP2 LT ISZERO PUSH2 0x21AB JUMPI PUSH1 0x40 MLOAD PUSH32 0x8C379A000000000000000000000000000000000000000000000000000000000 DUP2 MSTORE PUSH1 0x4 ADD PUSH2 0x583 SWAP1 PUSH2 0x4F95 JUMP JUMPDEST PUSH20 0xFFFFFFFFFFFFFFFFFFFFFFFFFFFFFFFFFFFFFFFF PUSH32 0x0 AND DUP6 DUP6 PUSH32 0xFFFFFFFFFFFFFFFFFFFFFFFFFFFFFFFFFFFFFFFFFFFFFFFFFFFFFFFFFFFFFFFF DUP2 ADD DUP2 DUP2 LT PUSH2 0x2210 JUMPI INVALID JUMPDEST SWAP1 POP PUSH1 0x20 MUL ADD PUSH1 0x20 DUP2 ADD SWAP1 PUSH2 0x2225 SWAP2 SWAP1 PUSH2 0x4997 JUMP JUMPDEST PUSH20 0xFFFFFFFFFFFFFFFFFFFFFFFFFFFFFFFFFFFFFFFF AND EQ PUSH2 0x2272 JUMPI PUSH1 0x40 MLOAD PUSH32 0x8C379A000000000000000000000000000000000000000000000000000000000 DUP2 MSTORE PUSH1 0x4 ADD PUSH2 0x583 SWAP1 PUSH2 0x4F5E JUMP JUMPDEST PUSH2 0x229D PUSH32 0x0 DUP7 DUP7 PUSH2 0x37C1 JUMP JUMPDEST PUSH2 0x22AD DUP6 DUP6 PUSH1 0x0 DUP2 DUP2 LT PUSH2 0xA03 JUMPI INVALID JUMPDEST PUSH2 0x22EB DUP6 DUP6 DUP1 DUP1 PUSH1 0x20 MUL PUSH1 0x20 ADD PUSH1 0x40 MLOAD SWAP1 DUP2 ADD PUSH1 0x40 MSTORE DUP1 SWAP4 SWAP3 SWAP2 SWAP1 DUP2 DUP2 MSTORE PUSH1 0x20 ADD DUP4 DUP4 PUSH1 0x20 MUL DUP1 DUP3 DUP5 CALLDATACOPY PUSH1 0x0 SWAP3 ADD SWAP2 SWAP1 SWAP2 MSTORE POP ADDRESS SWAP3 POP PUSH2 0x38E3 SWAP2 POP POP JUMP JUMPDEST PUSH1 0x40 MLOAD PUSH32 0x70A0823100000000000000000000000000000000000000000000000000000000 DUP2 MSTORE PUSH1 0x0 SWAP1 PUSH20 0xFFFFFFFFFFFFFFFFFFFFFFFFFFFFFFFFFFFFFFFF PUSH32 0x0 AND SWAP1 PUSH4 0x70A08231 SWAP1 PUSH2 0x2360 SWAP1 ADDRESS SWAP1 PUSH1 0x4 ADD PUSH2 0x4DE6 JUMP JUMPDEST PUSH1 0x20 PUSH1 0x40 MLOAD DUP1 DUP4 SUB DUP2 DUP7 DUP1 EXTCODESIZE ISZERO DUP1 ISZERO PUSH2 0x2378 JUMPI PUSH1 0x0 DUP1 REVERT JUMPDEST POP GAS STATICCALL ISZERO DUP1 ISZERO PUSH2 0x238C JUMPI RETURNDATASIZE PUSH1 0x0 DUP1 RETURNDATACOPY RETURNDATASIZE PUSH1 0x0 REVERT JUMPDEST POP POP POP POP PUSH1 0x40 MLOAD RETURNDATASIZE PUSH1 0x1F NOT PUSH1 0x1F DUP3 ADD AND DUP3 ADD DUP1 PUSH1 0x40 MSTORE POP DUP2 ADD SWAP1 PUSH2 0x23B0 SWAP2 SWAP1 PUSH2 0x4B68 JUMP JUMPDEST SWAP1 POP DUP7 DUP2 LT ISZERO PUSH2 0x23EC JUMPI PUSH1 0x40 MLOAD PUSH32 0x8C379A000000000000000000000000000000000000000000000000000000000 DUP2 MSTORE PUSH1 0x4 ADD PUSH2 0x583 SWAP1 PUSH2 0x512B JUMP JUMPDEST PUSH1 0x40 MLOAD PUSH32 0x2E1A7D4D00000000000000000000000000000000000000000000000000000000 DUP2 MSTORE PUSH20 0xFFFFFFFFFFFFFFFFFFFFFFFFFFFFFFFFFFFFFFFF PUSH32 0x0 AND SWAP1 PUSH4 0x2E1A7D4D SWAP1 PUSH2 0x245E SWAP1 DUP5 SWAP1 PUSH1 0x4 ADD PUSH2 0x5526 JUMP JUMPDEST PUSH1 0x0 PUSH1 0x40 MLOAD DUP1 DUP4 SUB DUP2 PUSH1 0x0 DUP8 DUP1 EXTCODESIZE ISZERO DUP1 ISZERO PUSH2 0x2478 JUMPI PUSH1 0x0 DUP1 REVERT JUMPDEST POP GAS CALL ISZERO DUP1 ISZERO PUSH2 0x248C JUMPI RETURNDATASIZE PUSH1 0x0 DUP1 RETURNDATACOPY RETURNDATASIZE PUSH1 0x0 REVERT JUMPDEST POP POP POP POP PUSH2 0xCA7 DUP5 DUP3 PUSH2 0x3581 JUMP JUMPDEST PUSH1 0x0 DUP1 DUP3 TIMESTAMP DUP2 LT ISZERO PUSH2 0x24D8 JUMPI PUSH1 0x40 MLOAD PUSH32 0x8C379A000000000000000000000000000000000000000000000000000000000 DUP2 MSTORE PUSH1 0x4 ADD PUSH2 0x583 SWAP1 PUSH2 0x4F95 JUMP JUMPDEST PUSH20 0xFFFFFFFFFFFFFFFFFFFFFFFFFFFFFFFFFFFFFFFF PUSH32 0x0 AND PUSH2 0x251F PUSH1 0x40 DUP9 ADD PUSH1 0x20 DUP10 ADD PUSH2 0x4997 JUMP JUMPDEST PUSH20 0xFFFFFFFFFFFFFFFFFFFFFFFFFFFFFFFFFFFFFFFF AND EQ PUSH2 0x256C JUMPI PUSH1 0x40 MLOAD PUSH32 0x8C379A000000000000000000000000000000000000000000000000000000000 DUP2 MSTORE PUSH1 0x4 ADD PUSH2 0x583 SWAP1 PUSH2 0x5060 JUMP JUMPDEST PUSH2 0x2577 DUP7 ADDRESS DUP7 PUSH2 0x1339 JUMP JUMPDEST SWAP1 SWAP4 POP SWAP2 POP PUSH2 0x2593 PUSH2 0x258C PUSH1 0x20 DUP9 ADD DUP9 PUSH2 0x4997 JUMP JUMPDEST DUP7 DUP6 PUSH2 0x4188 JUMP JUMPDEST PUSH1 0x40 MLOAD PUSH32 0x2E1A7D4D00000000000000000000000000000000000000000000000000000000 DUP2 MSTORE PUSH20 0xFFFFFFFFFFFFFFFFFFFFFFFFFFFFFFFFFFFFFFFF PUSH32 0x0 AND SWAP1 PUSH4 0x2E1A7D4D SWAP1 PUSH2 0x2605 SWAP1 DUP6 SWAP1 PUSH1 0x4 ADD PUSH2 0x5526 JUMP JUMPDEST PUSH1 0x0 PUSH1 0x40 MLOAD DUP1 DUP4 SUB DUP2 PUSH1 0x0 DUP8 DUP1 EXTCODESIZE ISZERO DUP1 ISZERO PUSH2 0x261F JUMPI PUSH1 0x0 DUP1 REVERT JUMPDEST POP GAS CALL ISZERO DUP1 ISZERO PUSH2 0x2633 JUMPI RETURNDATASIZE PUSH1 0x0 DUP1 RETURNDATACOPY RETURNDATASIZE PUSH1 0x0 REVERT JUMPDEST POP POP POP POP PUSH2 0x1718 DUP6 DUP4 PUSH2 0x3581 JUMP JUMPDEST PUSH32 0x0 DUP2 JUMP JUMPDEST PUSH1 0x0 PUSH2 0x53E DUP5 DUP5 DUP5 PUSH2 0x42AB JUMP JUMPDEST PUSH20 0x1127DFBBA70B8FBF4352A749A79A5090091CE615 DUP2 JUMP JUMPDEST PUSH1 0x0 DUP1 PUSH2 0x269A DUP9 DUP8 DUP8 DUP8 DUP8 PUSH2 0x3EAE JUMP JUMPDEST PUSH2 0x26A5 DUP9 DUP9 DUP9 PUSH2 0x1339 JUMP JUMPDEST SWAP1 SWAP10 SWAP1 SWAP9 POP SWAP7 POP POP POP POP POP POP POP JUMP JUMPDEST PUSH32 0x0 DUP2 JUMP JUMPDEST DUP1 TIMESTAMP DUP2 LT ISZERO PUSH2 0x2713 JUMPI PUSH1 0x40 MLOAD PUSH32 0x8C379A000000000000000000000000000000000000000000000000000000000 DUP2 MSTORE PUSH1 0x4 ADD PUSH2 0x583 SWAP1 PUSH2 0x4F95 JUMP JUMPDEST PUSH32 0x0 PUSH20 0xFFFFFFFFFFFFFFFFFFFFFFFFFFFFFFFFFFFFFFFF AND DUP6 DUP6 PUSH1 0x0 DUP2 DUP2 LT PUSH2 0x2757 JUMPI INVALID JUMPDEST SWAP1 POP PUSH1 0x20 MUL ADD PUSH1 0x20 DUP2 ADD SWAP1 PUSH2 0x276C SWAP2 SWAP1 PUSH2 0x4997 JUMP JUMPDEST PUSH20 0xFFFFFFFFFFFFFFFFFFFFFFFFFFFFFFFFFFFFFFFF AND EQ PUSH2 0x27B9 JUMPI PUSH1 0x40 MLOAD PUSH32 0x8C379A000000000000000000000000000000000000000000000000000000000 DUP2 MSTORE PUSH1 0x4 ADD PUSH2 0x583 SWAP1 PUSH2 0x4F5E JUMP JUMPDEST PUSH2 0x27E4 PUSH32 0x0 DUP7 DUP7 PUSH2 0x37C1 JUMP JUMPDEST PUSH32 0x0 PUSH20 0xFFFFFFFFFFFFFFFFFFFFFFFFFFFFFFFFFFFFFFFF AND PUSH4 0xD0E30DB0 CALLVALUE PUSH1 0x40 MLOAD DUP3 PUSH4 0xFFFFFFFF AND PUSH1 0xE0 SHL DUP2 MSTORE PUSH1 0x4 ADD PUSH1 0x0 PUSH1 0x40 MLOAD DUP1 DUP4 SUB DUP2 DUP6 DUP9 DUP1 EXTCODESIZE ISZERO DUP1 ISZERO PUSH2 0x284C JUMPI PUSH1 0x0 DUP1 REVERT JUMPDEST POP GAS CALL ISZERO DUP1 ISZERO PUSH2 0x2860 JUMPI RETURNDATASIZE PUSH1 0x0 DUP1 RETURNDATACOPY RETURNDATASIZE PUSH1 0x0 REVERT JUMPDEST POP POP POP POP POP PUSH32 0x0 PUSH20 0xFFFFFFFFFFFFFFFFFFFFFFFFFFFFFFFFFFFFFFFF AND PUSH4 0xA9059CBB PUSH2 0x28F4 PUSH32 0x0 DUP9 DUP9 PUSH1 0x0 DUP2 DUP2 LT PUSH2 0x28D2 JUMPI INVALID JUMPDEST SWAP1 POP PUSH1 0x20 MUL ADD PUSH1 0x20 DUP2 ADD SWAP1 PUSH2 0x28E7 SWAP2 SWAP1 PUSH2 0x4997 JUMP JUMPDEST DUP10 DUP10 PUSH1 0x1 DUP2 DUP2 LT PUSH2 0xA6C JUMPI INVALID JUMPDEST CALLVALUE PUSH1 0x40 MLOAD DUP4 PUSH4 0xFFFFFFFF AND PUSH1 0xE0 SHL DUP2 MSTORE PUSH1 0x4 ADD PUSH2 0x2912 SWAP3 SWAP2 SWAP1 PUSH2 0x4E86 JUMP JUMPDEST PUSH1 0x20 PUSH1 0x40 MLOAD DUP1 DUP4 SUB DUP2 PUSH1 0x0 DUP8 DUP1 EXTCODESIZE ISZERO DUP1 ISZERO PUSH2 0x292C JUMPI PUSH1 0x0 DUP1 REVERT JUMPDEST POP GAS CALL ISZERO DUP1 ISZERO PUSH2 0x2940 JUMPI RETURNDATASIZE PUSH1 0x0 DUP1 RETURNDATACOPY RETURNDATASIZE PUSH1 0x0 REVERT JUMPDEST POP POP POP POP PUSH1 0x40 MLOAD RETURNDATASIZE PUSH1 0x1F NOT PUSH1 0x1F DUP3 ADD AND DUP3 ADD DUP1 PUSH1 0x40 MSTORE POP DUP2 ADD SWAP1 PUSH2 0x2964 SWAP2 SWAP1 PUSH2 0x49B9 JUMP JUMPDEST PUSH2 0x296A JUMPI INVALID JUMPDEST PUSH1 0x0 DUP6 DUP6 PUSH32 0xFFFFFFFFFFFFFFFFFFFFFFFFFFFFFFFFFFFFFFFFFFFFFFFFFFFFFFFFFFFFFFFF DUP2 ADD DUP2 DUP2 LT PUSH2 0x299A JUMPI INVALID JUMPDEST SWAP1 POP PUSH1 0x20 MUL ADD PUSH1 0x20 DUP2 ADD SWAP1 PUSH2 0x29AF SWAP2 SWAP1 PUSH2 0x4997 JUMP JUMPDEST PUSH20 0xFFFFFFFFFFFFFFFFFFFFFFFFFFFFFFFFFFFFFFFF AND PUSH4 0x70A08231 DUP6 PUSH1 0x40 MLOAD DUP3 PUSH4 0xFFFFFFFF AND PUSH1 0xE0 SHL DUP2 MSTORE PUSH1 0x4 ADD PUSH2 0x29E7 SWAP2 SWAP1 PUSH2 0x4DE6 JUMP JUMPDEST PUSH1 0x20 PUSH1 0x40 MLOAD DUP1 DUP4 SUB DUP2 DUP7 DUP1 EXTCODESIZE ISZERO DUP1 ISZERO PUSH2 0x29FF JUMPI PUSH1 0x0 DUP1 REVERT JUMPDEST POP GAS STATICCALL ISZERO DUP1 ISZERO PUSH2 0x2A13 JUMPI RETURNDATASIZE PUSH1 0x0 DUP1 RETURNDATACOPY RETURNDATASIZE PUSH1 0x0 REVERT JUMPDEST POP POP POP POP PUSH1 0x40 MLOAD RETURNDATASIZE PUSH1 0x1F NOT PUSH1 0x1F DUP3 ADD AND DUP3 ADD DUP1 PUSH1 0x40 MSTORE POP DUP2 ADD SWAP1 PUSH2 0x2A37 SWAP2 SWAP1 PUSH2 0x4B68 JUMP JUMPDEST SWAP1 POP PUSH2 0x2A77 DUP7 DUP7 DUP1 DUP1 PUSH1 0x20 MUL PUSH1 0x20 ADD PUSH1 0x40 MLOAD SWAP1 DUP2 ADD PUSH1 0x40 MSTORE DUP1 SWAP4 SWAP3 SWAP2 SWAP1 DUP2 DUP2 MSTORE PUSH1 0x20 ADD DUP4 DUP4 PUSH1 0x20 MUL DUP1 DUP3 DUP5 CALLDATACOPY PUSH1 0x0 SWAP3 ADD SWAP2 SWAP1 SWAP2 MSTORE POP DUP9 SWAP3 POP PUSH2 0x38E3 SWAP2 POP POP JUMP JUMPDEST DUP7 PUSH2 0x2AAA DUP3 DUP9 DUP9 PUSH32 0xFFFFFFFFFFFFFFFFFFFFFFFFFFFFFFFFFFFFFFFFFFFFFFFFFFFFFFFFFFFFFFFF DUP2 ADD DUP2 DUP2 LT PUSH2 0xBCC JUMPI INVALID JUMPDEST LT ISZERO PUSH2 0x2AE2 JUMPI PUSH1 0x40 MLOAD PUSH32 0x8C379A000000000000000000000000000000000000000000000000000000000 DUP2 MSTORE PUSH1 0x4 ADD PUSH2 0x583 SWAP1 PUSH2 0x512B JUMP JUMPDEST POP POP POP POP POP POP POP JUMP JUMPDEST PUSH1 0x0 DUP2 TIMESTAMP DUP2 LT ISZERO PUSH2 0x2B28 JUMPI PUSH1 0x40 MLOAD PUSH32 0x8C379A000000000000000000000000000000000000000000000000000000000 DUP2 MSTORE PUSH1 0x4 ADD PUSH2 0x583 SWAP1 PUSH2 0x4F95 JUMP JUMPDEST PUSH20 0xFFFFFFFFFFFFFFFFFFFFFFFFFFFFFFFFFFFFFFFF PUSH32 0x0 AND PUSH2 0x2B6F PUSH1 0x40 DUP8 ADD PUSH1 0x20 DUP9 ADD PUSH2 0x4997 JUMP JUMPDEST PUSH20 0xFFFFFFFFFFFFFFFFFFFFFFFFFFFFFFFFFFFFFFFF AND EQ PUSH2 0x2BBC JUMPI PUSH1 0x40 MLOAD PUSH32 0x8C379A000000000000000000000000000000000000000000000000000000000 DUP2 MSTORE PUSH1 0x4 ADD PUSH2 0x583 SWAP1 PUSH2 0x5060 JUMP JUMPDEST PUSH1 0x0 DUP1 PUSH2 0x2BCA DUP8 ADDRESS DUP8 PUSH2 0x1339 JUMP JUMPDEST SWAP5 POP SWAP2 POP PUSH2 0x2BDB PUSH1 0x20 DUP9 ADD DUP9 PUSH2 0x4997 JUMP JUMPDEST PUSH20 0xFFFFFFFFFFFFFFFFFFFFFFFFFFFFFFFFFFFFFFFF AND PUSH4 0x70A08231 ADDRESS PUSH1 0x40 MLOAD DUP3 PUSH4 0xFFFFFFFF AND PUSH1 0xE0 SHL DUP2 MSTORE PUSH1 0x4 ADD PUSH2 0x2C13 SWAP2 SWAP1 PUSH2 0x4DE6 JUMP JUMPDEST PUSH1 0x20 PUSH1 0x40 MLOAD DUP1 DUP4 SUB DUP2 DUP7 DUP1 EXTCODESIZE ISZERO DUP1 ISZERO PUSH2 0x2C2B JUMPI PUSH1 0x0 DUP1 REVERT JUMPDEST POP GAS STATICCALL ISZERO DUP1 ISZERO PUSH2 0x2C3F JUMPI RETURNDATASIZE PUSH1 0x0 DUP1 RETURNDATACOPY RETURNDATASIZE PUSH1 0x0 REVERT JUMPDEST POP POP POP POP PUSH1 0x40 MLOAD RETURNDATASIZE PUSH1 0x1F NOT PUSH1 0x1F DUP3 ADD AND DUP3 ADD DUP1 PUSH1 0x40 MSTORE POP DUP2 ADD SWAP1 PUSH2 0x2C63 SWAP2 SWAP1 PUSH2 0x4B68 JUMP JUMPDEST SWAP1 POP DUP2 DUP2 LT ISZERO PUSH2 0x2C71 JUMPI DUP1 SWAP2 POP JUMPDEST PUSH2 0x2C88 PUSH2 0x2C81 PUSH1 0x20 DUP10 ADD DUP10 PUSH2 0x4997 JUMP JUMPDEST DUP8 DUP5 PUSH2 0x4188 JUMP JUMPDEST PUSH1 0x40 MLOAD PUSH32 0x2E1A7D4D00000000000000000000000000000000000000000000000000000000 DUP2 MSTORE PUSH20 0xFFFFFFFFFFFFFFFFFFFFFFFFFFFFFFFFFFFFFFFF PUSH32 0x0 AND SWAP1 PUSH4 0x2E1A7D4D SWAP1 PUSH2 0x2CFA SWAP1 DUP8 SWAP1 PUSH1 0x4 ADD PUSH2 0x5526 JUMP JUMPDEST PUSH1 0x0 PUSH1 0x40 MLOAD DUP1 DUP4 SUB DUP2 PUSH1 0x0 DUP8 DUP1 EXTCODESIZE ISZERO DUP1 ISZERO PUSH2 0x2D14 JUMPI PUSH1 0x0 DUP1 REVERT JUMPDEST POP GAS CALL ISZERO DUP1 ISZERO PUSH2 0x2D28 JUMPI RETURNDATASIZE PUSH1 0x0 DUP1 RETURNDATACOPY RETURNDATASIZE PUSH1 0x0 REVERT JUMPDEST POP POP POP POP PUSH2 0x2D36 DUP7 DUP6 PUSH2 0x3581 JUMP JUMPDEST POP POP POP SWAP4 SWAP3 POP POP POP JUMP JUMPDEST PUSH1 0x0 DUP1 PUSH2 0x2D50 DUP9 DUP8 DUP8 DUP8 DUP8 PUSH2 0x3EAE JUMP JUMPDEST PUSH2 0x26A5 DUP9 DUP9 DUP9 PUSH2 0x249A JUMP JUMPDEST PUSH1 0x60 PUSH2 0x53E PUSH32 0x0 DUP6 DUP6 DUP6 PUSH2 0x4347 JUMP JUMPDEST PUSH1 0x60 DUP2 TIMESTAMP DUP2 LT ISZERO PUSH2 0x2DC6 JUMPI PUSH1 0x40 MLOAD PUSH32 0x8C379A000000000000000000000000000000000000000000000000000000000 DUP2 MSTORE PUSH1 0x4 ADD PUSH2 0x583 SWAP1 PUSH2 0x4F95 JUMP JUMPDEST PUSH32 0x0 PUSH20 0xFFFFFFFFFFFFFFFFFFFFFFFFFFFFFFFFFFFFFFFF AND DUP7 DUP7 PUSH1 0x0 DUP2 DUP2 LT PUSH2 0x2E0A JUMPI INVALID JUMPDEST SWAP1 POP PUSH1 0x20 MUL ADD PUSH1 0x20 DUP2 ADD SWAP1 PUSH2 0x2E1F SWAP2 SWAP1 PUSH2 0x4997 JUMP JUMPDEST PUSH20 0xFFFFFFFFFFFFFFFFFFFFFFFFFFFFFFFFFFFFFFFF AND EQ PUSH2 0x2E6C JUMPI PUSH1 0x40 MLOAD PUSH32 0x8C379A000000000000000000000000000000000000000000000000000000000 DUP2 MSTORE PUSH1 0x4 ADD PUSH2 0x583 SWAP1 PUSH2 0x4F5E JUMP JUMPDEST PUSH1 0x0 DUP1 PUSH2 0x2E9B PUSH32 0x0 DUP11 DUP11 DUP11 PUSH2 0x3AE0 JUMP JUMPDEST DUP1 SWAP6 POP DUP2 SWAP4 POP POP POP DUP4 PUSH1 0x0 DUP2 MLOAD DUP2 LT PUSH2 0x2EB0 JUMPI INVALID JUMPDEST PUSH1 0x20 MUL PUSH1 0x20 ADD ADD MLOAD SWAP1 POP CALLVALUE DUP2 GT ISZERO PUSH2 0x2EF4 JUMPI PUSH1 0x40 MLOAD PUSH32 0x8C379A000000000000000000000000000000000000000000000000000000000 DUP2 MSTORE PUSH1 0x4 ADD PUSH2 0x583 SWAP1 PUSH2 0x521C JUMP JUMPDEST PUSH32 0x0 PUSH20 0xFFFFFFFFFFFFFFFFFFFFFFFFFFFFFFFFFFFFFFFF AND PUSH4 0xD0E30DB0 DUP3 PUSH1 0x40 MLOAD DUP3 PUSH4 0xFFFFFFFF AND PUSH1 0xE0 SHL DUP2 MSTORE PUSH1 0x4 ADD PUSH1 0x0 PUSH1 0x40 MLOAD DUP1 DUP4 SUB DUP2 DUP6 DUP9 DUP1 EXTCODESIZE ISZERO DUP1 ISZERO PUSH2 0x2F5C JUMPI PUSH1 0x0 DUP1 REVERT JUMPDEST POP GAS CALL ISZERO DUP1 ISZERO PUSH2 0x2F70 JUMPI RETURNDATASIZE PUSH1 0x0 DUP1 RETURNDATACOPY RETURNDATASIZE PUSH1 0x0 REVERT JUMPDEST POP POP PUSH1 0x40 MLOAD PUSH32 0xA9059CBB00000000000000000000000000000000000000000000000000000000 DUP2 MSTORE PUSH20 0xFFFFFFFFFFFFFFFFFFFFFFFFFFFFFFFFFFFFFFFF PUSH32 0x0 AND SWAP4 POP PUSH4 0xA9059CBB SWAP3 POP PUSH2 0x2FE9 SWAP2 POP DUP6 SWAP1 DUP6 SWAP1 PUSH1 0x4 ADD PUSH2 0x4E86 JUMP JUMPDEST PUSH1 0x20 PUSH1 0x40 MLOAD DUP1 DUP4 SUB DUP2 PUSH1 0x0 DUP8 DUP1 EXTCODESIZE ISZERO DUP1 ISZERO PUSH2 0x3003 JUMPI PUSH1 0x0 DUP1 REVERT JUMPDEST POP GAS CALL ISZERO DUP1 ISZERO PUSH2 0x3017 JUMPI RETURNDATASIZE PUSH1 0x0 DUP1 RETURNDATACOPY RETURNDATASIZE PUSH1 0x0 REVERT JUMPDEST POP POP POP POP PUSH1 0x40 MLOAD RETURNDATASIZE PUSH1 0x1F NOT PUSH1 0x1F DUP3 ADD AND DUP3 ADD DUP1 PUSH1 0x40 MSTORE POP DUP2 ADD SWAP1 PUSH2 0x303B SWAP2 SWAP1 PUSH2 0x49B9 JUMP JUMPDEST PUSH2 0x3041 JUMPI INVALID JUMPDEST PUSH2 0x3080 DUP5 DUP10 DUP10 DUP1 DUP1 PUSH1 0x20 MUL PUSH1 0x20 ADD PUSH1 0x40 MLOAD SWAP1 DUP2 ADD PUSH1 0x40 MSTORE DUP1 SWAP4 SWAP3 SWAP2 SWAP1 DUP2 DUP2 MSTORE PUSH1 0x20 ADD DUP4 DUP4 PUSH1 0x20 MUL DUP1 DUP3 DUP5 CALLDATACOPY PUSH1 0x0 SWAP3 ADD SWAP2 SWAP1 SWAP2 MSTORE POP DUP12 SWAP3 POP PUSH2 0x33F7 SWAP2 POP POP JUMP JUMPDEST DUP1 CALLVALUE GT ISZERO PUSH2 0x3094 JUMPI PUSH2 0x3094 CALLER DUP3 CALLVALUE SUB PUSH2 0x3581 JUMP JUMPDEST POP POP POP SWAP6 SWAP5 POP POP POP POP POP JUMP JUMPDEST PUSH1 0x0 DUP1 DUP5 GT PUSH2 0x30DB JUMPI PUSH1 0x40 MLOAD PUSH32 0x8C379A000000000000000000000000000000000000000000000000000000000 DUP2 MSTORE PUSH1 0x4 ADD PUSH2 0x583 SWAP1 PUSH2 0x50CE JUMP JUMPDEST PUSH1 0x0 DUP4 GT DUP1 ISZERO PUSH2 0x30EB JUMPI POP PUSH1 0x0 DUP3 GT JUMPDEST PUSH2 0x3121 JUMPI PUSH1 0x40 MLOAD PUSH32 0x8C379A000000000000000000000000000000000000000000000000000000000 DUP2 MSTORE PUSH1 0x4 ADD PUSH2 0x583 SWAP1 PUSH2 0x5003 JUMP JUMPDEST PUSH1 0x0 PUSH2 0x312D DUP6 DUP5 PUSH2 0x3C56 JUMP JUMPDEST SWAP1 POP PUSH1 0x0 PUSH2 0x313B DUP6 DUP8 PUSH2 0x448D JUMP JUMPDEST SWAP1 POP DUP1 DUP3 DUP2 PUSH2 0x3146 JUMPI INVALID JUMPDEST DIV SWAP7 SWAP6 POP POP POP POP POP POP JUMP JUMPDEST PUSH1 0x0 PUSH1 0x60 PUSH1 0x2 DUP4 LT ISZERO PUSH2 0x3190 JUMPI PUSH1 0x40 MLOAD PUSH32 0x8C379A000000000000000000000000000000000000000000000000000000000 DUP2 MSTORE PUSH1 0x4 ADD PUSH2 0x583 SWAP1 PUSH2 0x51E5 JUMP JUMPDEST DUP3 PUSH8 0xFFFFFFFFFFFFFFFF DUP2 GT DUP1 ISZERO PUSH2 0x31A7 JUMPI PUSH1 0x0 DUP1 REVERT JUMPDEST POP PUSH1 0x40 MLOAD SWAP1 DUP1 DUP3 MSTORE DUP1 PUSH1 0x20 MUL PUSH1 0x20 ADD DUP3 ADD PUSH1 0x40 MSTORE DUP1 ISZERO PUSH2 0x31D1 JUMPI DUP2 PUSH1 0x20 ADD PUSH1 0x20 DUP3 MUL DUP1 CALLDATASIZE DUP4 CALLDATACOPY ADD SWAP1 POP JUMPDEST POP SWAP1 POP DUP5 DUP2 PUSH1 0x0 DUP2 MLOAD DUP2 LT PUSH2 0x31E2 JUMPI INVALID JUMPDEST PUSH1 0x20 MUL PUSH1 0x20 ADD ADD DUP2 DUP2 MSTORE POP POP PUSH1 0x0 JUMPDEST PUSH32 0xFFFFFFFFFFFFFFFFFFFFFFFFFFFFFFFFFFFFFFFFFFFFFFFFFFFFFFFFFFFFFFFF DUP5 ADD DUP2 LT ISZERO PUSH2 0x32C0 JUMPI PUSH1 0x0 DUP1 PUSH1 0x0 PUSH2 0x326E DUP11 DUP10 DUP10 DUP8 DUP2 DUP2 LT PUSH2 0x3230 JUMPI INVALID JUMPDEST SWAP1 POP PUSH1 0x20 MUL ADD PUSH1 0x20 DUP2 ADD SWAP1 PUSH2 0x3245 SWAP2 SWAP1 PUSH2 0x4997 JUMP JUMPDEST DUP11 DUP11 DUP9 PUSH1 0x1 ADD DUP2 DUP2 LT PUSH2 0x3254 JUMPI INVALID JUMPDEST SWAP1 POP PUSH1 0x20 MUL ADD PUSH1 0x20 DUP2 ADD SWAP1 PUSH2 0x3269 SWAP2 SWAP1 PUSH2 0x4997 JUMP JUMPDEST PUSH2 0x44CA JUMP JUMPDEST SWAP3 POP SWAP3 POP SWAP3 POP PUSH2 0x3292 DUP6 DUP6 DUP2 MLOAD DUP2 LT PUSH2 0x3283 JUMPI INVALID JUMPDEST PUSH1 0x20 MUL PUSH1 0x20 ADD ADD MLOAD DUP5 DUP5 PUSH2 0x30A0 JUMP JUMPDEST DUP6 DUP6 PUSH1 0x1 ADD DUP2 MLOAD DUP2 LT PUSH2 0x32A1 JUMPI INVALID JUMPDEST PUSH1 0x20 SWAP1 DUP2 MUL SWAP2 SWAP1 SWAP2 ADD ADD MSTORE DUP4 PUSH2 0x32B5 JUMPI DUP1 SWAP6 POP JUMPDEST POP POP POP PUSH1 0x1 ADD PUSH2 0x31F1 JUMP JUMPDEST POP SWAP5 POP SWAP5 SWAP3 POP POP POP JUMP JUMPDEST PUSH1 0x0 PUSH1 0x60 DUP6 PUSH20 0xFFFFFFFFFFFFFFFFFFFFFFFFFFFFFFFFFFFFFFFF AND PUSH4 0x23B872DD DUP7 DUP7 DUP7 PUSH1 0x40 MLOAD PUSH1 0x24 ADD PUSH2 0x32FF SWAP4 SWAP3 SWAP2 SWAP1 PUSH2 0x4E55 JUMP JUMPDEST PUSH1 0x40 MLOAD PUSH1 0x20 DUP2 DUP4 SUB SUB DUP2 MSTORE SWAP1 PUSH1 0x40 MSTORE SWAP1 PUSH1 0xE0 SHL PUSH1 0x20 DUP3 ADD DUP1 MLOAD PUSH28 0xFFFFFFFFFFFFFFFFFFFFFFFFFFFFFFFFFFFFFFFFFFFFFFFFFFFFFFFF DUP4 DUP2 DUP4 AND OR DUP4 MSTORE POP POP POP POP PUSH1 0x40 MLOAD PUSH2 0x334D SWAP2 SWAP1 PUSH2 0x4D49 JUMP JUMPDEST PUSH1 0x0 PUSH1 0x40 MLOAD DUP1 DUP4 SUB DUP2 PUSH1 0x0 DUP7 GAS CALL SWAP2 POP POP RETURNDATASIZE DUP1 PUSH1 0x0 DUP2 EQ PUSH2 0x338A JUMPI PUSH1 0x40 MLOAD SWAP2 POP PUSH1 0x1F NOT PUSH1 0x3F RETURNDATASIZE ADD AND DUP3 ADD PUSH1 0x40 MSTORE RETURNDATASIZE DUP3 MSTORE RETURNDATASIZE PUSH1 0x0 PUSH1 0x20 DUP5 ADD RETURNDATACOPY PUSH2 0x338F JUMP JUMPDEST PUSH1 0x60 SWAP2 POP JUMPDEST POP SWAP2 POP SWAP2 POP DUP2 DUP1 ISZERO PUSH2 0x33B9 JUMPI POP DUP1 MLOAD ISZERO DUP1 PUSH2 0x33B9 JUMPI POP DUP1 DUP1 PUSH1 0x20 ADD SWAP1 MLOAD DUP2 ADD SWAP1 PUSH2 0x33B9 SWAP2 SWAP1 PUSH2 0x49B9 JUMP JUMPDEST PUSH2 0x33EF JUMPI PUSH1 0x40 MLOAD PUSH32 0x8C379A000000000000000000000000000000000000000000000000000000000 DUP2 MSTORE PUSH1 0x4 ADD PUSH2 0x583 SWAP1 PUSH2 0x545B JUMP JUMPDEST POP POP POP POP POP POP JUMP JUMPDEST PUSH1 0x0 JUMPDEST PUSH1 0x1 DUP4 MLOAD SUB DUP2 LT ISZERO PUSH2 0x357B JUMPI PUSH1 0x0 DUP1 DUP5 DUP4 DUP2 MLOAD DUP2 LT PUSH2 0x3415 JUMPI INVALID JUMPDEST PUSH1 0x20 MUL PUSH1 0x20 ADD ADD MLOAD DUP6 DUP5 PUSH1 0x1 ADD DUP2 MLOAD DUP2 LT PUSH2 0x342C JUMPI INVALID JUMPDEST PUSH1 0x20 MUL PUSH1 0x20 ADD ADD MLOAD SWAP2 POP SWAP2 POP PUSH1 0x0 DUP7 DUP5 PUSH1 0x1 ADD DUP2 MLOAD DUP2 LT PUSH2 0x3449 JUMPI INVALID JUMPDEST PUSH1 0x20 MUL PUSH1 0x20 ADD ADD MLOAD SWAP1 POP PUSH1 0x0 PUSH1 0x2 DUP8 MLOAD SUB DUP6 LT PUSH2 0x3466 JUMPI DUP6 PUSH2 0x34A7 JUMP JUMPDEST PUSH2 0x34A7 PUSH32 0x0 DUP5 DUP10 DUP9 PUSH1 0x2 ADD DUP2 MLOAD DUP2 LT PUSH2 0x349A JUMPI INVALID JUMPDEST PUSH1 0x20 MUL PUSH1 0x20 ADD ADD MLOAD PUSH2 0x3868 JUMP JUMPDEST SWAP1 POP PUSH2 0x34D4 PUSH32 0x0 DUP6 DUP6 PUSH2 0x3868 JUMP JUMPDEST PUSH1 0x40 DUP1 MLOAD PUSH1 0x0 DUP2 MSTORE PUSH1 0x20 DUP2 ADD SWAP2 DUP3 SWAP1 MSTORE PUSH32 0x1C6DA72400000000000000000000000000000000000000000000000000000000 SWAP1 SWAP2 MSTORE PUSH20 0xFFFFFFFFFFFFFFFFFFFFFFFFFFFFFFFFFFFFFFFF SWAP2 SWAP1 SWAP2 AND SWAP1 PUSH4 0x1C6DA724 SWAP1 PUSH2 0x3539 SWAP1 DUP6 SWAP1 DUP6 SWAP1 PUSH1 0x24 DUP2 ADD PUSH2 0x552F JUMP JUMPDEST PUSH1 0x0 PUSH1 0x40 MLOAD DUP1 DUP4 SUB DUP2 PUSH1 0x0 DUP8 DUP1 EXTCODESIZE ISZERO DUP1 ISZERO PUSH2 0x3553 JUMPI PUSH1 0x0 DUP1 REVERT JUMPDEST POP GAS CALL ISZERO DUP1 ISZERO PUSH2 0x3567 JUMPI RETURNDATASIZE PUSH1 0x0 DUP1 RETURNDATACOPY RETURNDATASIZE PUSH1 0x0 REVERT JUMPDEST POP POP PUSH1 0x1 SWAP1 SWAP7 ADD SWAP6 POP PUSH2 0x33FA SWAP5 POP POP POP POP POP JUMP JUMPDEST POP POP POP POP JUMP JUMPDEST PUSH1 0x40 DUP1 MLOAD PUSH1 0x0 DUP1 DUP3 MSTORE PUSH1 0x20 DUP3 ADD SWAP1 SWAP3 MSTORE PUSH20 0xFFFFFFFFFFFFFFFFFFFFFFFFFFFFFFFFFFFFFFFF DUP5 AND SWAP1 DUP4 SWAP1 PUSH1 0x40 MLOAD PUSH2 0x35B8 SWAP2 SWAP1 PUSH2 0x4D49 JUMP JUMPDEST PUSH1 0x0 PUSH1 0x40 MLOAD DUP1 DUP4 SUB DUP2 DUP6 DUP8 GAS CALL SWAP3 POP POP POP RETURNDATASIZE DUP1 PUSH1 0x0 DUP2 EQ PUSH2 0x35F5 JUMPI PUSH1 0x40 MLOAD SWAP2 POP PUSH1 0x1F NOT PUSH1 0x3F RETURNDATASIZE ADD AND DUP3 ADD PUSH1 0x40 MSTORE RETURNDATASIZE DUP3 MSTORE RETURNDATASIZE PUSH1 0x0 PUSH1 0x20 DUP5 ADD RETURNDATACOPY PUSH2 0x35FA JUMP JUMPDEST PUSH1 0x60 SWAP2 POP JUMPDEST POP POP SWAP1 POP DUP1 PUSH2 0x3635 JUMPI PUSH1 0x40 MLOAD PUSH32 0x8C379A000000000000000000000000000000000000000000000000000000000 DUP2 MSTORE PUSH1 0x4 ADD PUSH2 0x583 SWAP1 PUSH2 0x530D JUMP JUMPDEST POP POP POP JUMP JUMPDEST PUSH1 0x60 PUSH1 0x2 DUP3 LT ISZERO PUSH2 0x3677 JUMPI PUSH1 0x40 MLOAD PUSH32 0x8C379A000000000000000000000000000000000000000000000000000000000 DUP2 MSTORE PUSH1 0x4 ADD PUSH2 0x583 SWAP1 PUSH2 0x51E5 JUMP JUMPDEST DUP2 PUSH8 0xFFFFFFFFFFFFFFFF DUP2 GT DUP1 ISZERO PUSH2 0x368E JUMPI PUSH1 0x0 DUP1 REVERT JUMPDEST POP PUSH1 0x40 MLOAD SWAP1 DUP1 DUP3 MSTORE DUP1 PUSH1 0x20 MUL PUSH1 0x20 ADD DUP3 ADD PUSH1 0x40 MSTORE DUP1 ISZERO PUSH2 0x36B8 JUMPI DUP2 PUSH1 0x20 ADD PUSH1 0x20 DUP3 MUL DUP1 CALLDATASIZE DUP4 CALLDATACOPY ADD SWAP1 POP JUMPDEST POP SWAP1 POP DUP4 DUP2 PUSH1 0x1 DUP4 MLOAD SUB DUP2 MLOAD DUP2 LT PUSH2 0x36CC JUMPI INVALID JUMPDEST PUSH1 0x20 SWAP1 DUP2 MUL SWAP2 SWAP1 SWAP2 ADD ADD MSTORE PUSH32 0xFFFFFFFFFFFFFFFFFFFFFFFFFFFFFFFFFFFFFFFFFFFFFFFFFFFFFFFFFFFFFFFF DUP3 ADD JUMPDEST DUP1 ISZERO PUSH2 0x37B8 JUMPI PUSH1 0x0 DUP1 PUSH2 0x3752 DUP9 DUP8 DUP8 PUSH1 0x1 DUP8 SUB DUP2 DUP2 LT PUSH2 0x3717 JUMPI INVALID JUMPDEST SWAP1 POP PUSH1 0x20 MUL ADD PUSH1 0x20 DUP2 ADD SWAP1 PUSH2 0x372C SWAP2 SWAP1 PUSH2 0x4997 JUMP JUMPDEST DUP9 DUP9 DUP8 DUP2 DUP2 LT PUSH2 0x3738 JUMPI INVALID JUMPDEST SWAP1 POP PUSH1 0x20 MUL ADD PUSH1 0x20 DUP2 ADD SWAP1 PUSH2 0x374D SWAP2 SWAP1 PUSH2 0x4997 JUMP JUMPDEST PUSH2 0x46F6 JUMP JUMPDEST POP SWAP2 POP SWAP2 POP PUSH2 0x3775 DUP5 DUP5 DUP2 MLOAD DUP2 LT PUSH2 0x3766 JUMPI INVALID JUMPDEST PUSH1 0x20 MUL PUSH1 0x20 ADD ADD MLOAD DUP4 DUP4 PUSH2 0x40D9 JUMP JUMPDEST DUP5 PUSH1 0x1 DUP6 SUB DUP2 MLOAD DUP2 LT PUSH2 0x3784 JUMPI INVALID JUMPDEST PUSH1 0x20 SWAP1 DUP2 MUL SWAP2 SWAP1 SWAP2 ADD ADD MSTORE POP POP PUSH32 0xFFFFFFFFFFFFFFFFFFFFFFFFFFFFFFFFFFFFFFFFFFFFFFFFFFFFFFFFFFFFFFFF ADD PUSH2 0x36FB JUMP JUMPDEST POP SWAP5 SWAP4 POP POP POP POP JUMP JUMPDEST PUSH1 0x2 DUP2 LT ISZERO PUSH2 0x37FC JUMPI PUSH1 0x40 MLOAD PUSH32 0x8C379A000000000000000000000000000000000000000000000000000000000 DUP2 MSTORE PUSH1 0x4 ADD PUSH2 0x583 SWAP1 PUSH2 0x51E5 JUMP JUMPDEST PUSH1 0x0 JUMPDEST PUSH32 0xFFFFFFFFFFFFFFFFFFFFFFFFFFFFFFFFFFFFFFFFFFFFFFFFFFFFFFFFFFFFFFFF DUP3 ADD DUP2 LT ISZERO PUSH2 0x357B JUMPI PUSH2 0x385D DUP5 DUP5 DUP5 DUP5 DUP2 DUP2 LT PUSH2 0x3839 JUMPI INVALID JUMPDEST SWAP1 POP PUSH1 0x20 MUL ADD PUSH1 0x20 DUP2 ADD SWAP1 PUSH2 0x384E SWAP2 SWAP1 PUSH2 0x4997 JUMP JUMPDEST DUP6 DUP6 DUP6 PUSH1 0x1 ADD DUP2 DUP2 LT PUSH2 0x3254 JUMPI INVALID JUMPDEST POP POP POP PUSH1 0x1 ADD PUSH2 0x37FF JUMP JUMPDEST PUSH1 0x0 DUP4 DUP4 DUP4 PUSH1 0x40 MLOAD PUSH1 0x20 ADD PUSH2 0x387E SWAP3 SWAP2 SWAP1 PUSH2 0x4D0F JUMP JUMPDEST PUSH1 0x40 MLOAD PUSH1 0x20 DUP2 DUP4 SUB SUB DUP2 MSTORE SWAP1 PUSH1 0x40 MSTORE DUP1 MLOAD SWAP1 PUSH1 0x20 ADD KECCAK256 PUSH1 0x40 MLOAD PUSH1 0x20 ADD PUSH2 0x38A5 SWAP3 SWAP2 SWAP1 PUSH2 0x4D65 JUMP JUMPDEST PUSH1 0x40 DUP1 MLOAD PUSH32 0xFFFFFFFFFFFFFFFFFFFFFFFFFFFFFFFFFFFFFFFFFFFFFFFFFFFFFFFFFFFFFFE0 DUP2 DUP5 SUB ADD DUP2 MSTORE SWAP2 SWAP1 MSTORE DUP1 MLOAD PUSH1 0x20 SWAP1 SWAP2 ADD KECCAK256 SWAP5 SWAP4 POP POP POP POP JUMP JUMPDEST PUSH1 0x0 JUMPDEST PUSH1 0x1 DUP4 MLOAD SUB DUP2 LT ISZERO PUSH2 0x3635 JUMPI PUSH1 0x0 DUP1 DUP5 DUP4 DUP2 MLOAD DUP2 LT PUSH2 0x3901 JUMPI INVALID JUMPDEST PUSH1 0x20 MUL PUSH1 0x20 ADD ADD MLOAD DUP6 DUP5 PUSH1 0x1 ADD DUP2 MLOAD DUP2 LT PUSH2 0x3918 JUMPI INVALID JUMPDEST PUSH1 0x20 MUL PUSH1 0x20 ADD ADD MLOAD SWAP2 POP SWAP2 POP PUSH1 0x0 DUP1 PUSH1 0x0 PUSH2 0x3954 PUSH32 0x0 DUP7 DUP7 PUSH2 0x4851 JUMP JUMPDEST SWAP3 POP SWAP3 POP SWAP3 POP PUSH1 0x0 PUSH2 0x3999 DUP5 DUP8 PUSH20 0xFFFFFFFFFFFFFFFFFFFFFFFFFFFFFFFFFFFFFFFF AND PUSH4 0x70A08231 DUP6 PUSH1 0x40 MLOAD DUP3 PUSH4 0xFFFFFFFF AND PUSH1 0xE0 SHL DUP2 MSTORE PUSH1 0x4 ADD PUSH2 0xC19 SWAP2 SWAP1 PUSH2 0x4DE6 JUMP JUMPDEST SWAP1 POP PUSH1 0x0 PUSH2 0x39A8 DUP3 DUP7 DUP7 PUSH2 0x30A0 JUMP JUMPDEST SWAP1 POP PUSH1 0x0 PUSH1 0x2 DUP12 MLOAD SUB DUP10 LT PUSH2 0x39BD JUMPI DUP10 PUSH2 0x39F1 JUMP JUMPDEST PUSH2 0x39F1 PUSH32 0x0 DUP9 DUP14 DUP13 PUSH1 0x2 ADD DUP2 MLOAD DUP2 LT PUSH2 0x349A JUMPI INVALID JUMPDEST PUSH1 0x40 DUP1 MLOAD PUSH1 0x0 DUP2 MSTORE PUSH1 0x20 DUP2 ADD SWAP2 DUP3 SWAP1 MSTORE PUSH32 0x1C6DA72400000000000000000000000000000000000000000000000000000000 SWAP1 SWAP2 MSTORE SWAP1 SWAP2 POP PUSH20 0xFFFFFFFFFFFFFFFFFFFFFFFFFFFFFFFFFFFFFFFF DUP6 AND SWAP1 PUSH4 0x1C6DA724 SWAP1 PUSH2 0x3A57 SWAP1 DUP6 SWAP1 DUP6 SWAP1 PUSH1 0x24 DUP2 ADD PUSH2 0x552F JUMP JUMPDEST PUSH1 0x0 PUSH1 0x40 MLOAD DUP1 DUP4 SUB DUP2 PUSH1 0x0 DUP8 DUP1 EXTCODESIZE ISZERO DUP1 ISZERO PUSH2 0x3A71 JUMPI PUSH1 0x0 DUP1 REVERT JUMPDEST POP GAS CALL ISZERO DUP1 ISZERO PUSH2 0x3A85 JUMPI RETURNDATASIZE PUSH1 0x0 DUP1 RETURNDATACOPY RETURNDATASIZE PUSH1 0x0 REVERT JUMPDEST POP POP PUSH1 0x1 SWAP1 SWAP11 ADD SWAP10 POP PUSH2 0x38E6 SWAP9 POP POP POP POP POP POP POP POP POP JUMP JUMPDEST DUP1 DUP3 SUB DUP3 DUP2 GT ISZERO PUSH2 0x3ADA JUMPI PUSH1 0x40 MLOAD PUSH32 0x8C379A000000000000000000000000000000000000000000000000000000000 DUP2 MSTORE PUSH1 0x4 ADD PUSH2 0x583 SWAP1 PUSH2 0x4EF0 JUMP JUMPDEST SWAP3 SWAP2 POP POP JUMP JUMPDEST PUSH1 0x0 PUSH1 0x60 PUSH1 0x2 DUP4 LT ISZERO PUSH2 0x3B1F JUMPI PUSH1 0x40 MLOAD PUSH32 0x8C379A000000000000000000000000000000000000000000000000000000000 DUP2 MSTORE PUSH1 0x4 ADD PUSH2 0x583 SWAP1 PUSH2 0x51E5 JUMP JUMPDEST DUP3 PUSH8 0xFFFFFFFFFFFFFFFF DUP2 GT DUP1 ISZERO PUSH2 0x3B36 JUMPI PUSH1 0x0 DUP1 REVERT JUMPDEST POP PUSH1 0x40 MLOAD SWAP1 DUP1 DUP3 MSTORE DUP1 PUSH1 0x20 MUL PUSH1 0x20 ADD DUP3 ADD PUSH1 0x40 MSTORE DUP1 ISZERO PUSH2 0x3B60 JUMPI DUP2 PUSH1 0x20 ADD PUSH1 0x20 DUP3 MUL DUP1 CALLDATASIZE DUP4 CALLDATACOPY ADD SWAP1 POP JUMPDEST POP SWAP1 POP DUP5 DUP2 PUSH1 0x1 DUP4 MLOAD SUB DUP2 MLOAD DUP2 LT PUSH2 0x3B74 JUMPI INVALID JUMPDEST PUSH1 0x20 SWAP1 DUP2 MUL SWAP2 SWAP1 SWAP2 ADD ADD MSTORE PUSH1 0x0 DUP1 PUSH32 0xFFFFFFFFFFFFFFFFFFFFFFFFFFFFFFFFFFFFFFFFFFFFFFFFFFFFFFFFFFFFFFFF DUP6 ADD JUMPDEST DUP1 ISZERO PUSH2 0x3C4A JUMPI PUSH2 0x3BE0 DUP10 DUP9 DUP9 PUSH1 0x1 DUP6 SUB DUP2 DUP2 LT PUSH2 0x3BBF JUMPI INVALID JUMPDEST SWAP1 POP PUSH1 0x20 MUL ADD PUSH1 0x20 DUP2 ADD SWAP1 PUSH2 0x3BD4 SWAP2 SWAP1 PUSH2 0x4997 JUMP JUMPDEST DUP10 DUP10 DUP6 DUP2 DUP2 LT PUSH2 0x3254 JUMPI INVALID JUMPDEST DUP7 MLOAD SWAP1 SWAP8 POP SWAP2 SWAP5 POP SWAP3 POP PUSH2 0x3C09 SWAP1 DUP6 SWAP1 DUP4 SWAP1 DUP2 LT PUSH2 0x3BFA JUMPI INVALID JUMPDEST PUSH1 0x20 MUL PUSH1 0x20 ADD ADD MLOAD DUP5 DUP5 PUSH2 0x40D9 JUMP JUMPDEST DUP5 PUSH1 0x1 DUP4 SUB DUP2 MLOAD DUP2 LT PUSH2 0x3C18 JUMPI INVALID JUMPDEST PUSH1 0x20 SWAP1 DUP2 MUL SWAP2 SWAP1 SWAP2 ADD ADD MSTORE PUSH32 0xFFFFFFFFFFFFFFFFFFFFFFFFFFFFFFFFFFFFFFFFFFFFFFFFFFFFFFFFFFFFFFFF ADD PUSH2 0x3BA6 JUMP JUMPDEST POP POP POP SWAP5 POP SWAP5 SWAP3 POP POP POP JUMP JUMPDEST PUSH1 0x0 DUP2 ISZERO DUP1 PUSH2 0x3C71 JUMPI POP POP DUP1 DUP3 MUL DUP3 DUP3 DUP3 DUP2 PUSH2 0x3C6E JUMPI INVALID JUMPDEST DIV EQ JUMPDEST PUSH2 0x3ADA JUMPI PUSH1 0x40 MLOAD PUSH32 0x8C379A000000000000000000000000000000000000000000000000000000000 DUP2 MSTORE PUSH1 0x4 ADD PUSH2 0x583 SWAP1 PUSH2 0x4FCC JUMP JUMPDEST PUSH1 0x0 DUP1 PUSH1 0x0 PUSH2 0x3CD7 PUSH32 0x0 DUP11 DUP11 PUSH2 0x3868 JUMP JUMPDEST SWAP1 POP PUSH20 0xFFFFFFFFFFFFFFFFFFFFFFFFFFFFFFFFFFFFFFFF DUP2 AND PUSH2 0x3D26 JUMPI PUSH1 0x40 MLOAD PUSH32 0x8C379A000000000000000000000000000000000000000000000000000000000 DUP2 MSTORE PUSH1 0x4 ADD PUSH2 0x583 SWAP1 PUSH2 0x54B8 JUMP JUMPDEST PUSH1 0x0 DUP1 DUP3 PUSH20 0xFFFFFFFFFFFFFFFFFFFFFFFFFFFFFFFFFFFFFFFF AND PUSH4 0x902F1AC PUSH1 0x40 MLOAD DUP2 PUSH4 0xFFFFFFFF AND PUSH1 0xE0 SHL DUP2 MSTORE PUSH1 0x4 ADD PUSH1 0x60 PUSH1 0x40 MLOAD DUP1 DUP4 SUB DUP2 DUP7 DUP1 EXTCODESIZE ISZERO DUP1 ISZERO PUSH2 0x3D6F JUMPI PUSH1 0x0 DUP1 REVERT JUMPDEST POP GAS STATICCALL ISZERO DUP1 ISZERO PUSH2 0x3D83 JUMPI RETURNDATASIZE PUSH1 0x0 DUP1 RETURNDATACOPY RETURNDATASIZE PUSH1 0x0 REVERT JUMPDEST POP POP POP POP PUSH1 0x40 MLOAD RETURNDATASIZE PUSH1 0x1F NOT PUSH1 0x1F DUP3 ADD AND DUP3 ADD DUP1 PUSH1 0x40 MSTORE POP DUP2 ADD SWAP1 PUSH2 0x3DA7 SWAP2 SWAP1 PUSH2 0x4B14 JUMP JUMPDEST POP PUSH14 0xFFFFFFFFFFFFFFFFFFFFFFFFFFFF AND SWAP2 POP PUSH14 0xFFFFFFFFFFFFFFFFFFFFFFFFFFFF AND SWAP2 POP DUP2 PUSH1 0x0 EQ DUP1 ISZERO PUSH2 0x3DDA JUMPI POP DUP1 ISZERO JUMPDEST ISZERO PUSH2 0x3DEA JUMPI DUP9 SWAP5 POP DUP8 SWAP4 POP PUSH2 0x3EA0 JUMP JUMPDEST PUSH1 0x0 PUSH2 0x3DF7 DUP11 DUP5 DUP5 PUSH2 0x42AB JUMP JUMPDEST SWAP1 POP DUP9 DUP2 GT PUSH2 0x3E45 JUMPI DUP7 DUP2 LT ISZERO PUSH2 0x3E3A JUMPI PUSH1 0x40 MLOAD PUSH32 0x8C379A000000000000000000000000000000000000000000000000000000000 DUP2 MSTORE PUSH1 0x4 ADD PUSH2 0x583 SWAP1 PUSH2 0x54EF JUMP JUMPDEST DUP10 SWAP6 POP SWAP4 POP DUP4 PUSH2 0x3E9E JUMP JUMPDEST PUSH1 0x0 PUSH2 0x3E52 DUP11 DUP5 DUP7 PUSH2 0x42AB JUMP JUMPDEST SWAP1 POP DUP11 DUP2 GT ISZERO PUSH2 0x3E5E JUMPI INVALID JUMPDEST DUP9 DUP2 LT ISZERO PUSH2 0x3E98 JUMPI PUSH1 0x40 MLOAD PUSH32 0x8C379A000000000000000000000000000000000000000000000000000000000 DUP2 MSTORE PUSH1 0x4 ADD PUSH2 0x583 SWAP1 PUSH2 0x5424 JUMP JUMPDEST SWAP6 POP DUP9 SWAP5 POP JUMPDEST POP JUMPDEST POP POP SWAP7 POP SWAP7 POP SWAP7 SWAP4 POP POP POP POP JUMP JUMPDEST PUSH1 0x40 DUP3 ADD CALLDATALOAD ISZERO PUSH2 0x3FC0 JUMPI PUSH1 0x0 PUSH2 0x3EFB PUSH32 0x0 PUSH2 0x3EEB PUSH1 0x20 DUP10 ADD DUP10 PUSH2 0x4997 JUMP JUMPDEST PUSH2 0xA81 PUSH1 0x40 DUP11 ADD PUSH1 0x20 DUP12 ADD PUSH2 0x4997 JUMP JUMPDEST SWAP1 POP PUSH1 0x0 DUP5 PUSH2 0x3F0E JUMPI DUP7 PUSH1 0x40 ADD CALLDATALOAD PUSH2 0x3F30 JUMP JUMPDEST PUSH32 0xFFFFFFFFFFFFFFFFFFFFFFFFFFFFFFFFFFFFFFFFFFFFFFFFFFFFFFFFFFFFFFFF JUMPDEST SWAP1 POP PUSH20 0xFFFFFFFFFFFFFFFFFFFFFFFFFFFFFFFFFFFFFFFF DUP3 AND PUSH4 0xD505ACCF CALLER ADDRESS DUP5 DUP11 PUSH2 0x3F5F PUSH1 0x20 DUP12 ADD DUP12 PUSH2 0x4CEE JUMP JUMPDEST DUP11 PUSH1 0x20 ADD CALLDATALOAD DUP12 PUSH1 0x40 ADD CALLDATALOAD PUSH1 0x40 MLOAD DUP9 PUSH4 0xFFFFFFFF AND PUSH1 0xE0 SHL DUP2 MSTORE PUSH1 0x4 ADD PUSH2 0x3F8B SWAP8 SWAP7 SWAP6 SWAP5 SWAP4 SWAP3 SWAP2 SWAP1 PUSH2 0x4E07 JUMP JUMPDEST PUSH1 0x0 PUSH1 0x40 MLOAD DUP1 DUP4 SUB DUP2 PUSH1 0x0 DUP8 DUP1 EXTCODESIZE ISZERO DUP1 ISZERO PUSH2 0x3FA5 JUMPI PUSH1 0x0 DUP1 REVERT JUMPDEST POP GAS CALL ISZERO DUP1 ISZERO PUSH2 0x3FB9 JUMPI RETURNDATASIZE PUSH1 0x0 DUP1 RETURNDATACOPY RETURNDATASIZE PUSH1 0x0 REVERT JUMPDEST POP POP POP POP POP POP JUMPDEST PUSH1 0x40 DUP2 ADD CALLDATALOAD ISZERO PUSH2 0x40D2 JUMPI PUSH1 0x0 PUSH2 0x400D PUSH32 0x0 PUSH2 0x4000 PUSH1 0x40 DUP10 ADD PUSH1 0x20 DUP11 ADD PUSH2 0x4997 JUMP JUMPDEST PUSH2 0xA81 PUSH1 0x20 DUP11 ADD DUP11 PUSH2 0x4997 JUMP JUMPDEST SWAP1 POP PUSH1 0x0 DUP5 PUSH2 0x4020 JUMPI DUP7 PUSH1 0x60 ADD CALLDATALOAD PUSH2 0x4042 JUMP JUMPDEST PUSH32 0xFFFFFFFFFFFFFFFFFFFFFFFFFFFFFFFFFFFFFFFFFFFFFFFFFFFFFFFFFFFFFFFF JUMPDEST SWAP1 POP PUSH20 0xFFFFFFFFFFFFFFFFFFFFFFFFFFFFFFFFFFFFFFFF DUP3 AND PUSH4 0xD505ACCF CALLER ADDRESS DUP5 DUP11 PUSH2 0x4071 PUSH1 0x20 DUP11 ADD DUP11 PUSH2 0x4CEE JUMP JUMPDEST DUP10 PUSH1 0x20 ADD CALLDATALOAD DUP11 PUSH1 0x40 ADD CALLDATALOAD PUSH1 0x40 MLOAD DUP9 PUSH4 0xFFFFFFFF AND PUSH1 0xE0 SHL DUP2 MSTORE PUSH1 0x4 ADD PUSH2 0x409D SWAP8 SWAP7 SWAP6 SWAP5 SWAP4 SWAP3 SWAP2 SWAP1 PUSH2 0x4E07 JUMP JUMPDEST PUSH1 0x0 PUSH1 0x40 MLOAD DUP1 DUP4 SUB DUP2 PUSH1 0x0 DUP8 DUP1 EXTCODESIZE ISZERO DUP1 ISZERO PUSH2 0x40B7 JUMPI PUSH1 0x0 DUP1 REVERT JUMPDEST POP GAS CALL ISZERO DUP1 ISZERO PUSH2 0x40CB JUMPI RETURNDATASIZE PUSH1 0x0 DUP1 RETURNDATACOPY RETURNDATASIZE PUSH1 0x0 REVERT JUMPDEST POP POP POP POP POP POP JUMPDEST POP POP POP POP POP JUMP JUMPDEST PUSH1 0x0 DUP1 DUP5 GT PUSH2 0x4114 JUMPI PUSH1 0x40 MLOAD PUSH32 0x8C379A000000000000000000000000000000000000000000000000000000000 DUP2 MSTORE PUSH1 0x4 ADD PUSH2 0x583 SWAP1 PUSH2 0x536A JUMP JUMPDEST PUSH1 0x0 DUP4 GT DUP1 ISZERO PUSH2 0x4124 JUMPI POP PUSH1 0x0 DUP3 GT JUMPDEST PUSH2 0x415A JUMPI PUSH1 0x40 MLOAD PUSH32 0x8C379A000000000000000000000000000000000000000000000000000000000 DUP2 MSTORE PUSH1 0x4 ADD PUSH2 0x583 SWAP1 PUSH2 0x5003 JUMP JUMPDEST PUSH1 0x0 PUSH2 0x4166 DUP5 DUP7 PUSH2 0x3C56 JUMP JUMPDEST SWAP1 POP PUSH1 0x0 PUSH2 0x4174 DUP5 DUP8 PUSH2 0x3A9D JUMP JUMPDEST SWAP1 POP DUP1 PUSH2 0x4181 DUP4 DUP3 PUSH2 0x448D JUMP JUMPDEST DUP2 PUSH2 0x3146 JUMPI INVALID JUMPDEST PUSH1 0x0 PUSH1 0x60 DUP5 PUSH20 0xFFFFFFFFFFFFFFFFFFFFFFFFFFFFFFFFFFFFFFFF AND PUSH4 0xA9059CBB DUP6 DUP6 PUSH1 0x40 MLOAD PUSH1 0x24 ADD PUSH2 0x41BB SWAP3 SWAP2 SWAP1 PUSH2 0x4E86 JUMP JUMPDEST PUSH1 0x40 MLOAD PUSH1 0x20 DUP2 DUP4 SUB SUB DUP2 MSTORE SWAP1 PUSH1 0x40 MSTORE SWAP1 PUSH1 0xE0 SHL PUSH1 0x20 DUP3 ADD DUP1 MLOAD PUSH28 0xFFFFFFFFFFFFFFFFFFFFFFFFFFFFFFFFFFFFFFFFFFFFFFFFFFFFFFFF DUP4 DUP2 DUP4 AND OR DUP4 MSTORE POP POP POP POP PUSH1 0x40 MLOAD PUSH2 0x4209 SWAP2 SWAP1 PUSH2 0x4D49 JUMP JUMPDEST PUSH1 0x0 PUSH1 0x40 MLOAD DUP1 DUP4 SUB DUP2 PUSH1 0x0 DUP7 GAS CALL SWAP2 POP POP RETURNDATASIZE DUP1 PUSH1 0x0 DUP2 EQ PUSH2 0x4246 JUMPI PUSH1 0x40 MLOAD SWAP2 POP PUSH1 0x1F NOT PUSH1 0x3F RETURNDATASIZE ADD AND DUP3 ADD PUSH1 0x40 MSTORE RETURNDATASIZE DUP3 MSTORE RETURNDATASIZE PUSH1 0x0 PUSH1 0x20 DUP5 ADD RETURNDATACOPY PUSH2 0x424B JUMP JUMPDEST PUSH1 0x60 SWAP2 POP JUMPDEST POP SWAP2 POP SWAP2 POP DUP2 DUP1 ISZERO PUSH2 0x4275 JUMPI POP DUP1 MLOAD ISZERO DUP1 PUSH2 0x4275 JUMPI POP DUP1 DUP1 PUSH1 0x20 ADD SWAP1 MLOAD DUP2 ADD SWAP1 PUSH2 0x4275 SWAP2 SWAP1 PUSH2 0x49B9 JUMP JUMPDEST PUSH2 0x40D2 JUMPI PUSH1 0x40 MLOAD PUSH32 0x8C379A000000000000000000000000000000000000000000000000000000000 DUP2 MSTORE PUSH1 0x4 ADD PUSH2 0x583 SWAP1 PUSH2 0x4F27 JUMP JUMPDEST PUSH1 0x0 DUP1 DUP5 GT PUSH2 0x42E6 JUMPI PUSH1 0x40 MLOAD PUSH32 0x8C379A000000000000000000000000000000000000000000000000000000000 DUP2 MSTORE PUSH1 0x4 ADD PUSH2 0x583 SWAP1 PUSH2 0x5188 JUMP JUMPDEST PUSH1 0x0 DUP4 GT DUP1 ISZERO PUSH2 0x42F6 JUMPI POP PUSH1 0x0 DUP3 GT JUMPDEST PUSH2 0x432C JUMPI PUSH1 0x40 MLOAD PUSH32 0x8C379A000000000000000000000000000000000000000000000000000000000 DUP2 MSTORE PUSH1 0x4 ADD PUSH2 0x583 SWAP1 PUSH2 0x5003 JUMP JUMPDEST DUP3 PUSH2 0x4337 DUP6 DUP5 PUSH2 0x3C56 JUMP JUMPDEST DUP2 PUSH2 0x433E JUMPI INVALID JUMPDEST DIV SWAP5 SWAP4 POP POP POP POP JUMP JUMPDEST PUSH1 0x60 PUSH1 0x2 DUP3 LT ISZERO PUSH2 0x4384 JUMPI PUSH1 0x40 MLOAD PUSH32 0x8C379A000000000000000000000000000000000000000000000000000000000 DUP2 MSTORE PUSH1 0x4 ADD PUSH2 0x583 SWAP1 PUSH2 0x51E5 JUMP JUMPDEST DUP2 PUSH8 0xFFFFFFFFFFFFFFFF DUP2 GT DUP1 ISZERO PUSH2 0x439B JUMPI PUSH1 0x0 DUP1 REVERT JUMPDEST POP PUSH1 0x40 MLOAD SWAP1 DUP1 DUP3 MSTORE DUP1 PUSH1 0x20 MUL PUSH1 0x20 ADD DUP3 ADD PUSH1 0x40 MSTORE DUP1 ISZERO PUSH2 0x43C5 JUMPI DUP2 PUSH1 0x20 ADD PUSH1 0x20 DUP3 MUL DUP1 CALLDATASIZE DUP4 CALLDATACOPY ADD SWAP1 POP JUMPDEST POP SWAP1 POP DUP4 DUP2 PUSH1 0x0 DUP2 MLOAD DUP2 LT PUSH2 0x43D6 JUMPI INVALID JUMPDEST PUSH1 0x20 MUL PUSH1 0x20 ADD ADD DUP2 DUP2 MSTORE POP POP PUSH1 0x0 JUMPDEST PUSH32 0xFFFFFFFFFFFFFFFFFFFFFFFFFFFFFFFFFFFFFFFFFFFFFFFFFFFFFFFFFFFFFFFF DUP4 ADD DUP2 LT ISZERO PUSH2 0x37B8 JUMPI PUSH1 0x0 DUP1 PUSH2 0x4446 DUP9 DUP8 DUP8 DUP7 DUP2 DUP2 LT PUSH2 0x4422 JUMPI INVALID JUMPDEST SWAP1 POP PUSH1 0x20 MUL ADD PUSH1 0x20 DUP2 ADD SWAP1 PUSH2 0x4437 SWAP2 SWAP1 PUSH2 0x4997 JUMP JUMPDEST DUP9 DUP9 DUP8 PUSH1 0x1 ADD DUP2 DUP2 LT PUSH2 0x3738 JUMPI INVALID JUMPDEST POP SWAP2 POP SWAP2 POP PUSH2 0x4469 DUP5 DUP5 DUP2 MLOAD DUP2 LT PUSH2 0x445A JUMPI INVALID JUMPDEST PUSH1 0x20 MUL PUSH1 0x20 ADD ADD MLOAD DUP4 DUP4 PUSH2 0x30A0 JUMP JUMPDEST DUP5 DUP5 PUSH1 0x1 ADD DUP2 MLOAD DUP2 LT PUSH2 0x4478 JUMPI INVALID JUMPDEST PUSH1 0x20 SWAP1 DUP2 MUL SWAP2 SWAP1 SWAP2 ADD ADD MSTORE POP POP PUSH1 0x1 ADD PUSH2 0x43E5 JUMP JUMPDEST DUP1 DUP3 ADD DUP3 DUP2 LT ISZERO PUSH2 0x3ADA JUMPI PUSH1 0x40 MLOAD PUSH32 0x8C379A000000000000000000000000000000000000000000000000000000000 DUP2 MSTORE PUSH1 0x4 ADD PUSH2 0x583 SWAP1 PUSH2 0x5097 JUMP JUMPDEST PUSH1 0x0 DUP1 PUSH1 0x0 PUSH2 0x44DA DUP7 DUP7 DUP7 PUSH2 0x4851 JUMP JUMPDEST DUP1 SWAP4 POP DUP2 SWAP5 POP DUP3 SWAP6 POP POP POP POP PUSH1 0x0 DUP2 PUSH20 0xFFFFFFFFFFFFFFFFFFFFFFFFFFFFFFFFFFFFFFFF AND PUSH4 0x39730CFC PUSH1 0x40 MLOAD DUP2 PUSH4 0xFFFFFFFF AND PUSH1 0xE0 SHL DUP2 MSTORE PUSH1 0x4 ADD PUSH1 0x20 PUSH1 0x40 MLOAD DUP1 DUP4 SUB DUP2 DUP7 DUP1 EXTCODESIZE ISZERO DUP1 ISZERO PUSH2 0x452E JUMPI PUSH1 0x0 DUP1 REVERT JUMPDEST POP GAS STATICCALL ISZERO DUP1 ISZERO PUSH2 0x4542 JUMPI RETURNDATASIZE PUSH1 0x0 DUP1 RETURNDATACOPY RETURNDATASIZE PUSH1 0x0 REVERT JUMPDEST POP POP POP POP PUSH1 0x40 MLOAD RETURNDATASIZE PUSH1 0x1F NOT PUSH1 0x1F DUP3 ADD AND DUP3 ADD DUP1 PUSH1 0x40 MSTORE POP DUP2 ADD SWAP1 PUSH2 0x4566 SWAP2 SWAP1 PUSH2 0x4B68 JUMP JUMPDEST SWAP1 POP PUSH1 0x0 DUP1 PUSH1 0x0 PUSH2 0x4578 DUP11 DUP10 DUP12 PUSH2 0x4851 JUMP JUMPDEST SWAP2 SWAP5 POP SWAP3 POP SWAP1 POP PUSH1 0x0 PUSH2 0x458B DUP9 DUP6 PUSH2 0x3C56 JUMP JUMPDEST SWAP1 POP PUSH1 0x0 PUSH2 0x4599 DUP9 DUP6 PUSH2 0x3C56 JUMP JUMPDEST SWAP1 POP PUSH2 0x45A5 DUP2 DUP8 PUSH2 0x3C56 JUMP JUMPDEST PUSH2 0x45B1 DUP4 PUSH2 0x2710 PUSH2 0x3C56 JUMP JUMPDEST GT ISZERO PUSH2 0x46E7 JUMPI PUSH2 0x45C1 DUP3 DUP3 PUSH2 0x3A9D JUMP JUMPDEST SWAP2 POP PUSH1 0x0 PUSH2 0x45DA PUSH1 0x2 PUSH2 0x45D4 DUP13 DUP9 PUSH2 0x448D JUMP JUMPDEST SWAP1 PUSH2 0x3C56 JUMP JUMPDEST SWAP1 POP PUSH1 0x0 PUSH2 0x45ED PUSH1 0x2 PUSH2 0x45D4 DUP13 DUP11 PUSH2 0x448D JUMP JUMPDEST SWAP1 POP PUSH2 0x4604 DUP14 DUP11 DUP8 DUP5 DUP9 DUP2 PUSH2 0x45FE JUMPI INVALID JUMPDEST DIV PUSH2 0x32CA JUMP JUMPDEST PUSH2 0x4613 DUP13 DUP7 DUP12 DUP6 DUP9 DUP2 PUSH2 0x45FE JUMPI INVALID JUMPDEST DUP9 PUSH20 0xFFFFFFFFFFFFFFFFFFFFFFFFFFFFFFFFFFFFFFFF AND PUSH4 0xFFF6CAE9 PUSH1 0x40 MLOAD DUP2 PUSH4 0xFFFFFFFF AND PUSH1 0xE0 SHL DUP2 MSTORE PUSH1 0x4 ADD PUSH1 0x0 PUSH1 0x40 MLOAD DUP1 DUP4 SUB DUP2 PUSH1 0x0 DUP8 DUP1 EXTCODESIZE ISZERO DUP1 ISZERO PUSH2 0x465B JUMPI PUSH1 0x0 DUP1 REVERT JUMPDEST POP GAS CALL ISZERO DUP1 ISZERO PUSH2 0x466F JUMPI RETURNDATASIZE PUSH1 0x0 DUP1 RETURNDATACOPY RETURNDATASIZE PUSH1 0x0 REVERT JUMPDEST POP POP POP POP DUP5 PUSH20 0xFFFFFFFFFFFFFFFFFFFFFFFFFFFFFFFFFFFFFFFF AND PUSH4 0xFFF6CAE9 PUSH1 0x40 MLOAD DUP2 PUSH4 0xFFFFFFFF AND PUSH1 0xE0 SHL DUP2 MSTORE PUSH1 0x4 ADD PUSH1 0x0 PUSH1 0x40 MLOAD DUP1 DUP4 SUB DUP2 PUSH1 0x0 DUP8 DUP1 EXTCODESIZE ISZERO DUP1 ISZERO PUSH2 0x46BB JUMPI PUSH1 0x0 DUP1 REVERT JUMPDEST POP GAS CALL ISZERO DUP1 ISZERO PUSH2 0x46CF JUMPI RETURNDATASIZE PUSH1 0x0 DUP1 RETURNDATACOPY RETURNDATASIZE PUSH1 0x0 REVERT JUMPDEST POP POP POP POP PUSH2 0x46DE DUP15 DUP15 DUP15 PUSH2 0x4851 JUMP JUMPDEST POP SWAP1 SWAP12 POP SWAP10 POP POP POP JUMPDEST POP POP POP POP POP POP SWAP4 POP SWAP4 POP SWAP4 SWAP1 POP JUMP JUMPDEST PUSH1 0x0 DUP1 PUSH1 0x0 PUSH2 0x4706 DUP7 DUP7 DUP7 PUSH2 0x4851 JUMP JUMPDEST DUP1 SWAP4 POP DUP2 SWAP5 POP DUP3 SWAP6 POP POP POP POP PUSH1 0x0 DUP2 PUSH20 0xFFFFFFFFFFFFFFFFFFFFFFFFFFFFFFFFFFFFFFFF AND PUSH4 0x39730CFC PUSH1 0x40 MLOAD DUP2 PUSH4 0xFFFFFFFF AND PUSH1 0xE0 SHL DUP2 MSTORE PUSH1 0x4 ADD PUSH1 0x20 PUSH1 0x40 MLOAD DUP1 DUP4 SUB DUP2 DUP7 DUP1 EXTCODESIZE ISZERO DUP1 ISZERO PUSH2 0x475A JUMPI PUSH1 0x0 DUP1 REVERT JUMPDEST POP GAS STATICCALL ISZERO DUP1 ISZERO PUSH2 0x476E JUMPI RETURNDATASIZE PUSH1 0x0 DUP1 RETURNDATACOPY RETURNDATASIZE PUSH1 0x0 REVERT JUMPDEST POP POP POP POP PUSH1 0x40 MLOAD RETURNDATASIZE PUSH1 0x1F NOT PUSH1 0x1F DUP3 ADD AND DUP3 ADD DUP1 PUSH1 0x40 MSTORE POP DUP2 ADD SWAP1 PUSH2 0x4792 SWAP2 SWAP1 PUSH2 0x4B68 JUMP JUMPDEST SWAP1 POP PUSH1 0x0 DUP1 PUSH2 0x47A2 DUP10 DUP9 DUP11 PUSH2 0x4851 JUMP JUMPDEST POP SWAP1 SWAP3 POP SWAP1 POP PUSH1 0x0 PUSH2 0x47B4 DUP8 DUP5 PUSH2 0x3C56 JUMP JUMPDEST SWAP1 POP PUSH1 0x0 PUSH2 0x47C2 DUP8 DUP5 PUSH2 0x3C56 JUMP JUMPDEST SWAP1 POP PUSH2 0x47CE DUP2 DUP7 PUSH2 0x3C56 JUMP JUMPDEST PUSH2 0x47DA DUP4 PUSH2 0x2710 PUSH2 0x3C56 JUMP JUMPDEST GT ISZERO PUSH2 0x4843 JUMPI PUSH2 0x47EA DUP3 DUP3 PUSH2 0x3A9D JUMP JUMPDEST SWAP2 POP PUSH1 0x0 PUSH2 0x47FD PUSH1 0x2 PUSH2 0x45D4 DUP12 DUP8 PUSH2 0x448D JUMP JUMPDEST SWAP1 POP PUSH1 0x0 PUSH2 0x4810 PUSH1 0x2 PUSH2 0x45D4 DUP12 DUP10 PUSH2 0x448D JUMP JUMPDEST SWAP1 POP PUSH2 0x4827 DUP2 DUP6 DUP2 PUSH2 0x481E JUMPI INVALID JUMPDEST DUP13 SWAP2 SWAP1 DIV PUSH2 0x3A9D JUMP JUMPDEST SWAP10 POP PUSH2 0x483E DUP3 DUP6 DUP2 PUSH2 0x4835 JUMPI INVALID JUMPDEST DUP12 SWAP2 SWAP1 DIV PUSH2 0x448D JUMP JUMPDEST SWAP9 POP POP POP JUMPDEST POP POP POP POP POP SWAP4 POP SWAP4 POP SWAP4 SWAP1 POP JUMP JUMPDEST PUSH1 0x0 DUP1 PUSH1 0x0 PUSH2 0x4861 DUP7 DUP7 DUP7 PUSH2 0x3868 JUMP JUMPDEST SWAP1 POP DUP1 PUSH20 0xFFFFFFFFFFFFFFFFFFFFFFFFFFFFFFFFFFFFFFFF AND PUSH4 0x902F1AC PUSH1 0x40 MLOAD DUP2 PUSH4 0xFFFFFFFF AND PUSH1 0xE0 SHL DUP2 MSTORE PUSH1 0x4 ADD PUSH1 0x60 PUSH1 0x40 MLOAD DUP1 DUP4 SUB DUP2 DUP7 DUP1 EXTCODESIZE ISZERO DUP1 ISZERO PUSH2 0x48A9 JUMPI PUSH1 0x0 DUP1 REVERT JUMPDEST POP GAS STATICCALL ISZERO DUP1 ISZERO PUSH2 0x48BD JUMPI RETURNDATASIZE PUSH1 0x0 DUP1 RETURNDATACOPY RETURNDATASIZE PUSH1 0x0 REVERT JUMPDEST POP POP POP POP PUSH1 0x40 MLOAD RETURNDATASIZE PUSH1 0x1F NOT PUSH1 0x1F DUP3 ADD AND DUP3 ADD DUP1 PUSH1 0x40 MSTORE POP DUP2 ADD SWAP1 PUSH2 0x48E1 SWAP2 SWAP1 PUSH2 0x4B14 JUMP JUMPDEST POP PUSH14 0xFFFFFFFFFFFFFFFFFFFFFFFFFFFF SWAP2 DUP3 AND SWAP9 SWAP2 AND SWAP7 POP SWAP1 SWAP5 POP SWAP3 POP POP POP JUMP JUMPDEST DUP1 CALLDATALOAD PUSH20 0xFFFFFFFFFFFFFFFFFFFFFFFFFFFFFFFFFFFFFFFF DUP2 AND DUP2 EQ PUSH2 0x3ADA JUMPI PUSH1 0x0 DUP1 REVERT JUMPDEST PUSH1 0x0 DUP1 DUP4 PUSH1 0x1F DUP5 ADD SLT PUSH2 0x4937 JUMPI DUP2 DUP3 REVERT JUMPDEST POP DUP2 CALLDATALOAD PUSH8 0xFFFFFFFFFFFFFFFF DUP2 GT ISZERO PUSH2 0x494E JUMPI DUP2 DUP3 REVERT JUMPDEST PUSH1 0x20 DUP4 ADD SWAP2 POP DUP4 PUSH1 0x20 DUP1 DUP4 MUL DUP6 ADD ADD GT ISZERO PUSH2 0x4968 JUMPI PUSH1 0x0 DUP1 REVERT JUMPDEST SWAP3 POP SWAP3 SWAP1 POP JUMP JUMPDEST PUSH1 0x0 PUSH1 0xC0 DUP3 DUP5 SUB SLT ISZERO PUSH2 0x4980 JUMPI DUP1 DUP2 REVERT JUMPDEST POP SWAP2 SWAP1 POP JUMP JUMPDEST PUSH1 0x0 PUSH1 0x60 DUP3 DUP5 SUB SLT ISZERO PUSH2 0x4980 JUMPI DUP1 DUP2 REVERT JUMPDEST PUSH1 0x0 PUSH1 0x20 DUP3 DUP5 SUB SLT ISZERO PUSH2 0x49A8 JUMPI DUP1 DUP2 REVERT JUMPDEST PUSH2 0x49B2 DUP4 DUP4 PUSH2 0x4902 JUMP JUMPDEST SWAP4 SWAP3 POP POP POP JUMP JUMPDEST PUSH1 0x0 PUSH1 0x20 DUP3 DUP5 SUB SLT ISZERO PUSH2 0x49CA JUMPI DUP1 DUP2 REVERT JUMPDEST DUP2 MLOAD PUSH2 0x49B2 DUP2 PUSH2 0x561E JUMP JUMPDEST PUSH1 0x0 DUP1 PUSH1 0x0 DUP4 DUP6 SUB PUSH1 0xE0 DUP2 SLT ISZERO PUSH2 0x49EA JUMPI DUP3 DUP4 REVERT JUMPDEST PUSH1 0xA0 DUP2 SLT ISZERO PUSH2 0x49F7 JUMPI DUP3 DUP4 REVERT JUMPDEST POP DUP4 SWAP3 POP PUSH1 0xA0 DUP5 ADD CALLDATALOAD PUSH2 0x4A09 DUP2 PUSH2 0x55F9 JUMP JUMPDEST SWAP3 SWAP6 SWAP3 SWAP5 POP POP POP PUSH1 0xC0 SWAP2 SWAP1 SWAP2 ADD CALLDATALOAD SWAP1 JUMP JUMPDEST PUSH1 0x0 DUP1 PUSH1 0x0 DUP4 DUP6 SUB PUSH2 0x120 DUP2 SLT ISZERO PUSH2 0x4A30 JUMPI DUP4 DUP5 REVERT JUMPDEST PUSH1 0xE0 DUP2 SLT ISZERO PUSH2 0x4A3D JUMPI DUP4 DUP5 REVERT JUMPDEST POP DUP4 SWAP3 POP PUSH2 0x4A4E DUP6 PUSH1 0xE0 DUP7 ADD PUSH2 0x4902 JUMP JUMPDEST SWAP2 POP PUSH2 0x100 DUP5 ADD CALLDATALOAD SWAP1 POP SWAP3 POP SWAP3 POP SWAP3 JUMP JUMPDEST PUSH1 0x0 DUP1 PUSH1 0x0 PUSH2 0x100 DUP5 DUP7 SUB SLT ISZERO PUSH2 0x4A74 JUMPI DUP3 DUP4 REVERT JUMPDEST PUSH2 0x4A7E DUP6 DUP6 PUSH2 0x496F JUMP JUMPDEST SWAP3 POP PUSH2 0x4A8D DUP6 PUSH1 0xC0 DUP7 ADD PUSH2 0x4902 JUMP JUMPDEST SWAP2 POP PUSH1 0xE0 DUP5 ADD CALLDATALOAD SWAP1 POP SWAP3 POP SWAP3 POP SWAP3 JUMP JUMPDEST PUSH1 0x0 DUP1 PUSH1 0x0 DUP1 PUSH1 0x0 DUP1 PUSH2 0x1E0 DUP8 DUP10 SUB SLT ISZERO PUSH2 0x4AB6 JUMPI DUP2 DUP3 REVERT JUMPDEST PUSH2 0x4AC0 DUP9 DUP9 PUSH2 0x496F JUMP JUMPDEST SWAP6 POP PUSH1 0xC0 DUP8 ADD CALLDATALOAD PUSH2 0x4AD0 DUP2 PUSH2 0x55F9 JUMP JUMPDEST SWAP5 POP PUSH1 0xE0 DUP8 ADD CALLDATALOAD SWAP4 POP PUSH2 0x100 DUP8 ADD CALLDATALOAD PUSH2 0x4AE8 DUP2 PUSH2 0x561E JUMP JUMPDEST SWAP3 POP PUSH2 0x4AF8 DUP9 PUSH2 0x120 DUP10 ADD PUSH2 0x4986 JUMP JUMPDEST SWAP2 POP PUSH2 0x4B08 DUP9 PUSH2 0x180 DUP10 ADD PUSH2 0x4986 JUMP JUMPDEST SWAP1 POP SWAP3 SWAP6 POP SWAP3 SWAP6 POP SWAP3 SWAP6 JUMP JUMPDEST PUSH1 0x0 DUP1 PUSH1 0x0 PUSH1 0x60 DUP5 DUP7 SUB SLT ISZERO PUSH2 0x4B28 JUMPI DUP3 DUP4 REVERT JUMPDEST DUP4 MLOAD PUSH2 0x4B33 DUP2 PUSH2 0x562C JUMP JUMPDEST PUSH1 0x20 DUP6 ADD MLOAD SWAP1 SWAP4 POP PUSH2 0x4B44 DUP2 PUSH2 0x562C JUMP JUMPDEST PUSH1 0x40 DUP6 ADD MLOAD SWAP1 SWAP3 POP PUSH4 0xFFFFFFFF DUP2 AND DUP2 EQ PUSH2 0x4B5D JUMPI DUP2 DUP3 REVERT JUMPDEST DUP1 SWAP2 POP POP SWAP3 POP SWAP3 POP SWAP3 JUMP JUMPDEST PUSH1 0x0 PUSH1 0x20 DUP3 DUP5 SUB SLT ISZERO PUSH2 0x4B79 JUMPI DUP1 DUP2 REVERT JUMPDEST POP MLOAD SWAP2 SWAP1 POP JUMP JUMPDEST PUSH1 0x0 DUP1 PUSH1 0x0 PUSH1 0x40 DUP5 DUP7 SUB SLT ISZERO PUSH2 0x4B94 JUMPI DUP3 DUP4 REVERT JUMPDEST DUP4 CALLDATALOAD SWAP3 POP PUSH1 0x20 DUP5 ADD CALLDATALOAD PUSH8 0xFFFFFFFFFFFFFFFF DUP2 GT ISZERO PUSH2 0x4BB1 JUMPI DUP3 DUP4 REVERT JUMPDEST PUSH2 0x4BBD DUP7 DUP3 DUP8 ADD PUSH2 0x4926 JUMP JUMPDEST SWAP5 SWAP8 SWAP1 SWAP7 POP SWAP4 SWAP5 POP POP POP POP JUMP JUMPDEST PUSH1 0x0 DUP1 PUSH1 0x0 DUP1 PUSH1 0x0 PUSH1 0x80 DUP7 DUP9 SUB SLT ISZERO PUSH2 0x4BE1 JUMPI DUP1 DUP2 REVERT JUMPDEST DUP6 CALLDATALOAD SWAP5 POP PUSH1 0x20 DUP7 ADD CALLDATALOAD PUSH8 0xFFFFFFFFFFFFFFFF DUP2 GT ISZERO PUSH2 0x4BFE JUMPI DUP2 DUP3 REVERT JUMPDEST PUSH2 0x4C0A DUP9 DUP3 DUP10 ADD PUSH2 0x4926 JUMP JUMPDEST SWAP1 SWAP6 POP SWAP4 POP POP PUSH1 0x40 DUP7 ADD CALLDATALOAD PUSH2 0x4C1E DUP2 PUSH2 0x55F9 JUMP JUMPDEST SWAP5 SWAP8 SWAP4 SWAP7 POP SWAP2 SWAP5 PUSH1 0x60 ADD CALLDATALOAD SWAP3 SWAP2 POP POP JUMP JUMPDEST PUSH1 0x0 DUP1 PUSH1 0x40 DUP4 DUP6 SUB SLT ISZERO PUSH2 0x4C41 JUMPI DUP2 DUP3 REVERT JUMPDEST POP POP DUP1 MLOAD PUSH1 0x20 SWAP1 SWAP2 ADD MLOAD SWAP1 SWAP3 SWAP1 SWAP2 POP JUMP JUMPDEST PUSH1 0x0 DUP1 PUSH1 0x0 DUP1 PUSH1 0x0 DUP1 PUSH1 0xA0 DUP8 DUP10 SUB SLT ISZERO PUSH2 0x4C6A JUMPI DUP4 DUP5 REVERT JUMPDEST DUP7 CALLDATALOAD SWAP6 POP PUSH1 0x20 DUP8 ADD CALLDATALOAD SWAP5 POP PUSH1 0x40 DUP8 ADD CALLDATALOAD PUSH8 0xFFFFFFFFFFFFFFFF DUP2 GT ISZERO PUSH2 0x4C8E JUMPI DUP5 DUP6 REVERT JUMPDEST PUSH2 0x4C9A DUP10 DUP3 DUP11 ADD PUSH2 0x4926 JUMP JUMPDEST SWAP1 SWAP6 POP SWAP4 POP POP PUSH1 0x60 DUP8 ADD CALLDATALOAD PUSH2 0x4CAE DUP2 PUSH2 0x55F9 JUMP JUMPDEST DUP1 SWAP3 POP POP PUSH1 0x80 DUP8 ADD CALLDATALOAD SWAP1 POP SWAP3 SWAP6 POP SWAP3 SWAP6 POP SWAP3 SWAP6 JUMP JUMPDEST PUSH1 0x0 DUP1 PUSH1 0x0 PUSH1 0x60 DUP5 DUP7 SUB SLT ISZERO PUSH2 0x4CD7 JUMPI DUP1 DUP2 REVERT JUMPDEST POP POP DUP2 CALLDATALOAD SWAP4 PUSH1 0x20 DUP4 ADD CALLDATALOAD SWAP4 POP PUSH1 0x40 SWAP1 SWAP3 ADD CALLDATALOAD SWAP2 SWAP1 POP JUMP JUMPDEST PUSH1 0x0 PUSH1 0x20 DUP3 DUP5 SUB SLT ISZERO PUSH2 0x4CFF JUMPI DUP1 DUP2 REVERT JUMPDEST DUP2 CALLDATALOAD PUSH1 0xFF DUP2 AND DUP2 EQ PUSH2 0x49B2 JUMPI DUP2 DUP3 REVERT JUMPDEST PUSH32 0xFFFFFFFFFFFFFFFFFFFFFFFFFFFFFFFFFFFFFFFF000000000000000000000000 PUSH1 0x60 SWAP4 DUP5 SHL DUP2 AND DUP3 MSTORE SWAP2 SWAP1 SWAP3 SHL AND PUSH1 0x14 DUP3 ADD MSTORE PUSH1 0x28 ADD SWAP1 JUMP JUMPDEST PUSH1 0x0 DUP3 MLOAD PUSH2 0x4D5B DUP2 DUP5 PUSH1 0x20 DUP8 ADD PUSH2 0x55CD JUMP JUMPDEST SWAP2 SWAP1 SWAP2 ADD SWAP3 SWAP2 POP POP JUMP JUMPDEST PUSH32 0xFF00000000000000000000000000000000000000000000000000000000000000 DUP2 MSTORE PUSH1 0x60 SWAP3 SWAP1 SWAP3 SHL PUSH32 0xFFFFFFFFFFFFFFFFFFFFFFFFFFFFFFFFFFFFFFFF000000000000000000000000 AND PUSH1 0x1 DUP4 ADD MSTORE PUSH1 0x15 DUP3 ADD MSTORE PUSH32 0x2A87956EC2F5E710FA13BBFE751D68112C843CDD501D3FCC9E744ADE9C32428 PUSH1 0x35 DUP3 ADD MSTORE PUSH1 0x55 ADD SWAP1 JUMP JUMPDEST PUSH20 0xFFFFFFFFFFFFFFFFFFFFFFFFFFFFFFFFFFFFFFFF SWAP2 SWAP1 SWAP2 AND DUP2 MSTORE PUSH1 0x20 ADD SWAP1 JUMP JUMPDEST PUSH20 0xFFFFFFFFFFFFFFFFFFFFFFFFFFFFFFFFFFFFFFFF SWAP8 DUP9 AND DUP2 MSTORE SWAP6 SWAP1 SWAP7 AND PUSH1 0x20 DUP7 ADD MSTORE PUSH1 0x40 DUP6 ADD SWAP4 SWAP1 SWAP4 MSTORE PUSH1 0x60 DUP5 ADD SWAP2 SWAP1 SWAP2 MSTORE PUSH1 0xFF AND PUSH1 0x80 DUP4 ADD MSTORE PUSH1 0xA0 DUP3 ADD MSTORE PUSH1 0xC0 DUP2 ADD SWAP2 SWAP1 SWAP2 MSTORE PUSH1 0xE0 ADD SWAP1 JUMP JUMPDEST PUSH20 0xFFFFFFFFFFFFFFFFFFFFFFFFFFFFFFFFFFFFFFFF SWAP4 DUP5 AND DUP2 MSTORE SWAP2 SWAP1 SWAP3 AND PUSH1 0x20 DUP3 ADD MSTORE PUSH1 0x40 DUP2 ADD SWAP2 SWAP1 SWAP2 MSTORE PUSH1 0x60 ADD SWAP1 JUMP JUMPDEST PUSH20 0xFFFFFFFFFFFFFFFFFFFFFFFFFFFFFFFFFFFFFFFF SWAP3 SWAP1 SWAP3 AND DUP3 MSTORE PUSH1 0x20 DUP3 ADD MSTORE PUSH1 0x40 ADD SWAP1 JUMP JUMPDEST PUSH1 0x20 DUP1 DUP3 MSTORE DUP3 MLOAD DUP3 DUP3 ADD DUP2 SWAP1 MSTORE PUSH1 0x0 SWAP2 SWAP1 DUP5 DUP3 ADD SWAP1 PUSH1 0x40 DUP6 ADD SWAP1 DUP5 JUMPDEST DUP2 DUP2 LT ISZERO PUSH2 0x4EE4 JUMPI DUP4 MLOAD DUP4 MSTORE SWAP3 DUP5 ADD SWAP3 SWAP2 DUP5 ADD SWAP2 PUSH1 0x1 ADD PUSH2 0x4EC8 JUMP JUMPDEST POP SWAP1 SWAP7 SWAP6 POP POP POP POP POP POP JUMP JUMPDEST PUSH1 0x20 DUP1 DUP3 MSTORE PUSH1 0x15 SWAP1 DUP3 ADD MSTORE PUSH32 0x64732D6D6174682D7375622D756E646572666C6F770000000000000000000000 PUSH1 0x40 DUP3 ADD MSTORE PUSH1 0x60 ADD SWAP1 JUMP JUMPDEST PUSH1 0x20 DUP1 DUP3 MSTORE PUSH1 0x1F SWAP1 DUP3 ADD MSTORE PUSH32 0x5472616E7366657248656C7065723A205452414E534645525F4641494C454400 PUSH1 0x40 DUP3 ADD MSTORE PUSH1 0x60 ADD SWAP1 JUMP JUMPDEST PUSH1 0x20 DUP1 DUP3 MSTORE PUSH1 0x1A SWAP1 DUP3 ADD MSTORE PUSH32 0x466553776170526F757465723A20494E56414C49445F50415448000000000000 PUSH1 0x40 DUP3 ADD MSTORE PUSH1 0x60 ADD SWAP1 JUMP JUMPDEST PUSH1 0x20 DUP1 DUP3 MSTORE PUSH1 0x15 SWAP1 DUP3 ADD MSTORE PUSH32 0x466553776170526F757465723A20455850495245440000000000000000000000 PUSH1 0x40 DUP3 ADD MSTORE PUSH1 0x60 ADD SWAP1 JUMP JUMPDEST PUSH1 0x20 DUP1 DUP3 MSTORE PUSH1 0x14 SWAP1 DUP3 ADD MSTORE PUSH32 0x64732D6D6174682D6D756C2D6F766572666C6F77000000000000000000000000 PUSH1 0x40 DUP3 ADD MSTORE PUSH1 0x60 ADD SWAP1 JUMP JUMPDEST PUSH1 0x20 DUP1 DUP3 MSTORE PUSH1 0x25 SWAP1 DUP3 ADD MSTORE PUSH32 0x4665537761704C6962726172793A20494E53554646494349454E545F4C495155 PUSH1 0x40 DUP3 ADD MSTORE PUSH32 0x4944495459000000000000000000000000000000000000000000000000000000 PUSH1 0x60 DUP3 ADD MSTORE PUSH1 0x80 ADD SWAP1 JUMP JUMPDEST PUSH1 0x20 DUP1 DUP3 MSTORE PUSH1 0x12 SWAP1 DUP3 ADD MSTORE PUSH32 0x4665537761703A2057524F4E4720574554480000000000000000000000000000 PUSH1 0x40 DUP3 ADD MSTORE PUSH1 0x60 ADD SWAP1 JUMP JUMPDEST PUSH1 0x20 DUP1 DUP3 MSTORE PUSH1 0x14 SWAP1 DUP3 ADD MSTORE PUSH32 0x64732D6D6174682D6164642D6F766572666C6F77000000000000000000000000 PUSH1 0x40 DUP3 ADD MSTORE PUSH1 0x60 ADD SWAP1 JUMP JUMPDEST PUSH1 0x20 DUP1 DUP3 MSTORE PUSH1 0x28 SWAP1 DUP3 ADD MSTORE PUSH32 0x4665537761704C6962726172793A20494E53554646494349454E545F494E5055 PUSH1 0x40 DUP3 ADD MSTORE PUSH32 0x545F414D4F554E54000000000000000000000000000000000000000000000000 PUSH1 0x60 DUP3 ADD MSTORE PUSH1 0x80 ADD SWAP1 JUMP JUMPDEST PUSH1 0x20 DUP1 DUP3 MSTORE PUSH1 0x28 SWAP1 DUP3 ADD MSTORE PUSH32 0x466553776170526F757465723A20494E53554646494349454E545F4F55545055 PUSH1 0x40 DUP3 ADD MSTORE PUSH32 0x545F414D4F554E54000000000000000000000000000000000000000000000000 PUSH1 0x60 DUP3 ADD MSTORE PUSH1 0x80 ADD SWAP1 JUMP JUMPDEST PUSH1 0x20 DUP1 DUP3 MSTORE PUSH1 0x22 SWAP1 DUP3 ADD MSTORE PUSH32 0x4665537761704C6962726172793A20494E53554646494349454E545F414D4F55 PUSH1 0x40 DUP3 ADD MSTORE PUSH32 0x4E54000000000000000000000000000000000000000000000000000000000000 PUSH1 0x60 DUP3 ADD MSTORE PUSH1 0x80 ADD SWAP1 JUMP JUMPDEST PUSH1 0x20 DUP1 DUP3 MSTORE PUSH1 0x1B SWAP1 DUP3 ADD MSTORE PUSH32 0x4665537761704C6962726172793A20494E56414C49445F504154480000000000 PUSH1 0x40 DUP3 ADD MSTORE PUSH1 0x60 ADD SWAP1 JUMP JUMPDEST PUSH1 0x20 DUP1 DUP3 MSTORE PUSH1 0x24 SWAP1 DUP3 ADD MSTORE PUSH32 0x466553776170526F757465723A204558434553534956455F494E5055545F414D PUSH1 0x40 DUP3 ADD MSTORE PUSH32 0x4F554E5400000000000000000000000000000000000000000000000000000000 PUSH1 0x60 DUP3 ADD MSTORE PUSH1 0x80 ADD SWAP1 JUMP JUMPDEST PUSH1 0x20 DUP1 DUP3 MSTORE PUSH1 0x23 SWAP1 DUP3 ADD MSTORE PUSH32 0x466553776170526F757465723A20494E53554646494349454E545F425F414D4F PUSH1 0x40 DUP3 ADD MSTORE PUSH32 0x554E540000000000000000000000000000000000000000000000000000000000 PUSH1 0x60 DUP3 ADD MSTORE PUSH1 0x80 ADD SWAP1 JUMP JUMPDEST PUSH1 0x20 DUP1 DUP3 MSTORE PUSH1 0x11 SWAP1 DUP3 ADD MSTORE PUSH32 0x4665537761703A20524154494F20454552000000000000000000000000000000 PUSH1 0x40 DUP3 ADD MSTORE PUSH1 0x60 ADD SWAP1 JUMP JUMPDEST PUSH1 0x20 DUP1 DUP3 MSTORE PUSH1 0x23 SWAP1 DUP3 ADD MSTORE PUSH32 0x5472616E7366657248656C7065723A204554485F5452414E534645525F464149 PUSH1 0x40 DUP3 ADD MSTORE PUSH32 0x4C45440000000000000000000000000000000000000000000000000000000000 PUSH1 0x60 DUP3 ADD MSTORE PUSH1 0x80 ADD SWAP1 JUMP JUMPDEST PUSH1 0x20 DUP1 DUP3 MSTORE PUSH1 0x29 SWAP1 DUP3 ADD MSTORE PUSH32 0x4665537761704C6962726172793A20494E53554646494349454E545F4F555450 PUSH1 0x40 DUP3 ADD MSTORE PUSH32 0x55545F414D4F554E540000000000000000000000000000000000000000000000 PUSH1 0x60 DUP3 ADD MSTORE PUSH1 0x80 ADD SWAP1 JUMP JUMPDEST PUSH1 0x20 DUP1 DUP3 MSTORE PUSH1 0x23 SWAP1 DUP3 ADD MSTORE PUSH32 0x466553776170526F757465723A20494E53554646494349454E545F415F414D4F PUSH1 0x40 DUP3 ADD MSTORE PUSH32 0x554E540000000000000000000000000000000000000000000000000000000000 PUSH1 0x60 DUP3 ADD MSTORE PUSH1 0x80 ADD SWAP1 JUMP JUMPDEST PUSH1 0x20 DUP1 DUP3 MSTORE PUSH1 0x16 SWAP1 DUP3 ADD MSTORE PUSH32 0x4665537761703A204C4553535F494E5F414D4F554E5400000000000000000000 PUSH1 0x40 DUP3 ADD MSTORE PUSH1 0x60 ADD SWAP1 JUMP JUMPDEST PUSH1 0x20 DUP1 DUP3 MSTORE PUSH1 0x24 SWAP1 DUP3 ADD MSTORE PUSH32 0x5472616E7366657248656C7065723A205452414E534645525F46524F4D5F4641 PUSH1 0x40 DUP3 ADD MSTORE PUSH32 0x494C454400000000000000000000000000000000000000000000000000000000 PUSH1 0x60 DUP3 ADD MSTORE PUSH1 0x80 ADD SWAP1 JUMP JUMPDEST PUSH1 0x20 DUP1 DUP3 MSTORE PUSH1 0x13 SWAP1 DUP3 ADD MSTORE PUSH32 0x4665537761703A204E4F54204352454154454400000000000000000000000000 PUSH1 0x40 DUP3 ADD MSTORE PUSH1 0x60 ADD SWAP1 JUMP JUMPDEST PUSH1 0x20 DUP1 DUP3 MSTORE PUSH1 0x17 SWAP1 DUP3 ADD MSTORE PUSH32 0x4665537761703A204C4553535F4F55545F414D4F554E54000000000000000000 PUSH1 0x40 DUP3 ADD MSTORE PUSH1 0x60 ADD SWAP1 JUMP JUMPDEST SWAP1 DUP2 MSTORE PUSH1 0x20 ADD SWAP1 JUMP JUMPDEST PUSH1 0x0 DUP5 DUP3 MSTORE PUSH20 0xFFFFFFFFFFFFFFFFFFFFFFFFFFFFFFFFFFFFFFFF DUP5 AND PUSH1 0x20 DUP4 ADD MSTORE PUSH1 0x60 PUSH1 0x40 DUP4 ADD MSTORE DUP3 MLOAD DUP1 PUSH1 0x60 DUP5 ADD MSTORE PUSH2 0x5570 DUP2 PUSH1 0x80 DUP6 ADD PUSH1 0x20 DUP8 ADD PUSH2 0x55CD JUMP JUMPDEST PUSH1 0x1F ADD PUSH32 0xFFFFFFFFFFFFFFFFFFFFFFFFFFFFFFFFFFFFFFFFFFFFFFFFFFFFFFFFFFFFFFE0 AND SWAP2 SWAP1 SWAP2 ADD PUSH1 0x80 ADD SWAP5 SWAP4 POP POP POP POP JUMP JUMPDEST SWAP2 DUP3 MSTORE PUSH1 0x20 DUP3 ADD MSTORE PUSH1 0x40 ADD SWAP1 JUMP JUMPDEST SWAP4 DUP5 MSTORE PUSH1 0x20 DUP5 ADD SWAP3 SWAP1 SWAP3 MSTORE PUSH1 0x40 DUP4 ADD MSTORE PUSH1 0x60 DUP3 ADD MSTORE PUSH1 0x80 ADD SWAP1 JUMP JUMPDEST PUSH1 0x0 JUMPDEST DUP4 DUP2 LT ISZERO PUSH2 0x55E8 JUMPI DUP2 DUP2 ADD MLOAD DUP4 DUP3 ADD MSTORE PUSH1 0x20 ADD PUSH2 0x55D0 JUMP JUMPDEST DUP4 DUP2 GT ISZERO PUSH2 0x357B JUMPI POP POP PUSH1 0x0 SWAP2 ADD MSTORE JUMP JUMPDEST PUSH20 0xFFFFFFFFFFFFFFFFFFFFFFFFFFFFFFFFFFFFFFFF DUP2 AND DUP2 EQ PUSH2 0x561B JUMPI PUSH1 0x0 DUP1 REVERT JUMPDEST POP JUMP JUMPDEST DUP1 ISZERO ISZERO DUP2 EQ PUSH2 0x561B JUMPI PUSH1 0x0 DUP1 REVERT JUMPDEST PUSH14 0xFFFFFFFFFFFFFFFFFFFFFFFFFFFF DUP2 AND DUP2 EQ PUSH2 0x561B JUMPI PUSH1 0x0 DUP1 REVERT INVALID LOG2 PUSH5 0x6970667358 0x22 SLT KECCAK256 SWAP12 0xAD EQ 0xD2 0xB5 0xF8 0xAD 0xD2 0xF8 DUP16 EXTCODEHASH 0xD5 RETURN 0xD9 MLOAD 0xF8 0x4E DUP8 PUSH30 0x72C6CA9D0884A060E4598114CB64736F6C634300060C0033000000000000 "
    }
  }
}